:100000000C94D81D0C94091E0C94091E0C94091E06
:100010000C94091E0C94091E0C94091E0C94091EC4
:100020000C94091E0C94091E0C94091E0C94091EB4
:100030000C94091E0C94091E0C94091E0C94091EA4
:100040000C94091E0D94A1450C94091E0C94091ED4
:100050000C94091E0C94091E0D944C3A0D946B28B7
:100060000C94091E0C9467980C945D980C94091ECE
:100070000C94091E0C94091E0C94091E0C94091E64
:100080000C94F54E0C94091E0C94091E0C94091E38
:100090000C94091E0C94091E0C94091E0C94091E44
:1000A0000C94091E0C94091E0C94C74E0C94091E46
:1000B0000C94091E0C94091E0C94091E0C94091E24
:1000C0000C94091E0C94091E0C94091E0C94091E14
:1000D0000C94091E0C94091E0C94091E0C94091E04
:1000E0000C94091E084AD73B3BCE016E84BCBFFD71
:1000F000C12F3D6C74319ABD56833DDA3D00C77FF8
:1001000011BED9E4BB4C3E916BAAAABE0000008090
:100110003F05A84CCDB2D44EB93836A9020C50B91F
:10012000918688083CA6AAAA2ABE000000803F0744
:10013000634236B79BD8A71A39685618AEBAAB5582
:100140008C1D3CB7CC5763BD6DEDFD753EF6177247
:1001500031BF000000803F08000000BE9224491219
:100160003EABAAAA2ABECDCCCC4C3E00000080BE3D
:10017000ABAAAAAA3E00000000BF000000803F001A
:1001800000000000084178D3BB4387D1133D190E0E
:100190003CC3BD4282AD2B3E68EC8276BED98FE176
:1001A000A93E4C80EFFFBE01C4FF7F3F000000006E
:1001B00000000C949DC10C94E0C20C9483C20C947A
:1001C000D4BA0D94A10D0D9419030C9436B80C9467
:1001D000C1FA0D94C10D0C94E5BD0C943DC20C9474
:1001E000ECBA0C94A8220C9498B60D947C0D0C9447
:1001F00081B70C940DC30C941BB80C9480BE0C9466
:10020000B1F20C94A0BB0C947EC20C9427C20C9447
:1002100038BB0C9449B80C94B0FB0D944B250D944D
:1002200024260C947E350D949B0D0D94910D0C9409
:10023000DABA0C949CBB0C9417CB0D94240E0C943E
:100240005AB30C94F6B60C94E0BA0C9491380C9412
:1002500001E80C94B5C80C9447E70C94AA220C94BE
:1002600079C20C941DCB0C94CDC80D94170E0C9430
:1002700002B80C94A8DF0C94B7B70C9481E90C94E5
:10028000D0B70C945CB80C948BBB0D9445260C94A1
:100290006DC20C940E1E0C94CCC50C94E3FE0C9411
:1002A00087BB0C94E9B70C946FB40D94D0250C94D3
:1002B000C4C80C9405BF0C9469FD0C94A3E40C9481
:1002C00019BB0D947D260C9461C20C94B7BB0C94A1
:1002D0006DBC0C94EAB60D94F8040C941BCB0D94F1
:1002E00054090C942CDD0D945F260C942BC20D94B4
:1002F000BE260C9446F20C9488C20C94A6220C9450
:1003000075B80D9457260C944ABE0C947AB60D9489
:10031000EA0D0C94C3DB0D948C260C946AB30C94F8
:100320009CB70D948E0D0C9472FC0C9419CB0D940B
:1003300090090C940B1E0C9498C10C941FF80C940B
:10034000DCDB0C9480B00D94860D0C94A0BA0C9458
:10035000F0F80D94A90D0C9437C20D94B4260C94AA
:1003600055C20C9440300D944F260C94A9C10C94A6
:10037000823B0C9443C20C940FB70C944FBE0D9467
:10038000A0260D945E250D94B70D0C94B3F60D9434
:1003900031260D94AF0D0C9467C20C94F4C10C94EB
:1003A0004DC70D94550D0C94FEC20C9430B70C94AF
:1003B00078E30C944BB70D94F2280C9461E60D94FD
:1003C000AF660C949EF20C9466B70C944FC20C94DA
:1003D0004CB60C9481300C943EC70C9422B70C940C
:1003E00073C20C941FCB0D94BD0D0C9493C10C944F
:1003F00087B00D9469260D9483000D94970D0C948D
:10040000F5DB0C94D7B60C94FABA0C948DB60C9418
:100410003AB10D94AA260C9405CA0D94345E0D943D
:100420003B260C945BC20C9445BE0C94A4220C9405
:100430005DE50D94A50D0D9473260D9496260C94F0
:1004400031C20C94F7B10C9486BE0D94250E0D9418
:10045000460D0C942FC70C9449C20D942C260C9475
:10046000A2220C945BF20D948A0D0C948DC20C9414
:100470003B3A0D9413070C9451B30C94EFC20D94B6
:10048000820D0D94BC0D0C94E6BA0C9429C20C9408
:100490008DE90D94B30D0C94B5BB0C94B4D20C94AF
:1004A0006FB64E414E494E495459494E46CDCCCC7B
:1004B0003D0AD7233C17B7D13877CC2B329595E638
:1004C000241FB14F0A000020410000C84200401C18
:1004D0004620BCBE4CCA1B0E5AAEC59D7400407A65
:1004E00010F35A00A0724E18090010A5D4E80000BD
:1004F000E87648170000E40B54020000CA9A3B005B
:100500000000E1F505000080969800000040420FD1
:10051000000000A08601000000102700000000E895
:1005200003000000006400000000000A000000005A
:10053000000100000000002C76D888DC674F0823FB
:10054000DFC1DFAE59E1B1B796E5E3E453C63AE661
:1005500051997696E8E6C28426EB898C9B62ED4041
:100560007C6FFCEFBC9C9F40F2BAA56FA5F4900590
:100570005A2AF75C936B6CF9676DC11BFCE0E40DC4
:1005800047FEF520E6B500D0ED902E0300943577B8
:10059000050080841E080000204E0A000000C80CE0
:1005A000333333330F986E12831141EF8D21148949
:1005B0003BE65516CFFEE6DB18D1844B381BF77CA3
:1005C0001D901DA4BBE424203284725E228100C9E8
:1005D000F124ECA1E53D27726F746174696F6E20A0
:1005E0006D61747269783A0A005A5F6D6F76655F63
:1005F000636F6D700A00417869732000206D696E29
:100600003A00206D61783A00534C4F5700434F4DEC
:100610004D554E49434154494F4E0044525952554D
:100620004E004552524F525300494E464F004543EB
:10063000484F004572726F722077726974696E67F5
:1006400020746F20454550524F4D210A004D3431E2
:1006500030004D313132004D313038004E6F204383
:100660006865636B73756D2077697468206C696E5B
:1006700065206E756D6265722C204C617374204C20
:10068000696E653A2000636865636B73756D206DF4
:1006900069736D617463682C204C617374204C69BC
:1006A0006E653A20004C696E65204E756D6265720C
:1006B000206973206E6F74204C617374204C696ED6
:1006C00065204E756D6265722B312C204C61737400
:1006D000204C696E653A20004D3131300053442082
:1006E00072656164206572726F720A002121204B6D
:1006F000494C4C20636175736564206279204B49D5
:100700004C4C20627574746F6E2F70696E0A0021F4
:1007100021204B494C4C20636175736564206279DC
:1007200020746F6F206D75636820696E61637469F2
:1007300076652074696D65202D2063757272656E13
:100740007420636F6D6D616E643A20006275737919
:100750003A2070617573656420666F7220696E70EF
:1007600075740A00627573793A20706175736564F7
:1007700020666F7220757365720A00627573793A2C
:100780002070726F63657373696E670A004D6564EC
:1007900069612052656D6F766564004D65646961BD
:1007A00020496E73657274656400506C6561736591
:1007B000205265736574005052494E54455220488A
:1007C000414C5445440025533A202553004B494C95
:1007D0004C45442E20005072696E74657220686129
:1007E0006C7465642E206B696C6C28292063616CC5
:1007F0006C6564210A006563686F3A004572726F28
:10080000723A00204A0020204D3432312049002025
:100810002047323920493939390A006163746976D1
:10082000650A002053797374656D2076312E30315E
:1008300020002020207C0A004E414E0020202E2047
:10084000202000207C004C43443A0A004353563A8F
:100850000A0020666F7220003A0A0A000A426564A4
:1008600020546F706F677261706879205265706F85
:1008700072740050726F62696E67204661696C65C0
:10088000640A0050726F62696E67204661696C6528
:100890006400446F6E652E0A003F496E76616C6994
:1008A000642073746F7261676520736C6F742E0AB5
:1008B0003F557365203020746F20003F45455052EE
:1008C0004F4D2073746F72616765206E6F74206185
:1008D0007661696C61626C652E0A0047323920507E
:1008E000322066696E69736865642E0A0058592063
:1008F0006F757473696465207072696E7461626C7F
:1009000065207261646975732E0A003F4572726FCB
:100910007220696E20427573696E6573732043613E
:100920007264206D6561737572656D656E742E0AF3
:10093000004D616E75616C6C792070726F62696ECA
:100940006720756E726561636861626C6520706FA7
:10095000696E74732E0A0050726F62696E6720614F
:10096000726F756E642028004D65736820696E761D
:10097000616C6964617465642E2050726F62696E87
:1009800067206D6573682E0A004D657368207A656F
:10099000726F65642E0A0044656661756C7420731D
:1009A000746F7261676520736C6F7420302073659B
:1009B0006C65637465642E0A004C6F6164696E67D0
:1009C00020746573745F7061747465726E207661F3
:1009D0006C7565732E0A0A00496E76616C69642035
:1009E000746573745F7061747465726E2076616C87
:1009F00075652E20282D3120746F2032290A0A00B7
:100A00004C6F636174696F6E7320696E76616C6997
:100A100064617465642E0A0A00456E74697265200B
:100A20004D65736820696E76616C69646174656494
:100A30002E0A0A005374616E646172642044657604
:100A4000696174696F6E3A20004D65616E204D6575
:100A50007368204865696768743A200023206F66D0
:100A60002073616D706C65733A20000A4D65736880
:100A7000206F6E6C79207061727469616C6C792082
:100A8000706F70756C617465642E0A0A0050726F25
:100A900062696E6720506F696E74000A50726F62EF
:100AA000696E67206D65736820706F696E742000D1
:100AB00020616E642074616B652061206D656173D7
:100AC0007572656D656E742E0A006D6D20746869AF
:100AD000636B2E0A00427573696E65737320436100
:100AE0007264206973200052656D6F766520262040
:100AF0004D656173757265204265640052656D6F66
:100B00007665207368696D00506C61636520736859
:100B1000696D20756E646572206E6F7A7A6C6500FF
:100B20004D65736820506F696E74204D65617375F3
:100B30007265642061743A20000A4D657368206F05
:100B40006E6C79207061727469616C6C7920706F61
:100B500070756C617465642E0A00506C6163652069
:100B60005368696D2026204D656173757265004D6F
:100B70006F76696E6720746F206E657874004D65BE
:100B800073682045646974696E672053746F707070
:100B9000656400446F6E652045646974696E672002
:100BA0004D6573680A00446F6E6520456469746919
:100BB0006E67204D6573680046696E652054756EDA
:100BC000696E67204D6573680028582C5929206F7D
:100BD000757473696465207072696E7461626C65A6
:100BE000207261646975732E0A004F6666736574BE
:100BF000206F7574206F6620626F756E64732E208F
:100C0000283020746F2031306D6D290A0A00496E3A
:100C100076616C6964206D617020747970652E0A4C
:100C20000A003F43616E27742061637469766174C2
:100C30006520616E642064656163746976617465C2
:100C4000206174207468652073616D652074696D1E
:100C5000652E0A0A00426F74682058202620592009
:100C60006C6F636174696F6E73206D75737420624D
:100C700065207370656369666965642E0A0A003FC2
:100C8000496E76616C696420677269642073697A61
:100C90006520284A29207370656369666965642048
:100CA00028322D39292E0A0A003F285029686173FD
:100CB000652076616C756520696E76616C6964206B
:100CC00028302D36292E0A0A003F285629657262DF
:100CD0006F7365206C6576656C20696D706C6175ED
:100CE0007369626C652028302D34292E0A0A003F72
:100CF000285229657065746974696F6E20636F7519
:100D00006E7420696E76616C69642028312B292EFF
:100D10000A0A00446F696E6720473239005D0A0095
:100D200062656420706C616E65206E6F726D616CBF
:100D3000203D205B00436F756C64206E6F742063F0
:100D40006F6D706C657465204C53462100436F7263
:100D50007265637465645F5A3D0025532025692FD1
:100D600025690054696C74696E67206D657368202D
:100D7000706F696E7420003F4572726F72207072DE
:100D80006F62696E6720706F696E742E2041626FAA
:100D90007274696E67206F7065726174696F6E2E10
:100DA0000A00255320332F330054696C74696E6731
:100DB000206D6573682028332F33290A00255320BE
:100DC000322F330054696C74696E67206D657368E7
:100DD0002028322F33290A0054696C74696E672009
:100DE000506F696E7400255320312F330054696CA5
:100DF00074696E67206D6573682028312F33290A66
:100E000000646F6E650A00496E7375666669636992
:100E1000656E7420646174610A0045787472617053
:100E20006F6C6174696E67206D6573682E2E2E007D
:100E300053544F505045442E20005072696E7465D3
:100E4000722073746F707065642064756520746FB0
:100E5000206572726F72732E2046697820746865FF
:100E6000206572726F7220616E6420757365204D0B
:100E700039393920746F20726573746172742E2051
:100E80002854656D70657261747572652069732090
:100E900072657365742E20536574206974206166D1
:100EA0007465722072657374617274696E67290A61
:100EB0000021212053544F502063616C6C656420E5
:100EC00062656361757365206F6620424C546F756F
:100ED0006368206572726F72202D20726573746171
:100EE00072742077697468204D3939390A00426577
:100EF00064204C6576656C696E6720004661696C9C
:100F0000656420746F20656E61626C652042656463
:100F1000204C6576656C696E670A00496E76616C77
:100F20006964206D6573682E0A0076616C69640AD5
:100F300053746F7261676520736C6F743A20004D53
:100F400065736820697320003F496E76616C69643F
:100F50002073746F7261676520736C6F742E0A0062
:100F600020205261646975733A002E48656967688C
:100F7000743A007879007A7800797A00207A002033
:100F800079002078002E2020202000253033692E83
:100F90007800302E253033690073746420646576E0
:100FA0003A00456E64204452592D52554E004E6F02
:100FB00020636F6E76657267656E63650049746560
:100FC000726174696F6E203A202530326900536176
:100FD00076652077697468204D35303020616E6405
:100FE0002F6F7220636F707920746F20436F6E666D
:100FF000696775726174696F6E2E680A0043616C6F
:101000006962726174696F6E2073643A00726F6C0A
:101010006C696E67206261636B2E0043616C69626C
:10102000726174696F6E204F4B00436F727265631B
:10103000742064656C74612073657474696E677381
:101040002077697468204D36363520616E64204DF6
:101050003636360A0020284452592D52554E290062
:10106000436865636B696E672E2E2E204143003FF7
:101070004265642063616C6962726174696F6E209D
:1010800072616469757320696D706C6175736962F2
:101090006C652E0A00473333204175746F2043611D
:1010A0006C6962726174650A003F28562965726234
:1010B0006F7365206C6576656C20696D706C617509
:1010C0007369626C652028302D33292E0A003F2871
:1010D00046296F72636520697465726174696F6E09
:1010E00020696D706C61757369626C652028302DA4
:1010F0003330292E0A003F284329616C69627261EE
:1011000074696F6E20707265636973696F6E2069B0
:101110006D706C61757369626C6520283E3D302985
:101120002E0A003F2850296F696E747320696D7014
:101130006C61757369626C652028302D3130292E01
:101140000A0020496E76616C696420657874727556
:101150006465722000536C6565702E2E2E00486FFA
:101160006D6520257325732573204669727374009D
:10117000205A3A200020593A200042656420583A0B
:1011800020004D65736820706F696E74206F7574F0
:10119000206F662072616E67650A00436C69636B3D
:1011A00020746F20526573756D652E2E2E004E6F64
:1011B000204D6F76652E00456E642066696C652053
:1011C0006C6973740A00426567696E2066696C65B4
:1011D000206C6973740A004E6F206D656469610A42
:1011E00000286E6F2066696C652900437572726510
:1011F0006E742066696C653A2000534420707269F1
:101200006E74696E67206279746520004E6F742079
:101210005344207072696E74696E670A0044656C8D
:101220006574696F6E206661696C65642C2046691F
:101230006C653A200046696C652064656C65746570
:10124000643A00256979202569642025696820258C
:10125000696D20256973005072696E742074696D20
:10126000653A2000496E76616C69642050696E2091
:101270004D6F64650A006F66660044454255473A03
:10128000004D3131322053687574646F776E004DB4
:1012900031313320530050533A300A0050533A3121
:1012A0000A0044656C7461626F74204F46462E00DC
:1012B0004348414D4245525F54454D50455241547B
:1012C00055524500424142595354455050494E47AA
:1012D0000041524353004D4F54494F4E5F4D4F44D0
:1012E000455300544845524D414C5F50524F544570
:1012F0004354494F4E004C4F4E475F46494C454E74
:10130000414D45004155544F5245504F52545F5343
:10131000445F535441545553005344434152440095
:1013200050524F4D50545F535550504F52540045FA
:101330004D455247454E43595F5041525345520027
:10134000434153455F4C494748545F4252494748DF
:10135000544E45535300544F47474C455F4C494703
:1013600048545300534F4654574152455F504F57CE
:101370004552004255494C445F50455243454E54F6
:10138000004C4556454C494E475F44415441005A34
:101390005F50524F42450052554E4F5554004155F3
:1013A000544F4C4556454C005052494E545F4A4F9D
:1013B000420050524F4752455353004155544F52EB
:1013C00045504F52545F54454D5000564F4C554D6B
:1013D00045545249430042494E4152595F46494C97
:1013E000455F5452414E5346455200534552494180
:1013F0004C5F584F4E5F584F4646004649524D5736
:101400004152455F4E414D453A4D61726C696E20C7
:10141000322E302E3720284D617220203920323074
:1014200032312031383A34353A34392920534F5546
:101430005243455F434F44455F55524C3A6874747C
:1014400070733A2F2F6769746875622E636F6D2F02
:101450004D61726C696E4669726D776172652F4D70
:1014600061726C696E2050524F544F434F4C5F561F
:10147000455253494F4E3A312E30204D4143484951
:101480004E455F545950453A44656C7461626F74BF
:101490002045585452554445525F434F554E543A97
:1014A0003120555549443A63656465326132662D91
:1014B000343161322D343734382D396231322D6375
:1014C00035356336326633363766660A002F2F208D
:1014D000004D31343520533C696E6465783E206F91
:1014E0007574206F662072616E67652028302D311B
:1014F000290A00416363656C65726174696F6E3AB5
:101500002050005741524E494E4721204C6F7720C2
:101510005A204A65726B206D6179206C6561642088
:10152000746F20756E77616E746564207061757379
:1015300065732E0A0020204D61783A200020204D4E
:10154000696E3A2000536F667420656E6473746F21
:1015500070733A200046523A0020466C6F773A206A
:101560000050726F7465637465642050696E0A0080
:1015700020536572766F200020643A0020693A009B
:1015800020703A00496E76616C69642065787472E7
:10159000756465720A006469730043290A00616218
:1015A0006C656420286D696E2074656D7020004341
:1015B0006F6C642065787472756465732061726500
:1015C00020004D34323120696E636F72726563742E
:1015D00020706172616D65746572207573616765F5
:1015E0000A00454550524F4D204F4B0A003F5A20AC
:1015F0006F7574206F662072616E67652028003FEA
:1016000059206F7574206F662072616E676520289F
:101610002D003F58206F7574206F662072616E67D1
:101620006520282D0050726F6265204F66667365D5
:1016300074205800446F6E65207072696E74696E14
:10164000672066696C650A004D3737004D333100FD
:101650004361703A0047322F473320626164207043
:101660006172616D65746572730A00656E7175658E
:101670007565696E672022006F6B00526573656E39
:10168000643A200020573A00436F6F6C696E672EF2
:101690002E2E0048656174696E672E2E2E0045203F
:1016A00025530023646566696E65204445464155AF
:1016B0004C545F004B6420004B6920004B702000AD
:1016C000504944204175746F74756E652066696E6B
:1016D0006973686564212050757420746865206C96
:1016E000617374204B702C204B6920616E64204B19
:1016F0006420636F6E7374616E74732066726F6DB5
:101700002062656C6F7720696E746F20436F6E6620
:10171000696775726174696F6E2E680A005049447A
:10172000204175746F74756E65206661696C6564BF
:10173000212074696D656F75740A00504944204119
:1017400075746F74756E65206661696C65642120BF
:1017500054656D706572617475726520746F6F2069
:10176000686967680A00204B643A2000204B693A98
:101770002000204B703A20000A20436C617373698B
:101780006320504944200A002054753A2000204B21
:10179000753A2000206D61783A2000206D696E3A1C
:1017A000200020643A200020626961733A200050D2
:1017B0004944204175746F74756E6520737461724D
:1017C000740A00504944204175746F74756E650049
:1017D000504944204175746F74756E652066616967
:1017E0006C6564212042616420657874727564655B
:1017F00072206E756D6265720A002D2D2D2D2D2DB6
:10180000007C4D61726C696E7C00456E636C6F7319
:10181000757265004D6F76696E672E2E2E004669D3
:101820006C2E204469612E004520696E206D6DC2CA
:10183000B30020022046616374002002204D6178CD
:10184000002002204D696E004175746F74656D70E3
:10185000005654726176204D696E00566D696E00B7
:10186000566D6178204500566D6178204300566DB5
:101870006178204200566D6178204100416D6178A9
:10188000204500416D6178204300416D6178204220
:1018900000416D6178204100412D54726176656C84
:1018A00000412D5265747261637400416363656C1D
:1018B000000900000A010008000A01000A090000EE
:1018C000000A000800363726023C3D380F2E303E15
:1018D00012131A1C180AFF430C090708440001C020
:1018E00018BB18B618B1180000C6C200009AC20092
:1018F000005CC2000004C2000030C10000304100A2
:1019000000044200005C4200009A420000C6422EE1
:1019100006290622061B060D06A10000006900A28A
:101920000000006300B00000000900C10000004199
:1019300000C20000004100C30000004100C40000DC
:10194000004100C50000004100C60000004145C73D
:101950000000004300C80000004500C90000004529
:1019600000CD0000004900D10000004E00D500006D
:10197000004F00D60000004F00D70000007800DCC8
:101980000000005500DD0000005900E0000000618B
:1019900000E10000006100E20000006100E30000DF
:1019A000006100E40000006100E50000006100E665
:1019B0000000006165E70000006300E800000065CA
:1019C00000E90000006500EA0000006500EB00008F
:1019D000006500EC0000006900ED0000006900EE09
:1019E0000000006900EF0000006900F10000006ED7
:1019F00000F20000006F00F30000006F00F4000030
:101A0000006F00F50000006F00F60000006F00F8A6
:101A10000000006F00F90000007500FA000000757A
:101A200000FB0000007500FC0000007500FD0000D8
:101A3000007900FF0000007900040100004100056A
:101A4000010000610006010000430007010000637F
:101A5000000C01000043000D01000063000E0100B6
:101A60000044000F0100006400110100006400192F
:101A700001000065001A01000045001B010000651F
:101A8000001F010000670030010000490031010023
:101A9000006900410100004C00420100006C00435D
:101AA0000100004E00440100006E00480100006E7D
:101AB000005801000052005901000072005A010054
:101AC0000053005B01000073005F010000730060C1
:101AD0000100005300610100007300650100007403
:101AE000006F01000075007C0100007A007D01009C
:101AF000005A007E0100007A00920100006600E3B7
:101B00000200007800222000002E001E210000505C
:101B10007822210000544D902100003C2D9221009C
:101B2000002D3EB02100000300BB21000004003C5A
:101B30002200007E00482200007E3D60220000213D
:101B40003D612200003D00642200003C3D65220012
:101B5000003E3DF12300000700A03000003D0021C1
:101B6000F301000200C2F401000500A2000000EC35
:101B700000B0000000DF00E4000000E100F600001B
:101B800000EF00F7000000FD00FC000000F500E39E
:101B9000020000EB0087030000A5008F030000F4A3
:101BA0000098030000F2009E030000E300A303007E
:101BB00000F600A9030000F400AC030000E000AD53
:101BC000030000E300B1030000E000B2030000E204
:101BD00000B5030000E300B8030000F200BC0300FE
:101BE00000E400BE030000E300C0030000F700C1F2
:101BF000030000E600C3030000E500902100007F21
:101C000000922100007E001A220000E8001E22003F
:101C100000F30088250000FF0002300000A1000C46
:101C2000300000A2000D300000A3009B300000DE59
:101C3000009C300000DF00A03000003D00A130001B
:101C400000A700A2300000B100A3300000A800A44B
:101C5000300000B200A5300000A900A6300000B39B
:101C600000A7300000AA00A8300000B400A930008E
:101C700000AB00AA300000B500AB300000B600ACED
:101C8000300000B6DEAD300000B700AE300000B767
:101C9000DEAF300000B800B0300000B8DEB1300078
:101CA00000B900B2300000B9DEB3300000BA00B4B1
:101CB000300000BADEB5300000BB00B6300000BB1B
:101CC000DEB7300000BC00B8300000BCDEB9300028
:101CD00000BD00BA300000BDDEBB300000BE00BC5D
:101CE000300000BEDEBD300000BF00BE300000BFCF
:101CF000DEBF300000C000C0300000C0DEC13000D8
:101D000000C100C2300000C1DEC3300000AF00C41B
:101D1000300000C200C5300000C2DEC6300000C383
:101D200000C7300000C3DEC8300000C400C9300066
:101D300000C4DECA300000C500CB300000C600CCB5
:101D4000300000C700CD300000C800CE300000C910
:101D500000CF300000CA00D0300000CADED1300011
:101D600000CADFD2300000CB00D3300000CBDED47D
:101D7000300000CBDFD5300000CC00D6300000CCE6
:101D8000DED7300000CCDFD8300000CD00D93000E5
:101D900000CDDEDA300000CDDFDB300000CE00DC2D
:101DA000300000CEDEDD300000CEDFDE300000CFC0
:101DB00000DF300000D000E0300000D100E1300052
:101DC00000D200E2300000D300E3300000AC00E4B9
:101DD000300000D400E5300000AD00E6300000D552
:101DE00000E7300000AE00E8300000D600E9300027
:101DF00000D700EA300000D800EB300000D900EC3A
:101E0000300000DA00ED300000DB00EF300000DCD5
:101E100000F2300000A600F3300000DD00F43000D6
:101E200000B3DEF7300000DCDEFA300000A6DEFB97
:101E3000300000A500FC300000B000FD300000A420
:101E400000074E0000FB0086510000FC00435300D9
:101E500000FA0064FF0000A40065FF0000A5006612
:101E6000FF0000A60067FF0000A70068FF0000A8B1
:101E70000069FF0000A9006AFF0000AA006BFF00D4
:101E800000AB006CFF0000AC006DFF0000AD006E09
:101E9000FF0000AE006FFF0000AF0070FF0000B059
:101EA0000071FF0000B10072FF0000B20073FF007C
:101EB00000B30074FF0000B40075FF0000B50076A9
:101EC000FF0000B60077FF0000B70078FF0000B801
:101ED0000079FF0000B9007AFF0000BA007BFF0024
:101EE00000BB007CFF0000BC007DFF0000BD007E49
:101EF000FF0000BE007FFF0000BF0080FF0000C0A9
:101F00000081FF0000C10082FF0000C20083FF00CB
:101F100000C30084FF0000C40085FF0000C50086E8
:101F2000FF0000C60087FF0000C70088FF0000C850
:101F30000089FF0000C9008AFF0000CA008BFF0073
:101F400000CB008CFF0000CC008DFF0000CD008E88
:101F5000FF0000CE008FFF0000CF0090FF0000D0F8
:101F60000091FF0000D10092FF0000D20093FF001B
:101F700000D30094FF0000D40095FF0000D5009628
:101F8000FF0000D60097FF0000D70098FF0000D8A0
:101F90000099FF0000D9009AFF0000DA009BFF00C3
:101FA00000DB009CFF0000DC009DFF0000DD009EC8
:101FB000FF0000DE009FFF0000DF00E5FF00005C87
:101FC0000000000000010204040000001C1C0C04BE
:101FD00004040201000000000004081000000000DA
:101FE00000001C1F11111F00000006191803130C1C
:101FF00000040E1F041C000000000E1315110E003B
:10200000001C10181705060500040A0A0A0A111117
:102010000E0C12120C00000000001F1511151F00FD
:1020200000547A00547900547800457A00457900CC
:102030004578004D38340041425300504C41005027
:1020400072696E74205061757365640056652D4A1F
:1020500065726B0056432D4A65726B0056422D4ADD
:1020600065726B0056412D4A65726B0050726F624B
:1020700065205A204F66667365740050726F626502
:102080002059204F66667365740050726F62652038
:1020900058204F66667365740045207374657073CD
:1020A0002F6D6D00432053746570732F6D6D00426A
:1020B0002053746570732F6D6D00412053746570EB
:1020C000732F6D6D00416476616E636564205365A6
:1020D0007474696E6773003F0043616E63656C00E2
:1020E000496E697400496E697469616C697A65202A
:1020F000454550524F4D0046696C616D656E7400E8
:1021000054656D70657261747572650050726F62AE
:1021100065204F66667365747300416363656C6523
:10212000726174696F6E0056656C6F6369747900D3
:10213000436F6E66696775726174696F6E00537480
:102140006F770053572D4D6F6465004465706C6F59
:10215000790053656C662D54657374004E6F7A7AFE
:102160006C650046616E205370656564005265734E
:10217000746F72652044656661756C7473004C6F92
:1021800061642053657474696E67730053746F7271
:10219000652053657474696E677300507265686575
:1021A0006174202420436F6E6600424C546F756347
:1021B000680044656C74612043616C69627261748B
:1021C000696F6E004D61696E004469616720526FEE
:1021D00064005261646975730043616C6962726185
:1021E0007465205A0043616C69627261746520599C
:1021F0000043616C696272617465205800417574B6
:102200006F20486F6D650044656C74612053657480
:1022100074696E67730043616C69627261746520F2
:1022200043656E746572004175746F2043616C691B
:1022300062726174696F6E00473333004261636B91
:102240000053746F70004368616E6765204D65646C
:102250006961004D32310053776974636820506FB3
:10226000776572204F6E004D383000537769746384
:102270006820506F776572204F6666004D383100D8
:102280004D6F74696F6E00526573756D6520507285
:10229000696E74004E6F204D656469610054756EFF
:1022A000650053746F70205072696E7400506175D0
:1022B0007365205072696E7400496E666F205363B7
:1022C0007265656E005374617274205072696E7429
:1022D0000043616E6E6F7420656E74657220737555
:1022E000626469723A2000052E2E004672656520F0
:1022F00058590044697361626C652053746570704D
:1023000065727300436F6F6C646F776E0050726517
:102310006865617420240046616E205370656564B1
:10232000207E00466C6F77005A2056616C75650000
:102330004732380A4D313039205325690A4732393E
:1023400020503100486F74656E642054656D7000D4
:102350004732392050362043202D00486569676890
:102360007420416D6F756E740041646A75737420DA
:102370004D657368204865696768740046696E65D5
:102380002054756E6520436C6F736573740047321B
:102390003920503420540046696E652054756E65AE
:1023A00020416C6C00473239205034205239393981
:1023B000205400473239204A2569004C6576656C07
:1023C000204D657368005369646520506F696E74B1
:1023D000730047726964204D657368204C657665AB
:1023E0006C696E6700332D506F696E74204C657692
:1023F000656C696E6700473239204A3000473239D0
:10240000205033205220432E2569004D616E7561A6
:102410006C2046696C6C2D696E00536D617274207E
:1024200046696C6C2D696E00473239205033205458
:10243000300046696C6C2D696E20416D6F756E744D
:10244000004D65736820696E76616C6964617465BE
:10245000642E0A00496E76616C696461746520437C
:102460006C6F7365737400473239204900496E768A
:10247000616C696461746520416C6C00436F6E74BB
:10248000696E756520426564204D6573680047324A
:102490003920503120430046696C6C2D696E204D07
:1024A000657368004275696C6420436F6C64204DED
:1024B000657368004732380A47323920503100428C
:1024C00075696C6420437573746F6D204D65736816
:1024D000004732380A4D3130392049310A47323904
:1024E0002050310A4D3130342053300A4D313430D0
:1024F000205330004275696C64204D657368202854
:102500002429004732380A4D3130392049300A47F2
:1025100032392050310A4D3130342053300A4D3198
:1025200034302053300047323920256325690A4D65
:1025300031313720004D657368202569204C6F616B
:10254000646564004D657368202569205361766574
:1025500064005361766520426564204D65736800B0
:102560004C6F616420426564204D657368004D6561
:102570006D6F727920536C6F74004E6F2053746FBF
:102580007261676500473239205034205825732026
:102590005925732052256900202D2D2D2D2D004801
:1025A0006F6D696E672058595A004F6666205072E9
:1025B000696E746572204261636B757000473239D1
:1025C00020532D31004F757470757420666F722022
:1025D00043535600473239205431004F757470759B
:1025E0007420666F7220486F73740047323920542C
:1025F000300045646974204D657368004D616E75E7
:10260000616C6C79204275696C64204D657368005B
:1026100047323920493939390A4732392050322076
:1026200042205430004F75747075742055424C2010
:10263000496E666F0047323920570055424C20548E
:102640006F6F6C73004F7574707574204D6573688F
:10265000204D6170004D6573682053746F7261671F
:1026600065004D6573682045646974004163746951
:10267000766174652055424C004732392041004450
:102680006561637469766174652055424C00473218
:10269000392044002568753A2530326875002530A8
:1026A0003268753A25303268750053440020202086
:1026B000202020200044656C7461626F7420526594
:1026C0006164792E005072696E74696E672E2E2EC9
:1026D000005072696E742041626F72746564004DBF
:1026E00032350050617573696E672E2E2E00454598
:1026F00050524F4D2056657273696F6E204572724D
:102700006F7200454550524F4D20496E64657820E8
:102710004572726F7200454550524F4D20435243EF
:10272000204572726F720049676E6F726500576163
:10273000726E696E673A20436C65616E2043697200
:10274000636C652072657175697265732058590AEA
:10275000005761726E696E673A20526164697573E1
:10276000204F7574206F662052616E67650A0048BD
:102770006F6D696E67204661696C6564006F706596
:102780006E00545249474745524544007A5F6D6197
:1027900078007A5F6D696E00795F6D617800785FAF
:1027A0006D6178005265706F7274696E6720656E36
:1027B0006473746F70207374617475730A00576169
:1027C000726E696E673A20486F6D696E6720427558
:1027D0006D702044697669736F72203C20310A0065
:1027E0003B20372000000000000000000000AA434A
:1027F0000000C8420000C8420000AA430000C8C24E
:102800000000C8C2000000000A0A0A000048430095
:10281000004843000048430000A0400000A04000E2
:1028200000A04000004843000048430000AA4301C4
:10283000010120520020583A005072696E742066DF
:10284000726F6D204D656469610020746F6F206C3C
:102850006F6E6720657874727573696F6E20707221
:102860006576656E7465640A0020636F6C6420652C
:102870007874727573696F6E2070726576656E74A8
:1028800065640A0053657474696E67732053746FCE
:10289000726564002062797465733B206372632003
:1028A0000053657474696E67732053746F72656446
:1028B0002028004E6F20454550524F4D2E0A0045AE
:1028C0004550524F4D206461746173697A6520658B
:1028D00072726F722E0A003F4D65736820746F6FBD
:1028E0002062696720666F7220454550524F4D2E19
:1028F0000A0055424C2072657365740A00206C6FA3
:10290000616465642066726F6D2073746F726167B5
:10291000652E0A004D65736820003F43616E277481
:1029200020656E61626C65200020696E6974696162
:102930006C697A65642E0A0A002073746F7265648C
:102940002073657474696E6773207265747269654B
:10295000766564202800202863616C63756C61745F
:10296000656429210A0020213D2000454550524F31
:102970004D20435243206D69736D61746368202D4F
:10298000202873746F7265642920002053697A656A
:102990003A2000496E6465783A2000204D61726CDF
:1029A000696E3D563831290A00454550524F4D2039
:1029B00076657273696F6E206D69736D617463689B
:1029C0002028454550524F4D3D004D65736820739A
:1029D0006176656420696E20736C6F7420003F55CA
:1029E0006E61626C6520746F2073617665206D6521
:1029F000736820646174612E0A0020736C6F743DEB
:102A000000206D65736865735F656E643D004532D7
:102A1000454E443D00206D65736820736C6F747380
:102A200020617661696C61626C652E0A003F496EB7
:102A300076616C696420736C6F742E0A004D657347
:102A400068206C6F616465642066726F6D20736CC2
:102A50006F7420003F556E61626C6520746F206C4E
:102A60006F6164206D65736820646174612E0A0073
:102A700048617264636F6465642044656661756C67
:102A8000742053657474696E6773204C6F6164655C
:102A9000640A00556E696669656420426564204C6D
:102AA0006576656C696E67003B200020204D3835E7
:102AB000312058005A2D50726F6265204F66667340
:102AC00065740020204D333031205000504944209F
:102AD00073657474696E67733A002046002048007D
:102AE00020204D3134352053004D61746572696189
:102AF0006C2068656174757020706172616D6574B9
:102B00006572733A0020204D363635204C004465FE
:102B10006C74612073657474696E67733A204C3C01
:102B2000646961676F6E616C20726F643E20523C15
:102B30007261646975733E20483C686569676874B2
:102B40003E20533C7365676D656E747320706572CB
:102B5000207365633E2058595A3C746F7765722024
:102B6000616E676C65207472696D3E204142433C22
:102B7000726F64207472696D3E0020204D363636C7
:102B8000205800456E6473746F702061646A7573B9
:102B9000746D656E743A00206D65736865732E0AF6
:102BA0000A00454550524F4D2063616E20686F6C9E
:102BB000642000416374697665204D657368205315
:102BC0006C6F743A200020204D34323020530020A6
:102BD000204D323035204200416476616E63656479
:102BE0003A20423C6D696E5F7365676D656E745F18
:102BF00074696D655F75733E20533C6D696E5F66E9
:102C0000656564726174653E20543C6D696E5F74E5
:102C1000726176656C5F66656564726174653E209D
:102C2000583C6D61785F785F6A65726B3E20593CF5
:102C30006D61785F795F6A65726B3E205A3C6D61A9
:102C4000785F7A5F6A65726B3E20453C6D61785FA4
:102C5000655F6A65726B3E0020204D323034205033
:102C600000416363656C65726174696F6E202875DD
:102C70006E6974732F7332293A20503C7072696EFA
:102C8000745F616363656C3E20523C72657472616F
:102C900063745F616363656C3E20543C747261765B
:102CA000656C5F616363656C3E0020204D3230319E
:102CB0002058004D6178696D756D20416363656CC6
:102CC00065726174696F6E2028756E6974732F73F5
:102CD00032293A0020204D3230332058004D61789F
:102CE000696D756D20666565647261746573202811
:102CF000756E6974732F73293A005374657073206D
:102D000070657220756E69743A0020204D32303043
:102D10002053002044697361626C65640A0046694F
:102D20006C616D656E742073657474696E67733A57
:102D30000020204D3134392043203B20556E6974EA
:102D40007320696E2043656C736975730A002028CF
:102D50006D6D29002020473231202020203B205556
:102D60006E69747320696E206D6D0020433A0020F7
:102D7000423A0020436F756E7420413A0054484532
:102D8000524D414C2052554E4157415900546865AF
:102D9000726D616C2052756E617761790048656172
:102DA00074696E67204661696C656400486561748A
:102DB000696E67206661696C6564004572723A20CD
:102DC0004D415854454D50004D415854454D5020AB
:102DD000747269676765726564004572723A204D66
:102DE000494E54454D50004D494E54454D50207468
:102DF000726967676572656400202F0020403A00A1
:102E00007C3C3E5E2B3D3F2F5B5D3B2C2A225C00D1
:102E100043616E6E6F74206F70656E2073756264AF
:102E200069722000534420496E6974204661696CC0
:102E30000053442063617264206F6B0A006F7065F9
:102E40006E526F6F74206661696C65640A00766FFC
:102E50006C756D652E696E6974206661696C656458
:102E60000A004E6F20534420636172640A004D32A1
:102E700034004D3233202573006F70656E2066611B
:102E8000696C65642C2046696C653A200046696C63
:102E9000652073656C65637465640A0046696C65DA
:102EA000206F70656E65643A2000454E442053558E
:102EB00042524F5554494E450A002220706F73000C
:102EC0002220706172656E743A2200535542524F4F
:102ED0005554494E452043414C4C207461726765FE
:102EE000743A220053756263616C6C204F76657290
:102EF000666C6F77004578636565646564206D6115
:102F00007820535542524F5554494E4520646570C0
:102F100074683A310A0057726974696E6720746F79
:102F20002066696C653A2000667265736800646F9C
:102F3000696E67004E6F77200068747470733A2F63
:102F40002F6D61726C696E66772E6F72670020322A
:102F50002E302E37002020506C616E6E65724275E7
:102F60006666657242797465733A20002046726520
:102F700065204D656D6F72793A2000436F6D706901
:102F80006C65643A204D6172202039203230323134
:102F90000A00204C61737420557064617465643A52
:102FA00020323032302D30392D3239207C2041759D
:102FB00074686F723A20286E6F6E652C20646566A7
:102FC00061756C7420636F6E666967290A00322E22
:102FD000302E370A004D61726C696E0020536F66A7
:102FE00074776172652052657365740A00205761B9
:102FF000746368646F672052657365740A002042C9
:10300000726F776E206F75742052657365740A0055
:103010002045787465726E616C2052657365740A20
:1030200000506F77657255700A006175746F256383
:103030002E6700473238004D3130303100657272F2
:103040006F722077726974696E6720746F20666989
:103050006C650A00446F6E6520736176696E672047
:1030600066696C652E0A004D323900456E647374D2
:103070006F7073002553202563202563202563206E
:10308000256300656E6473746F7073206869743AA9
:1030900020004D6F76652025736D6D004D6F766550
:1030A00020302E316D6D004D6F766520316D6D00D5
:1030B0004D6F76652031306D6D004D6F7665204126
:1030C00078697300486F74656E6420746F6F206355
:1030D0006F6C64004578747275646572004D6F762C
:1030E00065205A004D6F76652059004D6F7665203A
:1030F0005800220A00556E6B6E6F776E20636F6DFD
:103100006D616E643A202200204D39322058002033
:10311000453A00205A3A0020593A004531002C2007
:1031200073797374656D2073746F7070656421209A
:103130004865617465725F49443A200024F4D430D4
:1031400050C38E20C2A24017828B7011127A910D4B
:10315000816CD90AA861E108C75866076151430626
:103160001E4B5D05C145A7041A411104093D980392
:10317000713931034036DB0265339102D430540299
:10318000802E1D02632CEE01752AC501B028A00116
:10319000102781018F2564012B244B01E02234018B
:1031A000AC211F018D200D01801FFC00841EED004D
:1031B000971DDF00B81CD200E61BC600201BBC0018
:1031C000641AB200B219A8000A19A0006A1899007E
:1031D000D117910040178B00B516840031167E0080
:1031E000B31579003A157300C7146F0058146A00BC
:1031F000EE1366008813630025135E00C7125B00A0
:103200006C12570015125400C111510070114F007B
:1032100021114B00D61049008D1047004610440084
:1032200002104200C00F4000800F3E00420F3C00E1
:10323000060F3B00CB0E3800930E37005C0E3500B6
:10324000270E3400F30D3200C10D3100900D300017
:10325000600D2E00320D2D00050D2C00D90C2B0019
:10326000AE0C2900850C29005C0C2700350C2700CA
:103270000E0C2600E80B2400C40B2400A00B230036
:103280007D0B23005A0B2100390B2100180B200065
:10329000F80A1F00D90A1E00BB0A1E009D0A1D0065
:1032A000800A1D00630A1C00470A1B002C0A1B0031
:1032B000110A1A00F7091A00DD091900C4091900DA
:1032C000AB091900920917007B0918006309170060
:1032D0004C09160036091600200916000A091500C7
:1032E000F5081500E0081400CC081400B808140014
:1032F000A4081400900813007D0812006B08130046
:103300005808120046081200340811002308110062
:103310001208110001081100F0071000E00710006A
:10332000D0071000C0071000B0070F00A107100061
:1033300091070E0083070F0074070F0065070E004A
:1033400057070E0049070E003B070D002E070E0021
:1033500020070D0013070D0006070D00F9060C00ED
:10336000ED060D00E0060C00D4060C00C8060C00AB
:10337000BC060C00B0060C00A4060B0099060C005D
:103380008D060B0082060B0077060B006C060B0007
:1033900061060A0057060B004C060A0042060A00A6
:1033A00038060A002E060A0024060A001A060A0039
:1033B0001006090007060A00FD050900F4050900CA
:1033C000EB050900E2050900D9050900D00509004F
:1033D000C7050900BE050900B5050800AD050800D0
:1033E000A50509009C050800940508008C05080047
:1033F000840508007C050800740508006C050700BA
:10340000650508005D050700560508004E05070024
:10341000470507004005080038050700310507008B
:103420002A050700230507001C05060016050700EE
:103430000F0507000805060002050700FB0406004B
:10344000F5040700EE040600E8040600E2040700A5
:10345000DB040600D5040600CF040600C9040600FC
:10346000C3040600BD040600B7040600B10405004D
:10347000AC040600A6040600A00405009B04060098
:1034800095040500900406008A04050085040500E3
:10349000800406007A040500750405007004050028
:1034A0006B04050066040500610405005C0405006A
:1034B00057040500520405004D04050048040500AA
:1034C000430405003E0404003A04050035040500E9
:1034D000300404002C040500270404002304050024
:1034E0001E0404001A04040016040500110404005C
:1034F0000D04040009040500040404000004040091
:10350000FC030400F8030400F4030400F0030400C7
:10351000EC030400E8030400E4030400E0030400F7
:10352000DC030400D8030400D4030400D003040027
:10353000CC030400C8030300C503030024F404D92A
:10354000201BC40C5C0E9804C4095F02650771015E
:10355000F405F900FB04B30048048700C1036900C7
:103560005803550003034500BE023A0084023100AF
:1035700053022A002902250004022000E4011C0055
:10358000C8011900AF01170098011400840113004D
:10359000710110006101100051010E0043010D0086
:1035A00036010B002B010B0020010B001501090057
:1035B0000C01090003010800FB000800F3000800EB
:1035C000EB000700E4000600DE000600D80006005D
:1035D000D2000600CC000500C7000500C2000500AF
:1035E000BD000400B9000400B5000400B1000400EF
:1035F000AD000400A9000400A5000300A200030020
:103600009F0004009B000300980003009500020047
:1036100093000300900003008D0002008B00030064
:10362000880002008600020084000300810002007E
:103630007F0002007D0002007B0002007900020092
:1036400077000100760002007400020072000100A1
:10365000710002006F0002006D0001006C000200AA
:103660006A000100690002006700010066000100B5
:1036700065000100640002006200010061000100B9
:10368000600001005F0002005D0001005C000100BD
:103690005B0001005A0001005900010058000100C0
:1036A00057000100560001005500010054000100C0
:1036B00053000000530001005200010051000100BE
:1036C000500001004F0001004E0000004E000100BC
:1036D0004D0001004C0001004B0000004B000100B8
:1036E0004A000100490001004800000048000100B4
:1036F00047000100460000004600010045000000B0
:1037000045000100440001004300000043000100A7
:1037100042000000420001004100000041000100A1
:10372000400001003F0000003F0001003E0000009B
:103730003E0001003D0000003D0001003C00000093
:103740003C0000003C0001003B0000003B00010089
:103750003A0000003A000100390000003900010081
:103760003800000038000000380001003700000079
:10377000370001003600000036000000360001006E
:103780003500000035000000350001003400000065
:10379000340000003400010033000000330000005A
:1037A000330001003200000032000000320001004E
:1037B0003100000031000000310001003000000045
:1037C00030000000300001002F0000002F0000003A
:1037D0002F0000002F0001002E0000002E0000002E
:1037E0002E0001002D0000002D0000002D00000023
:1037F0002D0001002C0000002C0000002C00000017
:103800002C0001002B0000002B0000002B0000000A
:103810002B0001002A0000002A0000002A000000FE
:103820002A000100290000002900000029000000F2
:1038300029000000290001002800000028000000E5
:1038400028000000280000002800010027000000D8
:1038500027000000270000002700000027000100CB
:1038600026000000260000002600000026000000C0
:1038700026000100250000002500000025000000B2
:1038800025000000250000002500010024000000A4
:103890002400000024000000240000002400010097
:1038A000230000002300000023000000230000008C
:1038B000230000002300000023000100220000007C
:1038C0002200000022000000220000002200000070
:1038D0002200010021000000210000002100000062
:1038E0002100000021000000210000002100010053
:1038F0002000000020000000200000002000000048
:103900002000000020000000200000002000010036
:103910001F0000001F0000001F0000001F0000002B
:103920001F0000001F0000001F0001001E0000001B
:103930001E0000001E0000001E0000000000FA43F0
:103940000000FA430000FA430000C2420000A04217
:103950000000A0420000A0420000514428230000C3
:10396000282300002823000010270000043700004F
:103970001E290000511B0000581000001009000013
:10398000CC040000780200004101000070012C010D
:1039900090012701B0012201C0011D01F0011801B1
:1039A0001002130130020E016002090190020401AD
:1039B000C002FF000003FA004003F5008003F0009E
:1039C000D003EB002004E6007004E100E004DC001A
:1039D0004005D700C005D2004006CD00D006C80083
:1039E0008007C3003008BE00F008B900C009B40069
:1039F000B00AAF00B00BAA00D00CA500000EA000CA
:103A0000500F9B00C01096005012910000148C00C3
:103A1000C0158700B0178200B0197D00D01B780058
:103A2000001E730040206E0090226900F0246400A4
:103A300040275F0090295A00E02B5500102E5000BF
:103A400020304B0010324600E033410090353C00FE
:103A50001037370070383200A0392D00B03A2800F6
:103A6000A03B2300603C1E00103D1900903D140057
:103A7000103E0F00703E0A00C03E0500003F0000EF
:103A8000403FFBFF803FF6FFC03FF1FF00002100F9
:103A9000240027002A002D0030003300010100001F
:103AA000040107010A0100002200250028002B0064
:103AB0002E003100340002010000050108010B0155
:103AC000000020002300260029002C002F003200D7
:103AD00000010000030106010901050505050705B0
:103AE00008080808020202020A0A0808040404047A
:103AF00001010101010101010303030303030303A6
:103B0000040707070C0C0C0C0C0C0C0C0202020234
:103B100006060606060606060B0B0B0B0B0B0B0B1D
:103B200001021020200808102040102040800201CF
:103B300002010804020101020408102040808040B4
:103B400020100804020180040201804020100804B3
:103B50000201080402010102040810204080010251
:103B600004081020408000000A0B02090C0D0E080A
:103B70000703040100000000000000000000000036
:103B80000000000000000000000000000000000035
:103B900000001211100000000000000000000000F2
:103BA0000000000000000000000000000D02DF0126
:103BB00011241FBECFEFD1E2DEBFCDBF00E00CBFAE
:103BC00013E0A0E0B2E0E6E9FFEE02E00BBF02C0C6
:103BD00007900D92AA39B107D9F725E1AAE9B3E018
:103BE00001C01D92AE32B207E1F71DE1C7EDDDE184
:103BF00000E006C021970109802FFE010F947C721E
:103C0000C63DD10780E00807A9F70F94A45F0D9483
:103C1000B9770C940000FC0184910895FC01808127
:103C20000895CF93DF93DB01F9019C919130C1F0AE
:103C3000943080F094509C938830D1F480819181AD
:103C4000009771F0019791838083480F591FEA0113
:103C5000188206C08C3539F49C5F9C93943041F4F3
:103C6000DF91CF9108958B3339F781E08C93F8CFB2
:103C700020813181B9016F5F7F4F71836083420F73
:103C8000531FEA018883808191818F3591056CF7FC
:103C9000E7CF90912D08E92FF0E0E752FF4E8083A7
:103CA0009F5F943040F490932D088091F1098F5FCD
:103CB0008093F109089510922D08F7CF4F925F92EB
:103CC0006F927F928F929F92AF92BF92CF92DF922C
:103CD000EF92FF92CF93DF9300D01F92CDB7DEB764
:103CE0006B017C0129013A0120914E0730914F0769
:103CF0004091500750915107C301B2010F94847253
:103D00004B015C0120914A0730914B0740914C07D1
:103D100050914D07C701B6010F9484729B01AC010D
:103D20000F94F96B69837A838B839C83A50194013B
:103D3000C501B4010F94F96B9B01AC0169817A81D3
:103D40008B819C810F94857224E130E44CE156E430
:103D50000F94936B1816F4F0A7019601C701B601F2
:103D60000F94F96B6B017C01A3019201C301B201B5
:103D70000F94F96B9B01AC01C701B6010F948572DA
:103D800021E0298325E230E24DEF55E40F94936B57
:103D900018160CF4198289810F900F900F900F90D4
:103DA000DF91CF91FF90EF90DF90CF90BF90AF90D9
:103DB0009F908F907F906F905F904F900895282FE5
:103DC0009091C304833021F495FD0FC094FD0FC082
:103DD000892F90E0B0E0A0E004C0B695A795979534
:103DE00087952A95D2F78170089581E0089580E043
:103DF000089550E0440F551F840F951FFC018081EA
:103E00009181B0E0A0E004C0B695A79597958795FD
:103E10006A95D2F781700895FC0120813181621783
:103E2000730714F4718360830895DB011196EC919C
:103E30001197F0E0EE0FFF1FE80FF91F2C9181E0C2
:103E400090E0AC0102C0440F551F2A95E2F79A0199
:103E500080819181842B932B918380830895DC0151
:103E6000ED91FC91119712968C9180830895FC013D
:103E700071836083FB012081FC012283FB0140836D
:103E800008954F925F926F927F928F929F92AF921E
:103E9000BF92CF92DF92EF92FF920F931F93CF9337
:103EA000DF93C82F062F542E622EE62EF12C3AE017
:103EB000732EC82ED12CF701789EE00DF11D112430
:103EC000EE0FFF1FEE0FFF1FE654FA4F6081718166
:103ED000828193819B01AC010F942676882309F49B
:103EE0007AC0C50D0C2E000CDD0B060D002E000C4B
:103EF000110B7C9EF0017D9EF00D1124E00FF11F4F
:103F0000EE0FFF1FEE0FFF1FE654FA4F80809180E7
:103F1000A280B380A5019401C501B4010F94267657
:103F2000811159C0C50DD11D57FCDA957C9EF00159
:103F30007D9EF00D1124060D111D67FC1A95E00FF2
:103F4000F11FEE0FFF1FEE0FFF1FE654FA4F4080E8
:103F5000518062807380A3019201C301B2010F946A
:103F60002676811138C0A3019201C501B4010F94D6
:103F7000936B87FD0CC0A5019401C501B4010F949A
:103F80008572A30192010F9484724B015C018AE057
:103F90008C9DF0018D9DF00D1124EE0DFF1DEE0F97
:103FA000FF1FEE0FFF1FE654FA4F80829182A2821C
:103FB000B38281E0DF91CF911F910F91FF90EF903D
:103FC000DF90CF90BF90AF909F908F907F906F9039
:103FD0005F904F90089580E0EDCF8F929F92AF92C7
:103FE000BF92CF92DF92EF92FF920F931F93CF93E6
:103FF000DF938FEDE82E88E1F82E97EEC92E98E139
:10400000D92EF70185919491FC01A4903296B49039
:104010003197C491329604910496FC0184918823CF
:10402000F9F088248A94AC1614F488248394002E22
:10403000000C110B0C2E000CDD0BB016110679F1E3
:104040009A2C9C161D0651F020E0482D6B2D892DD1
:104050000E94411F811102C0980CF3CFB394EDCFA1
:1040600088248A94B01614F4882483940C2E000CAF
:10407000DD0B002E000C110BAC161D0681F09B2CE5
:104080009016110651F0282D40E0692D8A2D0E94CE
:10409000411F811102C0980CF3CFA394EDCFF2E041
:1040A000EF0EF11CCE14DF0409F0ABCFDF91CF91FE
:1040B0001F910F91FF90EF90DF90CF90BF90AF9046
:1040C0009F908F9008954F925F926F927F928F9200
:1040D0009F92AF92BF92CF92DF92EF92FF920F9397
:1040E0001F93CF93DF934090AF045090B004609043
:1040F000B1047090B2040AEB15E0CAE07801DAE08E
:10410000F70181909190A190B1907F01A501940158
:10411000C501B4010F94267681110FC06701F4E048
:10412000CF1AD108A5019401C301B2010F94857281
:10413000F6016083718382839383D15009F7C15064
:10414000085D1F4FC111DACFDF91CF911F910F9101
:10415000FF90EF90DF90CF90BF90AF909F908F90A7
:104160007F906F905F904F9008958F929F92AF9243
:10417000BF92CF92DF92EF92FF920F931F93CF9354
:10418000DF93EC017B018A016901FB012081318110
:1041900042815381688179818A819B810F948572E4
:1041A000688379838A839B83F801208131814281EE
:1041B00053816C817D818E819F810F9485726C8388
:1041C0007D838E839F83F6012081318142815381DB
:1041D000688579858A859B850F948572688779873C
:1041E0008A879B87F70160817181828193819B011E
:1041F000AC010F94F96B9B01AC016C857D858E85BC
:104200009F850F9485726C877D878E879F87F801C5
:1042100060817181828193819B01AC010F94F96B64
:104220009B01AC01688979898A899B890F94857281
:10423000688B798B8A8B9B8BF6016081718182817F
:1042400093819B01AC010F94F96B9B01AC016C89CC
:104250007D898E899F890F9485726C8B7D8B8E8B67
:104260009F8BF8012081318142815381F701608168
:104270007181828193810F94F96B9B01AC01688DF0
:10428000798D8A8D9B8D0F948572688F798F8A8F37
:104290009B8FF6012081318142815381F70160813A
:1042A0007181828193810F94F96B9B01AC016C8DBC
:1042B0007D8D8E8D9F8D0F9485726C8F7D8F8E8FEF
:1042C0009F8FF6012081318142815381F801608105
:1042D0007181828193810F94F96B9B01AC0168A17C
:1042E00079A18AA19BA10F94857268A379A38AA35F
:1042F0009BA38CA09DA0AEA0BFA0F701C080D180E1
:10430000E280F38020E030E0A901C701B6010F94FC
:10431000397587FF04C0F7FAF094F7F8F094A70115
:104320009601B401C5010F94936B87FD02C064012F
:104330007501CCA2DDA2EEA2FFA288A499A4AAA432
:10434000BBA4F801C080D180E280F38020E030E09F
:10435000A901C701B6010F94397587FF04C0F7FAA8
:10436000F094F7F8F094A7019601B401C5010F94F9
:10437000936B87FD02C064017501C8A6D9A6EAA6A1
:10438000FBA620E030E040E85FE368AD79AD8AADA0
:104390009BAD0F94857268AF79AF8AAF9BAFDF9109
:1043A000CF911F910F91FF90EF90DF90CF90BF9032
:1043B000AF909F908F900895CF92DF92EF92FF92EF
:1043C0006B017C0120E030E0A9010F94397587FF73
:1043D00004C0F7FAF094F7F8F094C701B601FF9023
:1043E000EF90DF90CF9008951092D90F0895FC01BF
:1043F000208127FD06C081818095881F8827881F1E
:10440000089580E008952FEFFC0120832183089513
:104410004AEB55E02AE0B0E0A0E0FD01EE0FFF1FFF
:10442000EE0FFF1FE40FF51F608371838283938378
:104430001196AA30B10589F72150485D5F4F2111CF
:10444000EACF08959091970480939704892F089557
:104450000F931F93CF938C0120E030E046EC52E4A1
:10446000FC0160817181828193810F94857220E0CB
:1044700030E040E351E40F9485722CE83EE24AE3D9
:104480005DE30F94F96B0F94F173C62F6A3008F057
:10449000CFEF20E030E046EC52E4F8016481758112
:1044A000868197810F94857220E030E040E351E4EB
:1044B0000F9485722CE83EE24AE35DE30F94F96BBA
:1044C0000F94F173962F6A3008F09FEF8C2FCF91E5
:1044D0001F910F910895EF92FF921F93CF93DF9357
:1044E0009AEBE92E95E0F92E1AE0D0E0C0E0FE014B
:1044F000EE0FFF1FEE0FFF1FEE0DFF1D608171819C
:10450000828193819B01AC010F942676811111C0A9
:104510002196CA30D10559F7115088E2E80EF11CF6
:104520001111E3CF81E0DF91CF911F91FF90EF90C8
:10453000089580E0F8CF129A0895E8EAF3E08081C8
:10454000818308950D94B44C0D94B44C0D94B44CE7
:104550000D94B44C80916002882341F060911D0558
:1045600070911E0541E081E00D94171F0895CF93CF
:10457000DF9300D000D01F921F92CDB7DEB7AB0102
:10458000DE01119630E020E0BD01FA01E20FF31FD9
:10459000E491ED932F5F3F4F28303105B1F70F9431
:1045A000BD2828960FB6F894DEBF0FBECDBFDF91B1
:1045B000CF910895CF92DF92EF92FF920F931F93C6
:1045C000CF93DF9300D000D0CDB7DEB78A0146E0AD
:1045D000469F9001479F300D1124BC01620F731F4D
:1045E00046E050E0CE0101960F947F6AC980DA80E0
:1045F000EB80FC80F80140815181628173818FEFF3
:104600009FEFC416D506E606F70640F081E090E07D
:104610004C155D056E057F0508F080E026960FB607
:10462000F894DEBF0FBECDBFDF91CF911F910F91E8
:10463000FF90EF90DF90CF9008950F931F93CF934B
:10464000DF93CDB7DEB72E970FB6F894DEBF0FBE5F
:10465000CDBF8A011E861D866F83788789879A87DA
:104660002FEF2B87603871058105910538F482ECB6
:1046700090E10F94170E81E090E02FC09E01235F20
:104680003F4FAE01495F5F4F69EB70E08BE69BE106
:104690000F94281097FD2CC08D859E8526E0289FBD
:1046A000B001299F700D11246559744E46E050E009
:1046B000CE0101960F947F6A6D8182EC90E10F9498
:1046C000170E01301105B9F26E816623A1F282EC5A
:1046D00090E10F94170E82E090E02E960FB6F894BA
:1046E000DEBF0FBECDBFDF91CF911F910F91089517
:1046F0009E01235F3F4FAE01495F5F4F63E670E06D
:1047000089E199E10F94281097FD0BC08D859E8556
:1047100026E0289FB001299F700D1124675E764E18
:10472000C5CF6FE3A4CF8F929F92AF92BF92CF92EB
:10473000DF92EF92FF9260914A0770914B07809150
:104740004C0790914D07C0904E07D0904F07E090D6
:104750005007F09051079B01AC010F94F96B4B018E
:104760005C01A7019601C701B6010F94F96B9B018B
:10477000AC01C501B4010F9485720F94D7756B011C
:104780007C0120E030E040E251E40F94936B87FF1E
:1047900006C0C12CD12C80E2E82E81E4F82EA701BE
:1047A000960160E070E088EC92E40F948472FF90D0
:1047B000EF90DF90CF90BF90AF909F908F90089533
:1047C000CF92DF92EF92FF920F931F93CF93DF93DD
:1047D0006B017A01EC01CE55DC4F28813CE0389F1B
:1047E0008001399F100D112427FF24C0FB01118285
:1047F000108288818F5F888388819801280F311DFE
:1048000087FD3A95C90120918B10F60128171906EA
:1048100029F024F088818C300CF43CC08081918197
:10482000049680349C4908F475C0F601808191811A
:10483000049672C088819801280F311D87FD3A9532
:10484000C90120918B102817190699F294F28881DA
:10485000A801480F511D87FD5A95FA01EE0FFF1F61
:10486000E40FF51FED5BFF4E808187FFC2CF88818B
:10487000F801E80FF11D87FDFA95CF01EE0FFF1F3C
:10488000E80FF91FED5BFF4E808160E08F770F949A
:10489000E724AFCF808191812881A801420F511D6B
:1048A00027FD5A959A01FA01EE0FFF1FE20FF31F41
:1048B000ED5BFF4E21813281820F931FF7019183BF
:1048C000808388819801280F311D87FD3A95F90171
:1048D000EE0FFF1FE20FF31FED5BFF4E808187FF9E
:1048E00020C08881080F111D87FD1A95F801EE0F71
:1048F000FF1FE00FF11FED5BFF4E808161E08F77BE
:10490000DF91CF911F910F91FF90EF90DF90CF90AB
:104910000D94E72480E49CE9F701918380838FEF75
:104920008883DF91CF911F910F91FF90EF90DF90DF
:10493000CF9008958091B8049091B904009731F018
:104940004AE050E070E060E00D94736960E070E070
:10495000CB0108952F923F924F925F926F927F9278
:104960008F929F92AF92BF92CF92DF92EF92FF927F
:104970000F931F93CF93DF93CDB7DEB769970FB631
:10498000F894DEBF0FBECDBF5C018B01CE01019656
:104990007C018CE0D7011D928A95E9F70E9404DB27
:1049A0006C8B7D8B8E8B9F8BAD86BE86680186E976
:1049B000282E312C10E0E88EF98EB101032C000C6A
:1049C000880B990B0F949A6B2BED3FE049E450E470
:1049D0000F94F96B20E030E044E353E40F947F73CD
:1049E0004B015C01111165C0E12CF12C00E01F8628
:1049F000ED85FE8581919191A191B191FE87ED8721
:104A0000888B998BAA8BBB8BC501B4010F94C97598
:104A10002B013C01C501B4010F947A739701402F1B
:104A20005F850F94F96B69837A838B839C839701ED
:104A3000402F5F85C301B2010F94F96B6D837E83B4
:104A40008F83988788899989AA89BB8989879A875A
:104A5000AB87BC87888D998D0E94AFD88CE0EEE93A
:104A6000FFE0D60101900D928A95E1F71F5F9CE36C
:104A7000290E311CACE0CA0ED11C173009F09DCFB5
:104A800069960FB6F894DEBF0FBECDBFDF91CF9110
:104A90001F910F91FF90EF90DF90CF90BF90AF905C
:104AA0009F908F907F906F905F904F903F902F904E
:104AB0000895EC88FD880E89BF89BF8799CF2F9212
:104AC0003F924F925F926F927F928F929F92AF929E
:104AD000BF92CF92DF92EF92FF920F931F93CF93EB
:104AE000DF93CDB7DEB7C45DD1090FB6F894DEBF52
:104AF0000FBECDBF1C01C755DF4FC882C95AD04079
:104B0000C655DF4FD882CA5AD040C555DF4FE8821C
:104B1000CB5AD040C455DF4FF882CC5AD040C35551
:104B2000DF4F0883CD5AD040C255DF4F1883CE5A8D
:104B3000D040C155DF4F2883CF5AD040C055DF4FFA
:104B40003883C05BD040CF54DF4F4883C15BD04037
:104B5000CE54DF4F5883C25BD040CD54DF4F6883C3
:104B6000C35BD040CC54DF4F7883C45BD040C75385
:104B7000DF4F88829982AA82BB82C95CD040C6512D
:104B8000DF4F88819981AA81BB81CA5ED040C3541E
:104B9000DF4F88839983AA83BB83CD5BD040C2510A
:104BA000DF4F88819981AA81BB81CE5ED040CF53EF
:104BB000DF4F88839983AA83BB83C15CD040CE50EA
:104BC000DF4F88819981AA81BB81C25FD040CB53DE
:104BD000DF4F88839983AA83BB83C55CD040D10112
:104BE0008D919D910D90BC91A02DC754DF4F88836E
:104BF0009983AA83BB83C95BD040BE016F5F7F4F9F
:104C0000C1010E94AA24C753DF4F288139814A81FC
:104C10005B81C95CD04060917E0770917F07809175
:104C20008007909181070F94857260937E0770933F
:104C30007F078093800790938107C354DF4F2881BB
:104C400039814A815B81CD5BD04060916A07709168
:104C50006B0780916C0790916D070F94857260933C
:104C60006A0770936B0780936C0790936D07CF531F
:104C7000DF4F288139814A815B81C15CD0406091DE
:104C80006E0770916F0780917007909171070F9474
:104C9000857260936E0770936F078093700790938F
:104CA0007107CB53DF4F288139814A815B81C55C15
:104CB000D040609172077091730780917407909152
:104CC00075070F94857260937207709373078093D2
:104CD0007407909375070E940EDC8E010B5A1F4FCC
:104CE000B801C1010E94AA24C755DF4F888199816C
:104CF000AA81BB81C95AD040CB54DF4F88839983A6
:104D0000AA83BB83C55BD040C355DF4F888199819F
:104D1000AA81BB81CD5AD040C353DF4F888399838A
:104D2000AA83BB83CD5CD040CF54DF4F888199816B
:104D3000AA81BB81C15BD040CF52DF4F888399836A
:104D4000AA83BB83C15DD0406801DE0111967D015D
:104D5000F6012481358146815781C353DF4F688135
:104D600079818A819B81CD5CD0400F9485722B0123
:104D70003C01D60118962D913D914D915C911B9768
:104D8000CF52DF4F688179818A819B81C15DD0409C
:104D90000F9485724B015C01F601208131814281C3
:104DA0005381CB54DF4F688179818A819B81C55BB8
:104DB000D0400F9485729B01AC01D7016D917D911C
:104DC0008D919C910F948472F7016083718382832B
:104DD0009383A301920164817581868197810F94E9
:104DE0008472D70114966D937D938D939C9317973E
:104DF000A501940118966D917D918D919C911B97C1
:104E00000F948472F7016087718782879387FCE033
:104E1000CF0ED11C8CE0E80EF11CE016F10609F073
:104E200097CF0E9404DB20917E0730917F0740914D
:104E30008007509181070F947F73CB54DF4F6883B5
:104E400079838A839B83C55BD04020E030E0A90151
:104E50000F94F96B20E030E040E85FE30F94857237
:104E600020E030E040E450E40F947F736B017C015C
:104E700029813A814B815C810F94F96B4B015C0174
:104E80002D813E814F815885C701B6010F94F96B82
:104E90009B01AC01C501B4010F9485724B015C010B
:104EA00029853A854B855C85C701B6010F94F96B5E
:104EB0009B01AC01C501B4010F948572D1016D93C2
:104EC0007D938D939C931397CB54DF4F2881398129
:104ED0004A815B81C55BD040CA01B9010F948572DC
:104EE00020E030E040E85FE30F94857220E030E09E
:104EF00040E450E40F947F734B015C01CB54DF4FCF
:104F0000288139814A815B81C55BD04060E070E0D7
:104F100080E89FE30F94847220E030E040E450E4A6
:104F20000F947F736B017C012D853E854F855889D9
:104F3000C501B4010F94F96B2B013C0129893A8911
:104F40004B895C89C701B6010F94F96B9B01AC01D9
:104F5000C301B2010F9485722B013C012D893E895A
:104F60004F89588DC701B6010F94F96B9B01AC01B5
:104F7000C301B2010F948572F10164837583868346
:104F800097832DA13EA14FA158A5C701B6010F944B
:104F9000F96B2B013C0129A53AA54BA55CA5C501E0
:104FA000B4010F94F96B9B01AC01C301B2010F94E2
:104FB00085722B013C012DA53EA54FA558A9C7011F
:104FC000B6010F94F96B9B01AC01C301B2010F94C0
:104FD0008572D1011C966D937D938D939C931F9741
:104FE00021962CAD3DAD4EAD5FAD2197C701B60109
:104FF0000F94F96B2B013C0125962CAD3DAD4EADC8
:105000005FAD2597C701B6010F94F96B9B01AC0109
:10501000C301B2010F9485726B017C0129962CADFE
:105020003DAD4EAD5FAD2997C501B4010F94F96B4D
:105030009B01AC01C701B6010F948572F101648B2D
:10504000758B868B978B20E030E040E050ECCB54A2
:10505000DF4F688179818A819B81C55BD0400F9445
:10506000F96B20E030E040E85FE30F94857220E0C8
:1050700030E040E450E40F947F734B015C0120E08A
:1050800030E040E85FE3CB54DF4F688179818A816B
:105090009B81C55BD0400F94857220E030E040E4F6
:1050A00050E40F947F736B017C0129A93AA94BA9A5
:1050B0005CA9C501B4010F94F96B2B013C012DA92A
:1050C0003EA94FA958ADC701B6010F94F96B9B01DA
:1050D000AC01C301B2010F9485722B013C0129ADD3
:1050E0003AAD4BAD5CADC701B6010F94F96B9B01B6
:1050F000AC01C301B2010F948572D10150966D933A
:105100007D938D939C9353972D962CAD3DAD4EADD5
:105110005FAD2D97C701B6010F94F96B2B013C01D0
:1051200061962CAD3DAD4EAD5FAD6197C501B4014B
:105130000F94F96B9B01AC01C301B2010F9485720E
:105140002B013C0165962CAD3DAD4EAD5FAD659735
:10515000C701B6010F94F96B9B01AC01C301B20109
:105160000F948572F101608F718F828F938F298DDB
:105170003A8D4B8D5C8DC701B6010F94F96B2B01F5
:105180003C012D8D3E8D4F8D58A1C701B6010F9466
:10519000F96B9B01AC01C301B2010F9485726B01E5
:1051A0007C0129A13AA14BA15CA1C501B4010F94D6
:1051B000F96B9B01AC01C701B6010F948572D10157
:1051C00018966D937D938D939C931B97710161014C
:1051D000B8E1CB0ED11CC754DF4F288139814A81F9
:1051E0005B81C95BD040F1016081718182819381D3
:1051F0000F9484729B01AC01D70114966D917D913F
:105200008D919C9117970F948472F7016483758335
:1052100086839783F4E0EF0EF11CCE14DF04D9F6F9
:10522000C754DF4F88819981AA81BB81C95BD04077
:10523000F10180839183A283B383C753DF4F288119
:1052400039814A815B81C95CD04060917E07709151
:105250007F0780918007909181070F9484726093FB
:105260007E0770937F078093800790938107C354D4
:10527000DF4F288139814A815B81CD5BD0406091CD
:105280006A0770916B0780916C0790916D070F947E
:10529000847260936A0770936B0780936C07909396
:1052A0006D07CF53DF4F288139814A815B81C15C13
:1052B000D04060916E0770916F0780917007909158
:1052C00071070F94847260936E0770936F078093D9
:1052D000700790937107CB53DF4F288139814A8142
:1052E0005B81C55CD04060917207709173078091BB
:1052F0007407909175070F9484726093720770938E
:10530000730780937407909375070E940EDCCC524C
:10531000DF4F0FB6F894DEBF0FBECDBFDF91CF9148
:105320001F910F91FF90EF90DF90CF90BF90AF90C3
:105330009F908F907F906F905F904F903F902F90B5
:105340000895CF93DF9300D01F92CDB7DEB780E0F2
:1053500090E0A8ECB2E489839A83AB83BC8321E01C
:1053600041E061E0CE0101960E94FED10F900F90C6
:105370000F900F90DF91CF91089560E00E940FF29F
:1053800081E00C943FF38091B8049091B9040097A8
:1053900031F04AE050E070E060E00D94456860E074
:1053A00070E0CB0108950E94C32997FD0CC00E94B4
:1053B000C3296F3F71058105910509F034F40E94FE
:1053C000C329862F089580E008958FEF0895809176
:1053D000B8049091B904892B41F00E94D32991E03F
:1053E000811101C090E0892F089591E0FCCF0E94C7
:1053F000C329CB01089580912C08882319F080E0FF
:105400000F94914B80E00895CF93DF9300D01F92CB
:10541000CDB7DEB719821A821B821C82BE016F5F74
:105420007F4F8FE192E00E94DDD10E94FB290E9414
:1054300087CF0F900F900F900F90DF91CF9108952D
:1054400080912C08811103C081E00F94914B80E082
:105450000895909193079817B1F00F94024D8091A1
:105460009307882341F087E692E00E9463CB109275
:1054700093070C949CD681E08093930787E692E093
:105480000E9448CBF6CF089510922F0581E09091AD
:10549000B304911101C080E00C94292A80919307F4
:1054A0008093B30480E00C94292ACF93DF9300D03B
:1054B0001F92CDB7DEB70F94F8730F94986B698382
:1054C0007A838B839C83CE0101960E944DDE0F90E0
:1054D0000F900F900F90DF91CF9108958F929F9230
:1054E000AF92BF92CF92DF92EF92FF92CF936B0178
:1054F0007C0120E030E0A9010F94936B87FD9FC0F1
:105500006DEB77E386E095E3A70196010F94857232
:105510006B017C0120E030E040E251E40F94F96B34
:1055200020E030E048EC52E40F94F96B4B015C0151
:1055300020E030E0A901C701B6010F94936B20E091
:1055400030E040EA50E487FF04C020E030E040EA69
:1055500050ECC501B4010F94857220E030E040E2C8
:1055600051E40F947F730F94F1736B017C018BE214
:10557000F7FE09C0F094E094D094C094C11CD11CF3
:10558000E11CF11C8DE280931A0AC701B60120E1EB
:1055900037E240E050E00F94F9718AE0882E912CB8
:1055A000A12CB12CCA01B901A50194010F94F97184
:1055B000605D60931B0AC701B60128EE33E040E04E
:1055C00050E00F94F971CA01B901A50194010F943B
:1055D000F971605D60931C0AC701B60124E630E0F2
:1055E00040E050E00F94F971CA01B901A50194019E
:1055F0000F94F971605D60931D0A8EE280931E0A1C
:10560000C701B601A50194010F94F971C62FCA0113
:10561000B901A50194010F94F971605D60931F0AAF
:10562000C05DC093200A8AE19AE0CF91FF90EF908D
:10563000DF90CF90BF90AF909F908F9008956DEBCB
:1056400077E386E095EB60CF8F929F92AF92BF9207
:10565000CF92DF92EF92FF926B017C0120E030E06D
:10566000A9010F94936B87FD6BC06DEB77E386E028
:1056700095E3A70196010F9485726B017C0120E0F0
:1056800030E040E251E40F94F96B20E030E040E27A
:1056900051E40F94F96B4B015C0120E030E0A9016B
:1056A000C701B6010F94936B20E030E040EA50E46C
:1056B00087FF04C020E030E040EA50ECC501B401AF
:1056C0000F94857220E030E040E251E40F947F7344
:1056D0000F94F1739B018BE237FF05C0222733271C
:1056E000261B370B8DE280931C0AC90164E670E02B
:1056F0000F946872CB01EAE0F0E0BF010F9468728A
:10570000805D80931D0AC901BF010F946872282F24
:10571000CB01BF010F946872805D80931E0A8EE2F8
:1057200080931F0A205D2093200A8CE19AE0FF906D
:10573000EF90DF90CF90BF90AF909F908F900895A3
:105740006DEB77E386E095EB94CF8F929F92AF92CB
:10575000BF92CF92DF92EF92FF92CF936B017C01C9
:1057600020E030E0A9010F94936B87FDAAC06DEB98
:1057700077E386E095E3A70196010F9485726B01AC
:105780007C0120E030E0A9010F94936B87FF9EC05D
:10579000C701B601905820E030E040E251E40F9498
:1057A000F96B20E030E040E251E40F94F96B20E027
:1057B00030E040EA50E40F94857220E030E040E2AF
:1057C00051E40F947F730F94F1736B017C0180E2BD
:1057D00080931A0A60E280E1C81687E2D806E104E5
:1057E000F1048CF0C701B60120E137E240E050E05F
:1057F0000F94F971CA01B9012AE030E040E050E0AD
:105800000F94F971605D60931B0A60E288EEC81620
:1058100083E0D806E104F1048CF0C701B60128EE5C
:1058200033E040E050E00F94F971CA01B9012AE079
:1058300030E040E050E00F94F971605D60931C0A25
:1058400060E284E6C816D104E104F1048CF0C701DB
:10585000B60124E630E040E050E00F94F971CA014F
:10586000B9012AE030E040E050E00F94F971605D4A
:1058700060931D0A8AE0882E912CA12CB12CC701BF
:10588000B601A50194010F94F971C62FCA01B9019F
:10589000A50194010F94F971605D60931E0A8EE278
:1058A00080931F0AC05DC093200A8AE19AE0CF91DD
:1058B000FF90EF90DF90CF90BF90AF909F908F9030
:1058C00008956DEB77E386E095EB55CF20E030E06F
:1058D00040E251E4C701B60162CFCF92DF92EF926E
:1058E000FF92CF93DF9300D01F92CDB7DEB76B014D
:1058F0007C0120E030E0A9010F94936B87FD1BC071
:105900006DEB77E386E095E3A70196010F9485722E
:1059100069837A838B839C83CE0101960E944DDE3E
:105920000F900F900F900F90DF91CF91FF90EF901D
:10593000DF90CF9008956DEB77E386E095EBE4CFB1
:10594000CF92DF92EF92FF92CF93DF9300D01F921E
:10595000CDB7DEB76B017C0120E030E0A9010F94E8
:10596000936B87FD1BC06DEB77E386E095E3A701A2
:1059700096010F94857269837A838B839C83CE0111
:1059800001960F949E1F0F900F900F900F90DF9134
:10599000CF91FF90EF90DF90CF9008956DEB77E37C
:1059A00086E095EBE4CF8F929F92AF92BF92CF9219
:1059B000DF92EF92FF921F93CF93DF9300D01F925D
:1059C000CDB7DEB76B017C0120E030E0A9010F9478
:1059D000936B87FD34C06DEB77E386E095E3A70119
:1059E00096010F9485726B017C01C982DA82EB8289
:1059F000FC8220E030E040E251EC0F94936B1816EB
:105A000054F420E030E048EC52E4C701B6010F94B2
:105A1000397587FD19C0CE0101960E94D0DE0F9026
:105A20000F900F900F90DF91CF911F91FF90EF900B
:105A3000DF90CF90BF90AF909F908F9008956DEBC7
:105A400077E386E095EBCBCF20E030E040E251E415
:105A5000C701B6010F94F96B20E030E048EC52E446
:105A60000F94F96B4B015C0120E030E0A901C70104
:105A7000B6010F94936B20E030E040EA50E487FFDA
:105A800004C020E030E040EA50ECC501B4010F94BE
:105A9000857220E030E040E251E40F947F730F9470
:105AA000F1734B015C0120E030E0A901C701B601B0
:105AB0000F94397587FD0BC020E030E040E251E4DF
:105AC000C701B6010F94936B60E287FD13C0B7FC6A
:105AD00042C0C501B40128EE33E040E050E00F942D
