:100000000C94F7170C9428180C9428180C942818A2
:100010000C9428180C9428180C9428180C94281860
:100020000C9428180C9428180C9428180C94281850
:100030000C9428180C9428180C9428180C94281840
:100040000C9428180C9434F20C9428180C9428184A
:100050000C9428180C9428180C94D5CB0D94D10C22
:100060000C9428180C94AC350C94A2350C942818D8
:100070000C9428180C9428180C9428180C94281800
:100080000C94452F0C9428180C9428180C942818BC
:100090000C9428180C9428180C9428180C942818E0
:1000A0000C9428180C9428180C94172F0C942818CA
:1000B0000C9428180C9428180C9428180C942818C0
:1000C0000C9428180C9428180C9428180C942818B0
:1000D0000C9428180C9428180C9428180C942818A0
:1000E0000C942818DFECE2ECD1ECD5ECDBEC19ED4C
:1000F000E6ECEAECF0ECF4ECF8ECFEEC02ED06EDEC
:1001000019ED0CED10ED14ED0DEF12EF17EF21EFDF
:100110002BEFA4EF35EF3DEF45EF4FEF59EF63EFD6
:1001200072EF7CEFA4EF86EF90EF9AEF084AD73B8F
:100130003BCE016E84BCBFFDC12F3D6C74319ABDB6
:1001400056833DDA3D00C77F11BED9E4BB4C3E91DA
:100150006BAAAABE000000803F05A84CCDB2D44EC9
:10016000B93836A9020C50B9918688083CA6AAAACB
:100170002ABE000000803F000C9485600C94F4ECD3
:100180000C9410570C9402ED0C9434700C9478E19C
:100190000C948FAB0C94C6650C9435EF0C9414ED55
:1001A0000C9453E30C941D6E0C94D1EC0C9419ED4B
:1001B0000C94226E0C9499970C94ABAB0C94F66B48
:1001C0000C9486AC0C941AE30C94896E0C94EE603B
:1001D0000C9459EF0C9445EF0C9438E30C94C55CE7
:1001E0000C94916E0C94DBEC0C94186E0C946DDFF7
:1001F0000C9463EF0C9416640C947D520C94B760CD
:100200000C9490520C9443D10C94136E0C94D1DF47
:100210000C9417E50C9412EF0C9412E00C94FCD49F
:100220000C94FAD40C948B580C9476AB0C94F4D4B4
:100230000C943EAB0C94A4EF0C9432E30C943B6E04
:100240000C9485580C94076B0C947BAB0C94EC6766
:100250000C9481580C940CED0C9417EF0C9489E3DA
:100260000C94A9E30C9486EF0C94A2970C9462E38F
:100270000C94C7580C9444E00C94FFE20C94E26098
:100280000C9496970C94D66B0C9426E50C94D8DEBF
:100290000C94D16B0C9437DF0C94E6DE0C949FDF4A
:1002A0000C940F670C940E640C9414E30C942CE3E0
:1002B0000C943DEF0C94F8EC0C94F6D40C94B8DF4D
:1002C0000C94485B0C947CEF0C9407610C942BEF1E
:1002D0000C9427570C94924D0C94385D0C94F06B51
:1002E0000C9471E30C94585D0C9491580C946A62D0
:1002F0000C94466B0C94CA6B0C9414640C9406ED2D
:100300000C9410640C942BE00C9490EF0C94CF564A
:100310000C94DFEC0C94ECDF0C9421EF0D94801422
:100320000C944FEF0C940EE30C94D0600C949E60F0
:100330000C94F8D40C9420E30C946BB10C949AEFC9
:100340000C9419600C9468AB0C941B570C94835854
:100350000C9472EF0C9438520C9401610C9401DFF0
:100360000C94B25C0C94D5EC0C94FEEC0C94A2D2E0
:100370000C9475AB0C94026C0C94FC6B0C94DFD356
:100380000C94FD560C94DE5C0C94F0EC0C9444E35D
:100390000C9452DF0C940D610C9410ED0C940DEF45
:1003A0000C9426E30C94EAEC0D94A5170C943EE310
:1003B0000C94FFDF0C9496580C94E6EC0C94CC6BE8
:1003C0000C9412640C94625A0C94F2560C94A44D42
:1003D0000C9486DF0C94E2EC0C9480E30C941CDF0C
:1003E0004E414E494E495459494E46CDCCCC3D0A1A
:1003F000D7233C17B7D13877CC2B329595E6241FFD
:10040000B14F0A000020410000C84200401C4620B5
:10041000BCBE4CCA1B0E5AAEC59D7400407A10F388
:100420005A00A0724E18090010A5D4E80000E87622
:1004300048170000E40B54020000CA9A3B00000079
:10044000E1F505000080969800000040420F000092
:1004500000A08601000000102700000000E8030053
:100460000000006400000000000A0000000000011D
:1004700000000000002C76D888DC674F0823DFC11D
:10048000DFAE59E1B1B796E5E3E453C63AE65199D8
:100490007696E8E6C28426EB898C9B62ED407C6F01
:1004A000FCEFBC9C9F40F2BAA56FA5F490055A2AB8
:1004B000F75C936B6CF9676DC11BFCE0E40D47FEC4
:1004C000F520E6B500D0ED902E03009435770500B9
:1004D00080841E080000204E0A000000C80C333340
:1004E00033330F986E12831141EF8D2114893BE64F
:1004F0005516CFFEE6DB18D1844B381BF77C1D90D8
:100500001DA4BBE424203284725E228100C9F12440
:10051000ECA1E53D27434F4D4D554E4943415449CC
:100520004F4E0044525952554E004552524F52536D
:1005300000494E464F004543484F00536C65657077
:100540002E2E2E00486F6D65202573257325732090
:10055000466972737400436C69636B20746F205238
:100560006573756D652E2E2E004E6F204D6F76656E
:100570002E00456E642066696C65206C6973740A90
:1005800000426567696E2066696C65206C697374EA
:100590000A004E6F206D656469610A00286E6F2045
:1005A00066696C65290043757272656E74206669B0
:1005B0006C653A20005344207072696E74696E67EE
:1005C000206279746520004E6F742053442070724D
:1005D000696E74696E670A0044656C6574696F6E54
:1005E000206661696C65642C2046696C653A200060
:1005F00046696C652064656C657465643A002569BC
:100600007920256964202569682025696D20256980
:1006100073005072696E742074696D653A200049E8
:100620006E76616C69642050696E204D6F64650A56
:100630000020573A00436F6F6C696E672E2E2E00B4
:1006400048656174696E672E2E2E00452025530083
:100650006F66660044454255473A004D31313220BD
:1006600053687574646F776E004D313133205300D9
:1006700050533A300A0050533A310A0044656C74C2
:1006800061626F74204F46462E004348414D4245FB
:10069000525F54454D5045524154555245004241D8
:1006A00042595354455050494E470041524353001C
:1006B0004D4F54494F4E5F4D4F44455300544845AC
:1006C000524D414C5F50524F54454354494F4E0098
:1006D0004C4F4E475F46494C454E414D45004155B4
:1006E000544F5245504F52545F53445F53544154FA
:1006F0005553005344434152440050524F4D5054BF
:100700005F535550504F525400454D455247454E4A
:1007100043595F50415253455200434153455F4C4A
:10072000494748545F4252494748544E4553530045
:10073000544F47474C455F4C494748545300534F2B
:100740004654574152455F504F5745520042554914
:100750004C445F50455243454E54004C4556454C21
:10076000494E475F44415441005A5F50524F424501
:100770000052554E4F5554004155544F4C45564527
:100780004C005052494E545F4A4F420050524F471E
:1007900052455353004155544F5245504F52545FA8
:1007A00054454D5000564F4C554D45545249430009
:1007B000454550524F4D0042494E4152595F4649BE
:1007C0004C455F5452414E534645520053455249A1
:1007D000414C5F584F4E5F584F4646004649524D78
:1007E000574152455F4E414D453A4D61726C696EBD
:1007F00020322E302E3720284665622031312032BB
:100800003032312031393A35333A32372920534F9B
:10081000555243455F434F44455F55524C3A6874C7
:100820007470733A2F2F6769746875622E636F6DE9
:100830002F4D61726C696E4669726D776172652FBA
:100840004D61726C696E2050524F544F434F4C5F54
:1008500056455253494F4E3A312E30204D41434870
:10086000494E455F545950453A44656C7461626F16
:10087000742045585452554445525F434F554E5489
:100880003A3120555549443A6365646532613266B0
:100890002D343161322D343734382D396231322DD7
:1008A0006335356336326633363766660A002F2F76
:1008B00020004D31343520533C696E6465783E200C
:1008C0006F7574206F662072616E67652028302D09
:1008D00031290A00416363656C65726174696F6EEA
:1008E0003A20500020204D61783A200020204D69A8
:1008F0006E3A2000536F667420656E6473746F7077
:10090000733A200046523A0020466C6F773A200036
:1009100050726F7465637465642050696E0A0020BC
:100920006F7574206F662072616E67650A002053D0
:100930006572766F200020643A0020693A002070CA
:100940003A00496E76616C696420657874727564EA
:1009500065720A006469730043290A0061626C656C
:100960006420286D696E2074656D702000436F6C83
:100970006420657874727564657320617265200007
:10098000426564204C6576656C696E67200046613F
:10099000696C656420746F20656E61626C652042CD
:1009A0006564204C6576656C696E670A0045455044
:1009B000524F4D2064697361626C65640A003F5A4E
:1009C000206F7574206F662072616E676520280045
:1009D0003F59206F7574206F662072616E676520C5
:1009E000282D0020746F20003F58206F7574206FF1
:1009F000662072616E676520282D0050726F6265F7
:100A0000204F6666736574205800446F6E652070D1
:100A100072696E74696E672066696C650A004D378D
:100A200037004D333100360531052A0523051505FC
:100A3000363726023C3D380F2E303E12131A1C1852
:100A40000AFF430C0907084400014D343130004DC2
:100A5000313132004D313038004E6F2043686563CC
:100A60006B73756D2077697468206C696E65206E94
:100A7000756D6265722C204C617374204C696E65D3
:100A80003A2000636865636B73756D206D69736DE3
:100A9000617463682C204C617374204C696E653AF4
:100AA00020004C696E65204E756D62657220697319
:100AB000206E6F74204C617374204C696E65204EFB
:100AC000756D6265722B312C204C617374204C69FA
:100AD0006E653A20004D313130005344207265611B
:100AE00064206572726F720A002121204B494C4CC0
:100AF00020636175736564206279204B494C4C20FA
:100B0000627574746F6E2F70696E0A002121204B1C
:100B1000494C4C2063617573656420627920746F61
:100B20006F206D75636820696E61637469766520F6
:100B300074696D65202D2063757272656E74206313
:100B40006F6D6D616E643A2000627573793A207042
:100B5000617573656420666F7220696E7075740AC2
:100B600000627573793A2070617573656420666FF1
:100B70007220757365720A00627573793A2070721B
:100B80006F63657373696E670A004D656469612000
:100B900052656D6F766564004D6564696120496ECC
:100BA0007365727465640068747470733A2F2F6D86
:100BB00061726C696E66772E6F72670020322E301C
:100BC0002E37002020506C616E6E6572427566662D
:100BD000657242797465733A20002046726565201B
:100BE0004D656D6F72793A2000436F6D70696C6569
:100BF000643A2046656220313120323032310A00B9
:100C0000204C61737420557064617465643A2032BD
:100C10003032302D30392D3239207C2041757468C6
:100C20006F723A20286E6F6E652C20646566617560
:100C30006C7420636F6E666967290A00322E302E4D
:100C4000370A004D61726C696E0020536F667477CD
:100C50006172652052657365740A00205761746380
:100C600068646F672052657365740A002042726F72
:100C7000776E206F75742052657365740A00204585
:100C8000787465726E616C2052657365740A0050E9
:100C90006F77657255700A006175746F25632E67F2
:100CA00000473238004D31303031006572726F725A
:100CB0002077726974696E6720746F2066696C654D
:100CC0000A00446F6E6520736176696E67206669FD
:100CD0006C652E0A004D323900456E6473746F7076
:100CE0007300255320256320256320256320256379
:100CF0000020583A00656E6473746F7073206869E1
:100D0000743A200070012C0190012701B0012201EA
:100D1000C0011D01F00118011002130130020E0183
:100D20006002090190020401C002FF000003FA0002
:100D30004003F5008003F000D003EB002004E60040
:100D40007004E100E004DC004005D700C005D200DB
:100D50004006CD00D006C8008007C3003008BE00A2
:100D6000F008B900C009B400B00AAF00B00BAA0087
:100D7000D00CA500000EA000500F9B00C0109600E4
:100D80005012910000148C00C0158700B01782002B
:100D9000B0197D00D01B7800001E730040206E004B
:100DA00090226900F024640040275F0090295A00D7
:100DB000E02B5500102E500020304B001032460022
:100DC000E033410090353C00103737007038320076
:100DD000A0392D00B03A2800A03B2300603C1E0043
:100DE000103D1900903D1400103E0F00703E0A00A7
:100DF000C03E0500003F0000403FFBFF803FF6FF84
:100E0000C03FF1FF7879007A7800797A00207A0083
:100E10002079002078002E2020202000456E6420BC
:100E20004452592D52554E004E6F20636F6E7665B9
:100E30007267656E636500497465726174696F6E8F
:100E4000203A202530326900536176652077697435
:100E500068204D35303020616E642F6F7220636FD3
:100E6000707920746F20436F6E6669677572617464
:100E7000696F6E2E680A00253033692E7800302E97
:100E8000253033690043616C6962726174696F6E09
:100E90002073643A00737464206465763A00726F5C
:100EA0006C6C696E67206261636B2E0043616C69D4
:100EB00062726174696F6E204F4B00436F7272658E
:100EC00063742064656C74612073657474696E6703
:100ED000732077697468204D36363520616E642042
:100EE0004D3636360A0020284452592D52554E2987
:100EF00000436865636B696E672E2E2E20414300A8
:100F00003F4265642063616C6962726174696F6EEF
:100F10002072616469757320696D706C61757369A5
:100F2000626C652E0A00473333204175746F20438D
:100F3000616C6962726174650A003F2856296572A6
:100F4000626F7365206C6576656C20696D706C618D
:100F5000757369626C652028302D33292E0A003F95
:100F60002846296F72636520697465726174696FC0
:100F70006E20696D706C61757369626C65202830D4
:100F80002D3330292E0A003F284329616C69627293
:100F90006174696F6E20707265636973696F6E202A
:100FA000696D706C61757369626C6520283E3D30B7
:100FB000292E0A003F2850296F696E747320696DCD
:100FC000706C61757369626C652028302D31302931
:100FD0002E0A002568753A253032687500253032B2
:100FE00068753A253032687500534400202020206F
:100FF000202020005072696E742041626F72746507
:1010000064004D32350050617573696E672E2E2E67
:10101000004D6F74696F6E004D3834004175746F08
:1010200020486F6D650041425300504C41004E6FA7
:101030007A7A6C65004D61696E004672656520586C
:10104000590044697361626C652053746570706502
:10105000727300436F6F6C646F776E0050726568D7
:1010600065617420240046616E20537065656420BC
:101070007E00466C6F77002A10261050726F6265F2
:10108000205A204F666673657400416476616E6312
:1010900065642053657474696E677300547A0054F4
:1010A0007900547800457A0045790045780052650A
:1010B00073746F72652044656661756C747300505B
:1010C000726568656174202420436F6E6600424C2F
:1010D000546F7563680044656C74612043616C698A
:1010E00062726174696F6E00486F6D696E67205837
:1010F000595A004469616720526F64005261646903
:101100007573004865696768740043616C69627251
:101110006174652043656E7465720043616C696239
:1011200072617465205A0043616C69627261746512
:1011300020590043616C69627261746520580044F3
:10114000656C74612053657474696E6773004175D2
:10115000746F2043616C6962726174696F6E0047DD
:1011600033330046696C2E204469612E00452069A6
:101170006E206D6DC2B300200220466163740020B2
:1011800002204D6178002002204D696E0041757487
:101190006F74656D70005654726176204D696E00F3
:1011A000566D696E00566D6178204500566D617808
:1011B000204300566D6178204200566D61782041D1
:1011C00000416D6178204500416D61782043004108
:1011D0006D6178204200416D6178204100412D54BD
:1011E000726176656C00412D5265747261637400A2
:1011F000416363656C00436F6E6669677572617405
:10120000696F6E0054656D7065726174757265000A
:101210003F004261636B0053746F70004368616EFE
:101220006765204D65646961004D3231005377690F
:1012300074636820506F776572204F6E004D3830B0
:101240000053776974636820506F776572204F662A
:1012500066004D383100526573756D6520507269B6
:101260006E74004E6F204D656469610054756E6543
:101270000053746F70205072696E74005061757302
:1012800065205072696E7400496E666F20536372F8
:1012900065656E005374617274205072696E7400DB
:1012A00043616E63656C0043616E6E6F7420656EA2
:1012B000746572207375626469723A2000052E2E7F
:1012C000007C3C3E5E2B3D3F2F5B5D3B2C2A225C2D
:1012D00000486F6D696E67204661696C6564006FD8
:1012E00070656E00545249474745524544007A5F45
:1012F0006D6178007A5F6D696E00795F6D6178006D
:10130000785F6D6178005265706F7274696E6720E6
:10131000656E6473746F70207374617475730A0002
:1013200000000000000000000000AA4320746F6F5E
:10133000206C6F6E6720657874727573696F6E20AC
:1013400070726576656E7465640A0020636F6C6404
:1013500020657874727573696F6E2070726576653A
:101360006E7465640A00001C1F11111F0000000646
:10137000191803130C00040E1F041C000000000EBB
:101380001315110E00001C10181705060500040A9D
:101390000A0A0A11110E0C12120C00000000001FA4
:1013A0001511151F000000000000010204040000D8
:1013B000001C1C0C040404020100000000000408CE
:1013C0001000000000007C4D61726C696E7C002D85
:1013D0002D2D2D2D2D00456E636C6F73757265007C
:1013E0004D6F76696E672E2E2E0020520048617276
:1013F00064636F6465642044656661756C74205332
:10140000657474696E6773204C6F616465640A006B
:101410003B200020204D3835312058005A2D507285
:101420006F6265204F666673657400204900202056
:101430004D33303120500050494420736574746935
:101440006E67733A0020460020204D31343520531A
:10145000004D6174657269616C20686561747570B6
:1014600020706172616D65746572733A0020480086
:1014700020204D363635204C0044656C7461207355
:10148000657474696E67733A204C3C646961676F78
:101490006E616C20726F643E20523C7261646975AB
:1014A000733E20483C6865696768743E20533C730E
:1014B00065676D656E747320706572207365633E39
:1014C0002058595A3C746F77657220616E676C655D
:1014D000207472696D3E204142433C726F642074F7
:1014E00072696D3E0020204D363636205800456E1C
:1014F0006473746F702061646A7573746D656E7463
:101500003A0020204D3432302053004175746F2052
:10151000426564204C6576656C696E673A002020F0
:101520004D323035204200416476616E6365643A25
:1015300020423C6D696E5F7365676D656E745F74A4
:10154000696D655F75733E20533C6D696E5F6665BE
:101550006564726174653E20543C6D696E5F74729F
:101560006176656C5F66656564726174653E20587E
:101570003C6D61785F785F6A65726B3E20593C6DA7
:1015800061785F795F6A65726B3E205A3C6D617865
:101590005F7A5F6A65726B3E20453C6D61785F657E
:1015A0005F6A65726B3E0020540020204D3230345B
:1015B000205000416363656C65726174696F6E20D1
:1015C00028756E6974732F7332293A20503C7072FB
:1015D000696E745F616363656C3E20523C72657432
:1015E000726163745F616363656C3E20543C747226
:1015F0006176656C5F616363656C3E0020204D32EF
:1016000030312058004D6178696D756D20416363FC
:10161000656C65726174696F6E2028756E6974738C
:101620002F7332293A0020204D3230332058004D9C
:101630006178696D756D2066656564726174657346
:101640002028756E6974732F73293A00537465707E
:10165000732070657220756E69743A002044002012
:10166000204D3230302053002044697361626C6534
:10167000640A0046696C616D656E742073657474EC
:10168000696E67733A0020204D3134392043203B86
:1016900020556E69747320696E2043656C7369759B
:1016A000730A0020286D6D29002020473231202048
:1016B00020203B20556E69747320696E206D6D008B
:1016C0000000FA430000FA430000FA430000C2425F
:1016D0000000A0420000A0420000A04200005144CF
:1016E00028230000282300002823000010270000E2
:1016F00043616E6E6F74206F70656E2073756264E7
:1017000069722000534420496E6974204661696CF7
:101710000053442063617264206F6B0A006F706530
:101720006E526F6F74206661696C65640A00766F33
:101730006C756D652E696E6974206661696C65648F
:101740000A004E6F20534420636172640A004D32D8
:1017500034004D3233202573006F70656E20666152
:10176000696C65642C2046696C653A200046696C9A
:10177000652073656C65637465640A002053697A3B
:10178000653A200046696C65206F70656E65643A45
:101790002000454E4420535542524F5554494E4522
:1017A0000A002220706F73002220706172656E74CF
:1017B0003A2200535542524F5554494E4520434119
:1017C0004C4C207461726765743A220053756263F1
:1017D000616C6C204F766572666C6F77004578633C
:1017E0006565646564206D617820535542524F559C
:1017F00054494E452064657074683A310A00577246
:101800006974696E6720746F2066696C653A2000A0
:10181000667265736800646F696E67004E6F77204B
:10182000000000C8420000C8420000AA430000C8EF
:10183000C20000C8C2000000000A0A0A00004843B3
:1018400000004843000048430000A0400000A040C2
:101850000000A04000004843000048430000AA43A5
:101860000101015761726E696E673A20486F6D69B8
:101870006E672042756D702044697669736F7220BF
:101880003C20310A000A0A426564204C6576656C8A
:1018900020436F7272656374696F6E204D6174725C
:1018A00069783A000A436F72726563746564204216
:1018B0006564204865696768742076732E204265E8
:1018C0006420546F706F6C6F67793A0A000A426542
:1018D000642048656967687420546F706F6772612F
:1018E0007068793A0A2020202B2D2D2D204241436B
:1018F0004B202D2D2B0A2020207C20202020202052
:1019000020202020207C0A204C207C202020202801
:101910002B29202020207C20520A2045207C2020BA
:101920002020202020202020207C20490A20462022
:101930007C20282D29204E20282B29207C20470A76
:101940002054207C20202020202020202020207CAB
:1019500020480A2020207C20202020282D292020FB
:1019600020207C20540A2020207C202020202020A1
:1019700020202020207C0A2020204F2D2D20465280
:101980004F4E54202D2D2B0A2028302C30290A00B0
:101990000A4D65616E206F662073616D706C6564C1
:1019A00020706F696E74733A200020623A200045FF
:1019B000716E20636F656666696369656E74733AFC
:1019C00020613A200050726F62696E6720506F6923
:1019D0006E740025532025692F25690050726F62AF
:1019E000696E67206D65736820706F696E74200082
:1019F000202844525952554E29004732392041750A
:101A0000746F20426564204C6576656C696E670072
:101A10003F20284C2C522C462C4229206F757420D4
:101A20006F6620626F756E64732E0A003F50726F8E
:101A3000626520706F696E74732028592920696D62
:101A4000706C61757369626C652028322D39292E9E
:101A50000A003F50726F626520706F696E74732068
:101A600028582920696D706C61757369626C6520F6
:101A700028322D39292E0A003F2856296572626FB7
:101A80007365206C6576656C20696D706C6175732B
:101A900069626C652028302D34292E0A0020433AD3
:101AA0000020423A0020436F756E7420413A004591
:101AB0003100626564002C2073797374656D207346
:101AC000746F7070656421204865617465725F4948
:101AD000443A2000544845524D414C2052554E4105
:101AE00057415900546865726D616C2052756E6182
:101AF0007761790048656174696E67204661696C39
:101B000065640048656174696E67206661696C652B
:101B10006400202D20496E76616C696420657874BC
:101B20007275646572206E756D62657220210A009F
:101B30004572723A204D415854454D50004D415820
:101B400054454D502074726967676572656400453D
:101B500072723A204D494E54454D50004D494E54F5
:101B6000454D502074726967676572656400202F67
:101B70000020403A0056652D4A65726B0056432D91
:101B80004A65726B0056422D4A65726B0056412DB4
:101B90004A65726B0050726F62652059204F66660D
:101BA0007365740050726F62652058204F666673CB
:101BB000657400452073746570732F6D6D0043204C
:101BC00053746570732F6D6D00422053746570738C
:101BD0002F6D6D00412053746570732F6D6D00463D
:101BE000696C616D656E740050726F6265204F663E
:101BF000667365747300416363656C6572617469D3
:101C00006F6E0056656C6F63697479005072696E0F
:101C1000742066726F6D204D6564696100205A3AC8
:101C2000200020593A200042656420583A20005094
:101C300072696E74205061757365640050726F62D2
:101C4000696E67204661696C65640A0050726F6254
:101C5000696E67204661696C656400220A00556EF2
:101C60006B6E6F776E20636F6D6D616E643A2022CC
:101C70000044656C7461626F742052656164792EF2
:101C8000005072696E74696E672E2E2E0020453AE0
:101C900000205A3A0020593A004C6576656C204283
:101CA0006564004732380A4732390053746F770051
:101CB0004465706C6F790053572D4D6F6465005308
:101CC000656C662D546573740046616E20537065B3
:101CD00065640020643A2000656E717565756569FC
:101CE0006E672022006F6B00526573656E643A2048
:101CF0000023646566696E652044454641554C5431
:101D00005F004B6420004B6920004B70200050495D
:101D100044204175746F74756E652066696E6973D1
:101D2000686564212050757420746865206C617347
:101D300074204B702C204B6920616E64204B642012
:101D4000636F6E7374616E74732066726F6D206260
:101D5000656C6F7720696E746F20436F6E6669677C
:101D600075726174696F6E2E680A00504944204193
:101D700075746F74756E65206661696C6564212089
:101D800074696D656F75740A000A20436C61737322
:101D9000696320504944200A00204B643A20002007
:101DA0004B693A2000204B703A20002054753A20AD
:101DB00000204B753A2000206D61783A2000206D9C
:101DC000696E3A200020626961733A2000504944EC
:101DD000204175746F74756E652073746172740A36
:101DE00000504944204175746F74756E65206661BA
:101DF000696C6564212054656D70657261747572DB
:101E00006520746F6F20686967680A005049442034
:101E10004175746F74756E65005049442041757446
:101E20006F74756E65206661696C6564212042611E
:101E300064206578747275646572206E756D626574
:101E4000720A00A10000006900A20000006300B057
:101E50000000000900C10000004100C20000004174
:101E600000C30000004100C40000004100C50000A4
:101E7000004100C60000004145C70000004300C803
:101E80000000004500C90000004500CD00000049E9
:101E900000D10000004E00D50000004F00D6000029
:101EA000004F00D70000007800DC0000005500DD86
:101EB0000000005900E00000006100E10000006146
:101EC00000E20000006100E30000006100E40000A7
:101ED000006100E50000006100E60000006165E7C8
:101EE0000000006300E80000006500E900000065F4
:101EF00000EA0000006500EB0000006500EC000057
:101F0000006900ED0000006900EE0000006900EFCC
:101F10000000006900F10000006E00F20000006F98
:101F200000F30000006F00F40000006F00F50000F7
:101F3000006F00F60000006F00F80000006F00F96D
:101F40000000007500FA0000007500FB000000753D
:101F500000FC0000007500FD0000007900FF00009B
:101F60000079000401000041000501000061000645
:101F700001000043000701000063000C0100004362
:101F8000000D01000063000E01000044000F01007D
:101F90000064001101000064001901000065001ACE
:101FA00001000045001B01000065001F01000067E3
:101FB00000300100004900310100006900410100CA
:101FC000004C00420100006C00430100004E004440
:101FD0000100006E00480100006E00580100005230
:101FE000005901000072005A01000053005B01001B
:101FF0000073005F01000073006001000053006186
:1020000001000073006501000074006F010000759D
:10201000007C0100007A007D0100005A007E010072
:10202000007A00920100006600E3020000780022BE
:102030002000002E001E21000050782221000054B4
:102040004D902100003C2D922100002D3EB021003A
:10205000000300BB21000004003C2200007E004879
:102060002200007E3D60220000213D612200003DF3
:1020700000642200003C3D652200003E3DF123004B
:10208000000700A03000003D0021F301000200C263
:10209000F401000500A2000000EC00B0000000DF29
:1020A00000E4000000E100F6000000EF00F700008F
:1020B00000FD00FC000000F500E3020000EB0087DB
:1020C000030000A5008F030000F40098030000F255
:1020D000009E030000E300A3030000F600A9030034
:1020E00000F400AC030000E000AD030000E300B129
:1020F000030000E000B2030000E200B5030000E3CB
:1021000000B8030000F200BC030000E400BE0300BE
:1021100000E300C0030000F700C1030000E600C3B5
:10212000030000E500902100007F00922100007E66
:10213000001A220000E8001E220000F3008825009B
:1021400000FF0002300000A1000C300000A2000DD2
:10215000300000A3009B300000DE009C300000DF58
:1021600000A03000003D00A1300000A700A2300018
:1021700000B100A3300000A800A4300000B200A508
:10218000300000A900A6300000B300A7300000AA6C
:1021900000A8300000B400A9300000AB00AA300055
:1021A00000B500AB300000B600AC300000B6DEADCC
:1021B000300000B700AE300000B7DEAF300000B82E
:1021C00000B0300000B8DEB1300000B900B230001D
:1021D00000B9DEB3300000BA00B4300000BADEB59A
:1021E000300000BB00B6300000BBDEB7300000BCE2
:1021F00000B8300000BCDEB9300000BD00BA3000CD
:1022000000BDDEBB300000BE00BC300000BEDEBD45
:10221000300000BF00BE300000BFDEBF300000C095
:1022200000C0300000C0DEC1300000C100C230007C
:1022300000C1DEC3300000AF00C4300000C200C5E2
:10224000300000C2DEC6300000C300C7300000C34B
:10225000DEC8300000C400C9300000C4DECA30004F
:1022600000C500CB300000C600CC300000C700CD58
:10227000300000C800CE300000C900CF300000CAD6
:1022800000D0300000CADED1300000CADFD23000FA
:1022900000CB00D3300000CBDED4300000CBDFD544
:1022A000300000CC00D6300000CCDED7300000CCAF
:1022B000DFD8300000CD00D9300000CDDEDA3000AC
:1022C00000CDDFDB300000CE00DC300000CEDEDDF4
:1022D000300000CEDFDE300000CF00DF300000D065
:1022E00000E0300000D100E1300000D200E2300018
:1022F00000D300E3300000AC00E4300000D400E57F
:10230000300000AD00E6300000D500E7300000AE40
:1023100000E8300000D600E9300000D700EA3000C5
:1023200000D800EB300000D900EC300000DA00EDFE
:10233000300000DB00EF300000DC00F2300000A6CF
:1023400000F3300000DD00F4300000B3DEF73000B1
:1023500000DCDEFA300000A6DEFB300000A500FC49
:10236000300000B000FD300000A400074E0000FB6C
:102370000086510000FC0043530000FA0064FF0097
:1023800000A40065FF0000A50066FF0000A600672E
:10239000FF0000A70068FF0000A80069FF0000A977
:1023A000006AFF0000AA006BFF0000AB006CFF009A
:1023B00000AC006DFF0000AD006EFF0000AE006FCE
:1023C000FF0000AF0070FF0000B00071FF0000B11F
:1023D0000072FF0000B20073FF0000B30074FF0042
:1023E00000B40075FF0000B50076FF0000B600776E
:1023F000FF0000B70078FF0000B80079FF0000B9C7
:10240000007AFF0000BA007BFF0000BB007CFF00E9
:1024100000BC007DFF0000BD007EFF0000BE007F0D
:10242000FF0000BF0080FF0000C00081FF0000C16E
:102430000082FF0000C20083FF0000C30084FF0091
:1024400000C40085FF0000C50086FF0000C60087AD
:10245000FF0000C70088FF0000C80089FF0000C916
:10246000008AFF0000CA008BFF0000CB008CFF0039
:1024700000CC008DFF0000CD008EFF0000CE008F4D
:10248000FF0000CF0090FF0000D00091FF0000D1BE
:102490000092FF0000D20093FF0000D30094FF00E1
:1024A00000D40095FF0000D50096FF0000D60097ED
:1024B000FF0000D70098FF0000D80099FF0000D966
:1024C000009AFF0000DA009BFF0000DB009CFF0089
:1024D00000DC009DFF0000DD009EFF0000DE009F8D
:1024E000FF0000DF00E5FF00005C00000021002489
:1024F0000027002A002D00300033000101000004F5
:102500000107010A0100002200250028002B002EEF
:10251000003100340002010000050108010B010038
:102520000020002300260029002C002F003200008C
:10253000010000030106010901050505050705085D
:10254000080808020202020A0A0808040404040136
:102550000101010101010103030303030303030458
:102560000707070C0C0C0C0C0C0C0C0202020206E8
:10257000060606060606060B0B0B0B0B0B0B0B01D8
:102580000210202008081020401020408002010284
:10259000010804020101020408102040808040204C
:1025A0001008040201800402018040201008040287
:1025B0000108040201010204081020408001020405
:1025C000081020408000000A0B02090C0D0E0807BD
:1025D00003040100000000000000000000000000F3
:1025E00000000000000000000000000000000000EB
:1025F00000121110000000000000000000000000A8
:1026000000000000000000000000004D6F76652013
:1026100025736D6D004D6F766520302E316D6D0028
:102620004D6F766520316D6D004D6F7665203130D0
:102630006D6D004D6F7665204178697300486F7449
:10264000656E6420746F6F20636F6C6400457874EE
:102650007275646572004D6F7665205A004D6F7615
:10266000652059004D6F766520580024F4D4305011
:10267000C38E20C2A24017828B7011127A910D81F5
:102680006CD90AA861E108C7586607615143061E64
:102690004B5D05C145A7041A411104093D9803711A
:1026A0003931034036DB0265339102D43054028065
:1026B0002E1D02632CEE01752AC501B028A0011061
:1026C0002781018F2564012B244B01E0223401ACCA
:1026D000211F018D200D01801FFC00841EED00973D
:1026E0001DDF00B81CD200E61BC600201BBC006426
:1026F0001AB200B219A8000A19A0006A189900D1EC
:1027000017910040178B00B516840031167E00B378
:102710001579003A157300C7146F0058146A00EE5B
:102720001366008813630025135E00C7125B006CFC
:1027300012570015125400C111510070114F0021A1
:10274000114B00D61049008D10470046104400027E
:10275000104200C00F4000800F3E00420F3C0006B8
:102760000F3B00CB0E3800930E37005C0E35002770
:102770000E3400F30D3200C10D3100900D300060B9
:102780000D2E00320D2D00050D2C00D90C2B00AEA6
:102790000C2900850C29005C0C2700350C27000E45
:1027A0000C2600E80B2400C40B2400A00B23007DA2
:1027B0000B23005A0B2100390B2100180B2000F8C5
:1027C0000A1F00D90A1E00BB0A1E009D0A1D0080B8
:1027D0000A1D00630A1C00470A1B002C0A1B00117B
:1027E0000A1A00F7091A00DD091900C4091900AB1B
:1027F000091900920917007B091800630917004C9A
:1028000009160036091600200916000A091500F5F8
:10281000081500E0081400CC081400B8081400A43F
:10282000081400900813007D0812006B081300586C
:102830000812004608120034081100230811001283
:1028400008110001081100F0071000E0071000D087
:10285000071000C0071000B0070F00A1071000917B
:10286000070E0083070F0074070F0065070E00575F
:10287000070E0049070E003B070D002E070E002033
:10288000070D0013070D0006070D00F9060C00EDFB
:10289000060D00E0060C00D4060C00C8060C00BCB7
:1028A000060C00B0060C00A4060B0099060C008D67
:1028B000060B0082060B0077060B006C060B00610E
:1028C000060A0057060B004C060A0042060A0038AA
:1028D000060A002E060A0024060A001A060A00103C
:1028E00006090007060A00FD050900F4050900EBCA
:1028F000050900E2050900D9050900D0050900C74E
:10290000050900BE050900B5050800AD050800A5CC
:102910000509009C050800940508008C0508008442
:102920000508007C050800740508006C05070065B3
:102930000508005D050700560508004E050700471D
:102940000507004005080038050700310507002A83
:10295000050700230507001C050600160507000FE4
:102960000507000805060002050700FB040600F540
:10297000040700EE040600E8040600E2040700DB9A
:10298000040600D5040600CF040600C9040600C3EF
:10299000040600BD040600B7040600B1040500AC3F
:1029A000040600A6040600A00405009B040600958A
:1029B000040500900406008A0405008504050080D3
:1029C0000406007A04050075040500700405006B18
:1029D00004050066040500610405005C0405005759
:1029E000040500520405004D040500480405004399
:1029F0000405003E0404003A0405003504050030D7
:102A00000404002C04050027040400230405001E10
:102A10000404001A04040016040500110404000D47
:102A2000040400090405000404040000040400FC7C
:102A3000030400F8030400F4030400F0030400ECB2
:102A4000030400E8030400E4030400E0030400DCE2
:102A5000030400D8030400D4030400D0030400CC12
:102A6000030400C8030300C503030024F404D920B1
:102A70001BC40C5C0E9804C4095F0265077101F465
:102A800005F900FB04B30048048700C1036900583E
:102A900003550003034500BE023A0084023100538F
:102AA000022A002902250004022000E4011C00C8BB
:102AB000011900AF0117009801140084011300717F
:102AC0000110006101100051010E0043010D00369C
:102AD000010B002B010B0020010B00150109000C5C
:102AE00001090003010800FB000800F3000800EBE7
:102AF000000700E4000600DE000600D8000600D251
:102B0000000600CC000500C7000500C2000500BD9E
:102B1000000400B9000400B5000400B1000400ADD9
:102B2000000400A9000400A5000300A20003009F08
:102B30000004009B0003009800030095000200932E
:102B4000000300900003008D0002008B000300884A
:102B50000002008600020084000300810002007F62
:102B60000002007D0002007B000200790002007775
:102B70000001007600020074000200720001007182
:102B80000002006F0002006D0001006C0002006A8C
:102B90000001006900020067000100660001006595
:102BA0000001006400020062000100610001006099
:102BB0000001005F0002005D0001005C0001005B9D
:102BC0000001005A0001005900010058000100579F
:102BD000000100560001005500010054000100539F
:102BE000000000530001005200010051000100509C
:102BF0000001004F0001004E0000004E0001004D9A
:102C00000001004C0001004B0000004B0001004A95
:102C10000001004900010048000000480001004791
:102C2000000100460000004600010045000000458C
:102C30000001004400010043000000430001004285
:102C4000000000420001004100000041000100407E
:102C50000001003F0000003F0001003E0000003E78
:102C60000001003D0000003D0001003C0000003C70
:102C70000000003C0001003B0000003B0001003A66
:102C80000000003A0001003900000039000100385E
:102C90000000003800000038000100370000003755
:102CA000000100360000003600000036000100354B
:102CB0000000003500000035000100340000003441
:102CC0000000003400010033000000330000003336
:102CD000000100320000003200000032000100312B
:102CE0000000003100000031000100300000003021
:102CF000000000300001002F0000002F0000002F16
:102D00000000002F0001002E0000002E0000002E09
:102D10000001002D0000002D0000002D0000002DFE
:102D20000001002C0000002C0000002C0000002CF2
:102D30000001002B0000002B0000002B0000002BE6
:102D40000001002A0000002A0000002A0000002ADA
:102D500000010029000000290000002900000029CE
:102D600000000029000100280000002800000028C1
:102D700000000028000000280001002700000027B4
:102D800000000027000000270000002700010026A7
:102D9000000000260000002600000026000000269B
:102DA000000100250000002500000025000000258E
:102DB0000000002500000025000100240000002480
:102DC0000000002400000024000000240001002373
:102DD0000000002300000023000000230000002367
:102DE0000000002300000023000100220000002258
:102DF000000000220000002200000022000000224B
:102E0000000100210000002100000021000000213D
:102E1000000000210000002100000021000100202E
:102E20000000002000000020000000200000002022
:102E30000000002000000020000000200001001F12
:102E40000000001F0000001F0000001F0000001F06
:102E50000000001F0000001F0001001E0000001EF7
:102E60000000001E0000001E000000043700001ECD
:102E7000290000511B00005810000010090000CC70
:102E80000400007802000041010000506C6561738D
:102E900065205265736574005052494E5445522066
:102EA00048414C5445440025533A202553004B4992
:102EB0004C4C45442E20005072696E746572206837
:102EC000616C7465642E206B696C6C2829206361C9
:102ED0006C6C6564210A006563686F3A0045727224
:102EE0006F723A0053544F505045442E2000507298
:102EF000696E7465722073746F7070656420647598
:102F00006520746F206572726F72732E2046697827
:102F100020746865206572726F7220616E6420751E
:102F20007365204D39393920746F2072657374616F
:102F300072742E202854656D7065726174757265A7
:102F40002069732072657365742E2053657420693F
:102F5000742061667465722072657374617274693D
:102F60006E67290A0021212053544F502063616C61
:102F70006C65642062656361757365206F662042CD
:102F80004C546F756368206572726F72202D2072C9
:102F90006573746172742077697468204D393939AA
:102FA0000A004361703A0047322F47332062616460
:102FB00020706172616D65746572730A0020205221
:102FC00061646975733A002E4865696768743A00F0
:102FD000204D393220580020496E76616C6964209A
:102FE00065787472756465722000D4018E011124B5
:102FF0001FBECFEFD1E2DEBFCDBF00E00CBF12E0BD
:10300000A0E0B2E0EAE0F1E502E00BBF02C0079009
:103010000D92AA3DB107D9F722E1AAEDB2E001C0B5
:103020001D92AD3BB207E1F717E1C6EFD7E100E033
:1030300006C021970109802FFE010F948924C53F06
:10304000D10780E00807A9F70F94400D0D9473286D
:103050000C9400002F923F924F925F926F927F925A
:103060008F929F92AF92BF92CF92DF92EF92FF9298
:103070000F931F93CF93DF93CDB7DEB7EA970FB6C9
:10308000F894DEBF0FBECDBF8AAF2091E4022EA719
:1030900081E08093E4028091250D8D3409F4D2C142
:1030A000843511F40C941328873411F00C943828CB
:1030B0002091230D3091240D2C31310509F489C064
:1030C00094F42430310534F422303105B4F537FF5F
:1030D00028C0B4C124303105F1F12531310511F496
:1030E0000C943A28ABC12132310509F42DC14CF4BE
:1030F0002D31310509F47DC02E31310509F4A3C00D
:103100009DC12B35310509F423C12C35310509F456
:1031100024C12A35310509F091C11092E3020C94C3
:103120003A288091E604813011F00C943A280F94EB
:103130007B0B0E9440B60C943A288091E6048130C3
:1031400011F00C943A282230310509F080E00E94F9
:10315000FEFF0C943A2880E50E94C7FD882329F0E1
:103160000F94900C6B017C0103C0C12CD12C760113
:1031700083E50E94C7FD882361F00E940FFD20E0D7
:1031800030E04AE754E40F940A1E0F9405266B01C1
:103190007C010E9492A580913205811105C060E0FA
:1031A0008BE395E00E9446520F94C50CC60ED71EC5
:1031B000E81EF91E0F94C50CDC01CB018C199D098A
:1031C000AE09BF09B7FD02C00C943A280E949F3097
:1031D000F1CF8091420C8770873011F00C94432816
:1031E00060E08FE40E94EFFD81110C943A280C946A
:1031F00043280F94C50C6093A8127093A912809372
:10320000AA129093AB129091420C90FD02C087E0FD
:1032100001C086E091FD8D7F92FD02C00C946D2867
:103220008B7F11F00C949D288091CF0B882311F493
:103230000C94A02860E08FE40E94EFFD81110C94B3
:103240003A280C94A0282091BF0C3091C00C4091DA
:10325000C10C5091C20C60911F02709120028091AC
:103260002102909122020F949224AB01BC0188E5C7
:103270000E9454E669837A838B839C832091C30CDC
:103280003091C40C4091C50C5091C60C6091230242
:103290007091240280912502909126020F9492242D
:1032A000AB01BC0189E50E9454E66D837E838F8368
:1032B0009887BE016B5F7F4FCE0101960E9485FC0F
:1032C000882311F40C943A2880E00E9404FE0E94A6
:1032D0003DBA84E690E0909355028093540261E0F9
:1032E00085E40E94EFFD01E021E0482FBE016B5F05
:1032F0007F4FCE0101960E94A7D96B017C019B01F3
:10330000AC010F94D827811119C049815A816B8172
:103310007C8187E29CE10E9482FE4D815E816F810B
:10332000788582E29CE10E9482FEB701A6018DE1D0
:103330009CE10E9482FE8AE00E94732F0E9424BAC0
:103340000E94EA7B0C943A280E94F3350C943A28A8
:103350008FE08093E3020C943A285CE6252E52E03D
:10336000352E67EFE62E6CE0F62E7FE1C72E72E079
:10337000D72E00E010E0D1018D911D010E94C7FD04
:10338000882309F447C00E940FFD2B013C01133034
:1033900049F0F70120813181428153810F949124BA
:1033A0002B013C01D6012D913D914D915C91C301C2
:1033B000B2010F9491244B015C012DEB37E346E8F9
:1033C00055EB0F94462787FD0AC02DEB37E346E8FF
:1033D00055E3C501B4010F94A41D1816DCF4133095
:1033E00051F440922B0250922C0260922D02709266
:1033F0002E0201E00FC0A5019401F70160817181E7
:10340000828193810F949224D7016D937D938D9344
:103410009C9313971F5FB4E0EB0EF11CE4E0CE0E1B
:10342000D11C143009F0A7CF002321F08BE292E0E9
:103430000E94A2A50E94EA7B0C943A280E94F2D82E
:103440000C943A288091230D9091240D8237910598
:1034500009F490C70CF0CAC08B34910509F4E2C49A
:103460000CF058C08831910509F4E7C24CF582315F
:10347000910509F488C66CF497FF02C00C941028DB
:10348000823091050CF419C2419709F473C20C946F
:1034900010288531910509F4B2C22CF4449709F43F
:1034A0007DC20C9410288631910509F4ACC247976F
:1034B00011F00C941028E091210DF091220DB1C271
:1034C0008D31910509F43FC3B4F48A31910509F4B3
:1034D000D9C20CF4BEC28B31910509F4E1C24C97FC
:1034E00011F00C9410288091210D9091220D0E94D2
:1034F00038AD0C943A288F31910509F4CFC30CF400
:1035000029C38032910509F486C38A9709F471C4EE
:103510000C9410288836910509F4A1C4ECF5823585
:10352000910509F422C644F58D34910509F493C43C
:103530000CF47CC48035910509F4F8C581359105FA
:1035400011F00C9410280E940DCC0E9479860E94E4
:103550001DA70E94F52D68EE73E080E090E00E94C8
:1035600024FE269A2E9A10925C0360E08CE796E087
:103570000E9446520C943A288435910509F403C6FA
:103580000CF4FAC58535910509F433C68C359105DF
:1035900009F452C60C9410288D36910509F485C49F
:1035A000ACF48A36910509F4BDC40CF4A7C48B367B
:1035B000910509F4FAC48C36910511F00C94102889
:1035C00010925C0510920E020C943A288F369105E9
:1035D00009F40DC50CF4F8C48037910509F44CC505
:1035E0008137910509F455C50C9410288C32F1E00F
:1035F0009F0711F40C9467250CF0DDC0883C910501
:1036000009F46DC70CF0A4C08737910509F403C70E
:103610000CF08EC08537910509F4B3C60CF0C1C615
:103620008337910511F00C9410288CED97E00E94DF
:1036300073FE60E08CEC97E00F94210560E087EB6F
:1036400097E00F94210560E080EB97E00F9421054F
:1036500061E085EA97E00F94210561E085E997E054
:103660000F94210560E08CE897E00F94210561E05C
:1036700082E897E00F94210561E088E797E00F94D6
:10368000210560E081E797E00F94210561E089E67C
:1036900097E00F94210561E08BE597E00F942105F9
:1036A00060E08DE497E00F94210561E08EE397E000
:1036B0000F94210560E080E397E00F94210560E01E
:1036C0008AE197E00F94210560E089E097E00F948C
:1036D000210560E08AEF96E00F94210561E083EF19
:1036E00096E00F94210560E08EED96E00F942105A1
:1036F00060E080ED96E00F94210561E08DEB96E0AF
:103700000F94210560E080EB96E00F94210561E0C5
:103710008BEA96E00F94210560E08EE996E00F9425
:10372000210560E08AE896E00F9421050C943A2880
:103730008937910509F47AC60CF470C68139910570
:1037400009F47BC68B39910509F4CAC40C9410287E
:10375000833D910509F496C7ACF48B3C910509F4BF
:103760002BC734F4893C910509F400C70C94102848
:103770008C3C910509F43FC78D3C910509F46FC756
:103780000C9410288D3D910511F40C942F243CF4D9
:103790008C3D910511F40C9408240C941028823E61
:1037A000910511F40C9485248831914011F40C9406
:1037B000D0240C941028853F41E0940711F40C9418
:1037C000DD260CF043C08139A1E09A0711F40C9476
:1037D0004D26C4F48E32E1E09E0711F40C940626C7
:1037E00014F40C9486258F3221E0920711F40C9486
:1037F0004A268039914011F00C9410280E9492A51D
:103800000C943A288A3941E0940709F43EC45CF4E8
:103810008239914011F00C9410280E947CFC0E9487
:10382000EA7B0C943A28843AB1E09B0711F40C949B
:103830005726843F914011F00C9410280E94B3FE4B
:103840008DEA99E00E9473FE0C943A288A39F2E0DE
:103850009F0711F40C949527B4F4873F31E0930748
:1038600011F40C94E62614F40C94E3268C3052E008
:10387000950711F40C94EF268939924011F40C94B9
:10388000FC260C941028803AB3E09B0709F4F8C199
:103890003CF48335934011F40C94B7270C94102812
:1038A000873E23E0920711F40C94E827893E934069
:1038B00011F40C94F6270C94102880E50E94C7FDA3
:1038C000882329F00F94900C6B017C0103C0C12C5C
:1038D000D12C760183E50E94C7FD882361F00E9408
:1038E0000FFD20E030E04AE754E40F940A1E0F94E5
:1038F00005266B017C010E9492A58091210D90917B
:10390000220D009721F061E00E94BB5205C060E0EB
:1039100086E595E00E9446521091E40283E0809390
:10392000E40281E080935C05C114D104E104F10458
:1039300031F00F94C50CC60ED71EE81EF91E8091FB
:103940005C05882311F40C94A728C114D104E10468
:10395000F10411F40C94A3280F94C50CDC01CB01E5
:103960008C199D09AE09BF09B7FF02C00C94A328AA
:103970000C94A72880911D0D84FF02C00C94AE28E2
:1039800080911F0D87FF02C00C94AE288091200DFE
:10399000837011F00C94AE280C94CA288091A61262
:1039A00083FF25C081E895E00E9473FE8091A612F6
:1039B00083FF17C087E890E10E94E5788BE1E7E894
:1039C000F0E1DE01119601900D928A95E1F760E039
:1039D00070E0CE0101960E9477B0CE0101960E9460
:1039E000D97A82E795E00E9473FE0C943A280E94EF
:1039F00083FF82E995E00E9473FE0C943A280E94AE
:103A000054AF0C943A280E9429AD8091A612877F6A
:103A100080628093A6120C943A28803209F41082B6
:103A2000319680818111F9CF60E08091210D9091D4
:103A3000220D0E9480AD0C943A280E94D52D882337
:103A400021F00E94A7AE0E9455860E9432D80C94A5
:103A50003A288091A61282FF03C08B7F8093A61222
:103A60008091F60C813089F782E08093F60C0F94F8
:103A7000C50C60937E0570937F05809380059093BD
:103A80008105E3CF8091A61283FD02C00C943A28F1
:103A900083E50E94C7FD81110C94D8280C943A2824
:103AA00083E40E947EFD882319F186EA95E00E9456
:103AB00073FE80913110882391F0BE016F5F7F4FBC
:103AC0008EE290E10E94AC778E010F5F1F4FD8010C
:103AD0008D918D01882339F00E94732FF8CF8CE9E6
:103AE00095E00E9473FE8AE00E94732F0C943A289E
:103AF0008091A61282FF21C085EB95E00E9473FEA3
:103B00006091A2127091A3128091A4129091A512BB
:103B10004AE00E947A2F8FE20E94732F60919E12DA
:103B200070919F128091A0129091A1124AE00E9480
:103B30007A2F0E9478300C943A2887EC95E00E9406
:103B400073FE0C943A288091A6128E7F8093A61261
:103B50000C943A288091A61283FD02C00C943A2856
:103B60000E94DBD88091A61283FD02C00C943A28F3
:103B70004091210D5091220DBE01645E7F4F80E087
:103B80000E94CB888C01009711F40C943A286C8D1C
:103B90007D8D19821C8222E0AC01CE0101960E942B
:103BA000DF7A811102C0F12C14C0CE0101960E946F
:103BB0009DFB8823C1F361E0CE0101960E945477FA
:103BC000009789F325EEFC0120831C820E94DC72A1
:103BD000F82ECE0101960E94D97AB801FF2089F013
:103BE00080EF95E00E94A0FE8AE00E94732F109261
:103BF000A2121092A3121092A4121092A5120C9469
:103C00003A2888ED95E00E94A0FE80ED9FE00E949A
:103C100073FE0C943A288091A61282FD0E9492A510
:103C20008091A61283FD02C00C943A2860E080E5E2
:103C30000E94EFFD182F682F8091210D9091220D89
:103C40000E9480AD83E50E94C7FD882381F00E9419
:103C500046FDAB01BC014093A2125093A3126093A6
:103C6000A4127093A5128EE290E10E94CF740E947C
:103C7000A7AE11110C943A280E9455860C943A284C
:103C80002091210D3091220D9091A6129260909377
:103C9000A612C9010E9438AD0C943A280E940686EB
:103CA0007B018C0120E831E541E050E00F94E423F2
:103CB000C9016DE671E00F9461244B015C01C801FC
:103CC000B70120E13EE040E050E00F94E423CA0158
:103CD000B90128E130E040E050E00F94E423762E73
:103CE000672EC62ED72E4CE3242E312C412C512C7E
:103CF000C801B701A20191010F94E423F62EE72E2B
:103D0000CA01B901A20191010F94E423CB018E01F4
:103D10000F5F1F4F8114910499F0EF92FF927F93F0
:103D20006F936F927F92BF92AF929F928F928EEF1E
:103D300095E09F938F931F930F930F943C1D13C097
:103D4000A114B104B1F0EF92FF927F936F936F9241
:103D50007F92BF92AF9282E096E09F938F931F93E2
:103D60000F930F943C1D0FB6F894DEBF0FBECDBF6E
:103D700030C0CD2879F0EF92FF927F936F936F92CE
:103D80007F9286E096E09F938F931F930F930F94FB
:103D90003C1DE9CF892B69F0EF92FF927F936F93DF
:103DA0008AE096E09F938F931F930F930F943C1D8F
:103DB000DACFEF92FF928EE096E09F938F931F935E
:103DC0000F930F943C1D0F900F900F900F900F903A
:103DD0000F9060E0C8010E94BB520E9483FFB801AF
:103DE00082E196E00E94A0FE8AE00E94732F0C946C
:103DF0003A286DE070E080E50E94D4FD8C0197FFC9
:103E000002C00C943A28E82E60E089E40E94EFFD9D
:103E100081110C94E928802F0F941B0D811192C5FC
:103E20000C94E9280E9455860C943A288091F60C4F
:103E3000813011F00C943A2882E08093F60C0F94B4
:103E4000C50C60937E0570937F05809380059093E9
:103E500081050C943A280E9479860C943A28809126
:103E6000B80A83FF02C00C943A280F942C0C87FFE9
:103E700002C00C943A2889E40E94C7FD882311F4FB
:103E80000C9426290E945AFD90E01816190614F485
:103E900081E090E0880F991F880F991FFC01ED5673
:103EA000F44F808191810C9430298091B80A83FF6E
:103EB00002C00C943A280F942C0C8FA787FF02C0E5
:103EC0000C943A2889E40E94C7FD182F882311F426
:103ED0000C9440290E945AFD90E01816190614F41B
:103EE00081E090E0880F991F880F991FFC01ED5623
:103EF000F44F808191811E8E0C9450290F942C0CCC
:103F0000182F87FD0AC085EE9CE10E9473FE812F69
:103F10000E9486CB8AE00E94732F3EA53093E40274
:103F20000C94B52C60E080E50E94E3FDF82E41E0A2
:103F3000481710F40C943A2881E40E947EFD8823EF
:103F400029F06091E305062F10E002C00FEF10E0AA
:103F500089E40E94C7FD882391F00E945AFD90E0F9
:103F60001816190614F481E090E0880F991F880F45
:103F7000991FFC01ED56F44F0281138108C083E5BF
:103F80000E94C7FD882319F00E9446FD8B01EF2D8A
:103F9000F0E0ED51FA4FB8010F3F110519F010F0A4
:103FA0006FEF70E060830C943A2860E080E50E9437
:103FB000E3FD823010F00C943A28E82FF0E0ED5148
:103FC000FA4F10820C943A288EE40E94C7FD882391
:103FD00011F40C943A280E9446FD6093AA0D709348
:103FE000AB0D8093AC0D9093AD0D0C943A2883E506
:103FF0000E947EFD882331F060E083E50E94E3FDAE
:104000008093B80A0E9483FF84E596E00E9473FEC5
:104010008091B80A882369F1A6E2EA2EAAE0FA2E76
:1040200000E010E020E08091B80A90E0A0E0B0E06D
:10403000002E04C0B695A795979587950A94D2F758
:1040400080FF0EC0DD24D394D20E222319F08CE21F
:104050000E94732FF701859194910E9473FE2D2D7C
:104060000F5F1F4F52E0E50EF11C05301105D9F628
:104070003ACD80E596E035CD41E060E070E08BE53B
:1040800096E00E9487FF0C943A280E94B02D0C9471
:104090003A2883E50E94C7FD882371F00E945AFDEB
:1040A000282F30E02D3331051CF480930002E2C745
:1040B0008CE380930002DEC70E9483FFC090000261
:1040C000D12CE12CF12C89E696E00E9473FE4AE0A7
:1040D000C701B6010E947A2F8AE00E94732FCAC7D7
:1040E00083E50E94C7FD882309F4C4C70E945AFDD6
:1040F000182F90E0CD970CF01CE31093DE020F9484
:10410000C50C6B017C01212F30E0A8EEB3E00F94C9
:104110003824C60ED71EE81EF91EC092DA02D092CD
:10412000DB02E092DC02F092DD02A4C783E50E948C
:104130007EFD882361F080915C03882319F086E777
:1041400096E002C080E796E00E9473FE93C7269A2D
:104150002E9881E080935C036AEF70E080E090E04D
:104160000E9424FE0E9432D885C78091E3028F7D91
:1041700080618093E3027EC78091E3028F7E80623C
:104180008093E30277C783E50E94C7FD8823E9F0A7
:104190000F94C50C6093A8127093A9128093AA1271
:1041A0009093AB120E940FFD20E030E04AE754E408
:1041B0000F940A1E0F940526609301027093020269
:1041C000809303029093040255C780911D0D84FFD4
:1041D00002C00C94FA2A80911F0D87FF02C00C9434
:1041E000FA2A8091200D837011F00C94FA2A0C9415
:1041F0002B2B83E50E947EFD882309F43BC70F9497
:10420000C50C6093A8127093A9128093AA12909380
:10421000AB120E940FFD20E030E04AE754E40F9417
:104220000A1E0F9405266093DF027093E0028093CC
:10423000E1029093E2021EC70F942C0C87FD1AC76F
:1042400090911D0D94FD04C090911F0D97FF0AC021
:10425000ECE6CE2EE2E0DE2EF9EBEF2EFAE0FF2EBA
:1042600010E009C09091200D937091F7682F81E0C4
:104270000F94550CFFC6D6018D916D010E94C7FDAC
:10428000882309F46DC0133009F063C00E940FFD4C
:104290004B015C0120E030E040EA51E40F94A41DA2
:1042A00087FF4EC0A50194016091D90A7091DA0A86
:1042B0008091DB0A9091DC0A0F948C252B013C0144
:1042C0009B01AC016091C7057091C8058091C9053B
:1042D0009091CA050F940A1E6093C7057093C80594
:1042E0008093C9059093CA05A30192016091E90AE0
:1042F0007091EA0A8091EB0A9091EC0A0F940A1EE1
:104300006093E90A7093EA0A8093EB0A9093EC0AAF
:104310006091D7057091D8058091D9059091DA0503
:104320000F94A91DA30192010F940A1E0F94052654
:104330006093D7057093D8058093D9059093DA05DB
:104340008092D90A9092DA0AA092DB0AB092DC0A33
:1043500007C00E940FFDF701648B758B868B978BCE
:104360001F5FF4E0EF0EF11C143009F084CF0E94BF
:1043700073A380C60E94B1D784E491E10E94DBD090
:1043800079C68091210D9091220D009709F45DCBA3
:10439000DC012C91222309F458CB60E00E94BB522F
:1043A00069C60091210D1091220D94E0F12C40E09E
:1043B000915021F1F8018081282F2B7F213421F4A5
:1043C00021812133D9F407C08035C1F48181805324
:1043D0008A3048F013C0813421F0853421F441E063
:1043E00002C0FF24F39498012E5F3F4F89012F5F95
:1043F0003F4FF80180818032C9F3DACF41110E942A
:1044000083FFFF2021F08EEA98E00E9473FEC8012E
:104410000E947E302FC60E9447802CC681E0809388
:104420005E0380935D030E94A38024C610925E0306
:1044300010925D030E94A3801DC660E070E083E5DA
:104440000E94D4FD823038F00E94B3FE82EB98E0E7
:104450000E9473FE0FC68C01112788E40E94C7FDDD
:104460008823D9F00E9456FD8A3A910544F00E94B3
:1044700056FD8530914034F40E9456FD05C08AEA0D
:1044800090E002C084E091E0F801EE0FFF1FEE0F14
:10449000FF1FED56F44F9183808386E40E94C7FD91
:1044A000882309F4E7C50E9456FD97FD09C00E94C4
:1044B00056FD8F3F910509F034F40E9456FD05C06A
:1044C00080E090E002C08FEF90E0000F111F000F1E
:1044D000111FF801ED56F44F93838283CBC50F94DF
:1044E0002C0C182F87FDC6C50091D40B84E40E94C4
:1044F000C7FD882311F40C942E2B0E940FFD6B0135
:104500007C0120E030E0A9010F94A41D882341F133
:1045100024E01202F0011124E053F44FC082D18252
:10452000E282F38220E030E0A9016091D00B70912B
:10453000D10B8091D20B9091D30B0F94A41D8111BC
:104540000CC080E090E0A0EEBFE38093D00B90938E
:10455000D10BA093D20BB093D30B01E00C942E2B74
:1045600080E08093D40B0E946BB184C50F942C0C17
:1045700087FD80C54CE6E42E42E0F42E09EB1AE0FC
:1045800059ECC52E5AE0D52ED7018D917D010E94A0
:104590007EFD882359F00E940FFD0F940526F80137
:1045A00060837183828393830E942CA30C5F1F4FCF
:1045B000C016D10649F75EC50F942C0C87FD5AC56D
:1045C0003CE6E32E32E0F32E09EB1AE0D7018D91A1
:1045D0007D010E947EFD882339F00E940FFDF801C5
:1045E00064A375A386A397A30C5F1F4FFAE0093C51
:1045F0001F0761F73FC580911E0D87FF02C00C9415
:10460000342B80911F0D8E7011F00C94342B40913F
:10461000ED0A5091EE0A6091EF0A7091F00A84ED74
:1046200098E00E9482FE4091F10A5091F20A609156
:10463000F30A7091F40A8AEE93E10E9482FE40919F
:10464000F50A5091F60A6091F70A7091F80A87EA24
:1046500095E10E9482FE8AE00E94732F0BC5809133
:104660001D0D827111F00C947A2B80911F0D8C78A6
:1046700011F00C947A2B8091200D837011F00C9422
:104680007A2BF8C44090F70C5090F80C6090F90C1D
:104690007090FA0C20913B0230913C0240913D0217
:1046A00050913E02C301B2010F9492246E8F7F8F0E
:1046B00088A399A38090FB0C9090FC0CA090FD0C1B
:1046C000B090FE0C20913F02309140024091410297
:1046D00050914202C501B4010F9492246AA37BA3B6
:1046E0008CA39DA3C090FF0CD090000DE090010D15
:1046F000F090020D20914302309144024091450216
:1047000050914602C701B6010F9492246EA37FA375
:1047100088A799A720914702309148024091490209
:1047200050914A02C301B2010F9492242B013C0123
:1047300020914B0230914C0240914D0250914E021B
:10474000C501B4010F9492244B015C0120914F02EA
:10475000309150024091510250915202C701B6016E
:104760000F9492246B017C010E9483FF84EF98E0F8
:104770000E9473FE83E50E947EFD882321F00E9443
:104780006EFD8093530280915302882319F080E2DA
:1047900095E002C088ED97E00E9473FE8CEE98E0F1
:1047A0000E9473FE4E8D5F8D68A179A182E096E133
:1047B0000E9482FE4AA15BA16CA17DA180E391E1F0
:1047C0000E9482FE4EA15FA168A579A584E291E1D5
:1047D0000E9482FE82EF9FE00E9473FE84EE98E0CA
:1047E0000E9473FEB301A20182E096E10E9482FE64
:1047F000B501A40180E391E10E9482FEB701A60108
:1048000084E291E10E9482FE8AE00E94732F32C40A
:1048100083E50E94C7FD882331F00E9456FD9093E6
:1048200055028093540280911D0D90911E0DA09110
:104830001F0DB091200D892B8A2B8B2B09F01AC4E8
:10484000609154027091550284E099E00E9493FEB9
:1048500085E20E94732F8AE00E94732F0BC40F948D
:104860002C0CF82E87FD06C483E50E94C7FD0F2D92
:104870000F2C000C110B882369F10E9456FDF801E2
:10488000EE0FFF1FEA5AFD4F91838083000F111F27
:10489000000F111F9801275E3D4F7901BC01990F50
:1048A000880B990B0F94AB1D2AE037ED43E25CE3D4
:1048B0000F940A1EF801ED5AF34F20813181428195
:1048C00053810F940A1ED7016D937D938D939C9312
:1048D0001397D0C30E9483FF85E40E94732F80E367
:1048E0008F0D0E94732FF801EE0FFF1FEA5AFD4F44
:1048F0006081718188E099E00E9493FE85E20E94C8
:10490000732F8AE00E94732FB5C380E50E947EFD5D
:10491000882309F4AFC360E070E080E50E94D4FD15
:10492000F82E6FEF7FEF83E50E94D4FD8C01019696
:10493000039708F09FC3F7FC9DC38F2D0F941B0DA9
:10494000882339F00E94B3FE80E199E00E9473FE53
:1049500091C30E9492A560E08F2D0E94A8EE0F3FA8
:10496000BFEF1B0731F00130110571F000E010E0DE
:104970000DC08F2D0E9415EE31E020E0892B09F04B
:1049800030E0032F122F02C001E010E08F2D0E94B3
:1049900015EE8017910709F46DC30E949F30F6CF82
:1049A00080E50E947EFD882309F464C30E9456FDC1
:1049B0008C01892B09F07FC083E50E947EFD88234E
:1049C00089F00E9456FD8F3FEFEF9E0729F484EF98
:1049D00090E10E94FA2D4EC3BC0184EF90E10E9449
:1049E000292E48C30E9483FF60E070E08EE299E0C8
:1049F0000E9493FE8091F61028E532E06901C81A02
:104A0000D10887FDD394CC0CDD1CCC0CDD1C0D2C07
:104A1000000CEE08FF088091F51028E830E049010D
:104A2000881A910887FD9394880C991C880C991C0E
:104A3000092C000CAA08BB088091F4108F3FC1F02C
:104A400090E0FC01EE0FFF1F8E0F9F1FFC01E5554C
:104A5000FF4E2181328143E0220F331F4A95E1F757
:104A600054E0369527955A95E1F72E5F3F4F02C0E7
:104A700020E030E02F5F3F4FC901330FAA0BBB0B83
:104A80009C01AD01281939094A095B09A4EBB0E082
:104A90000F942524A7019601281939094A095B09B1
:104AA0000F940624B90181ED9AE10E9493FE8AE0F9
:104AB0000E94732FDFC20E94B3FEB8018FE299E01B
:104AC0000E9493FE8FE199E00E9473FED3C283E5BA
:104AD0000E94C7FD882321F00E9446FD8B0102C081
:104AE00004E011E080E50E94C7FD882349F00E94A0
:104AF00046FDCB016938734128F088E893E102C094
:104B000088EE93E0B8010E940B52B4C260E085E4E5
:104B10000E94E3FD811173C080E50E947EFD882321
:104B200051F00E940FFD6093221070932310809328
:104B300024109093251089E40E947EFD882381F043
:104B40000E940FFD2CEA35EC47E25EE30F940A1E4B
:104B5000609326107093271080932810909329104B
:104B600084E40E947EFD882381F00E940FFD2CEAE0
:104B700035EC47E25EE30F948C2560932A10709326
:104B80002B1080932C1090932D100E9483FF409146
:104B900022105091231060912410709125108EE303
:104BA00099E00E9482FE2CEA35EC47E25EE36091D8
:104BB00026107091271080912810909129100F9441
:104BC0008C25AB01BC018AE399E00E9482FE2CEAAD
:104BD00035EC47E25EE360912A1070912B108091D2
:104BE0002C1090912D100F940A1EAB01BC0186E38E
:104BF00099E00E9482FE8AE00E94732F3BC20E94CD
:104C0000B3FE82E499E00E9473FE34C283E50E9401
:104C10007EFD182F882371F00E940FFD0F94FE2552
:104C200070931E0260931D0221E0672B09F020E0C3
:104C30002093F50580E50E947EFD882359F02091A0
:104C40001D0230911E02232B11F00E946EFD8093F5
:104C5000F50510C211110EC20E9483FF8DE699E086
:104C60000E9473FE8091F505882319F081E992E195
:104C700002C084E599E00E9473FE60911D0270916C
:104C80001E028CE599E00E9493FE88E599E00E945F
:104C900073FEF0C10E946BE6EDC18091BE0C8111E4
:104CA0000C941A1A81E00E945BA20C941A1A83E5F4
:104CB0000E947EFD082F882321F00E946EFD182F90
:104CC00002C01091CF0B40901F02509020026090C4
:104CD0002102709022028090230290902402A090E2
:104CE0002502B0902602C0902702D0902802E090C2
:104CF0002902F0902A02002329F0111103C080E05C
:104D00000E9404FE86E50E947EFD882321F087E84C
:104D100098E10E9400D9812F0E9404FE112351F0D6
:104D20008091CF0B811106C00E94B3FE8EE899E0FE
:104D30000E9473FE0E9483FF80E899E00E9473FE48
:104D40008091CF0B882319F080E295E002C088EDB6
:104D500097E00E9473FE8AE00E94732F20911F0249
:104D6000309120024091210250912202C301B201F0
:104D70000F94A41D81110C941A1A209123023091D2
:104D800024024091250250912602C501B4010F94DE
:104D9000A41D81110C941A1A209127023091280227
:104DA0004091290250912A02C701B6010F94A41D17
:104DB000882309F45FC10C941A1A0E9497A380E01B
:104DC0000E9440A857C10E9497A354C161E083E5A7
:104DD0000E94EFFD91E089270E9440A84BC180917D
:104DE000A61282FF04C080648093A61243C183FF91
:104DF00041C10E94DBD83EC188E40E947EFD882329
:104E000051F00E940FFD6093B70B7093B80B809325
:104E1000B90B9093BA0B8CE40E947EFD882351F06D
:104E20000E940FFD6093BF0B7093C00B8093C10B6A
:104E30009093C20B82E50E947EFD882351F00E9470
:104E40000FFD6093BB0B7093BC0B8093BD0B9093D5
:104E5000BE0B83E50E947EFD882351F00E940FFD6A
:104E60006093B30B7093B40B8093B50B9093B60B18
:104E700088E50E947EFD882351F00E940FFD60931B
:104E8000A70B7093A80B8093A90B9093AA0B89E5AD
:104E90000E947EFD882351F00E940FFD6093AB0BB2
:104EA0007093AC0B8093AD0B9093AE0B8AE50E9490
:104EB0007EFD882351F00E940FFD6093AF0B70932D
:104EC000B00B8093B10B9093B20B81E40E947EFDF6
:104ED000882351F00E940FFD60939B0B70939C0BF5
:104EE00080939D0B90939E0B82E40E947EFD88230D
:104EF00051F00E940FFD60939F0B7093A00B809365
:104F0000A10B9093A20B83E40E947EFD882351F0B5
:104F10000E940FFD6093A30B7093A40B8093A50BCD
:104F20009093A60B0E945083A5C083ECE82E8BE0E3
:104F3000F82E18E5812F0E947EFD882389F00E94BB
:104F40000FFD4B015C0120E030E0A9010F94A41D8E
:104F5000181634F0D7018D929D92AD92BC921397A2
:104F60001F5FB4E0EB0EF11C1B3521F783C080916D
:104F70001F0D87FD2AC48091200D837009F025C480
:104F80004091BF0C5091C00C6091C10C7091C20C4B
:104F90008BEF99E00E9482FE4091C30C5091C40CAB
:104FA0006091C50C7091C60C80E391E10E9482FE75
:104FB0004091C70C5091C80C6091C90C7091CA0CFB
:104FC00084E291E10E9482FE8AE00E94732F52C027
:104FD00081E08093E60410925B0560E083E50E9427
:104FE000EFFD811147C00E94A9EA44C00E940686D5
:104FF0006D3371058105910520F082E29AE00F94EE
:105000003B058EE19AE00F943B058AE09AE00E940E
:1050100073FE88E190E190936203809361032AC05C
:105020000E94F2D827C00091230D1091240D0F94F7
:10503000C50C6093A8127093A9128093AA12909342
:10504000AB120023B9F00E9483FF84E50E94732F06
:10505000B8017727072E000C880B990B0E94E72FC9
:1050600080E20E94732F82E499E00E9473FE02C0E6
:105070000E94F2D8EAADE11102C00E9499EAFEA5B1
:10508000F093E40272C40E9492A580E00E9404FEA4
:105090000F94C50C6093A8127093A9128093AA1262
:1050A0009093AB120E943DBA84E690E09093550233
:1050B0008093540281E080935E030E94A3800E944B
:1050C000C08080915D0380935E030E9424BA83E0D8
:1050D00080935B020E94EA7BCDCF26EB32E081FF1A
:1050E00003C048EB52E002C048ED52E080FF03C02D
:1050F0008AEB92E002C088ED92E03F932F935F939A
:105100004F939F938F9384E495E09F938F938E01A9
:105110000F5F1F4F1F930F930F943C1D0E9483FF3F
:10512000C8010E947E3060E0C8010E94BB520FB6E9
:10513000F894DEBF0FBECDBF9DCF28ED32E0CFCFBC
:105140000E94F2BD97CF0E949F300C949F1C10923A
:105150005C051093E4020E9432D88CCF88E50E944F
:105160007EFD81115F9889E50E947EFD81118A98FC
:105170008AE50E947EFD882329F0809108018170D4
:105180008093060185E40E947EFD882309F472CF96
:10519000129870CF60E089E695E00E9446525F98D1
:1051A0008A9880910801817080930601129862CFDD
:1051B0000E9446FDAB01BC014093A2125093A31282
:1051C0006093A4127093A5128EE290E10E94CF74B6
:1051D00051CF8DE40E94C7FD8823A9F00E945AFD9B
:1051E000813039F020F0823049F462E003C060E0A1
:1051F00001C061E0802F0E94A8EE05C08FE196E01B
:105200000E9473FE37CF83E50E94C7FD882309F40F
:1052100031CF0E945AFDF82EB7E0EB1631F0E9E0ED
:10522000EE1206C08093E30525CF8093E40522CFDC
:1052300061E0802F0E94A8EE6F2D802F0E943EEE2D
:105240006F2D70E0802F0E94E4EE14CF83E50E9462
:10525000C7FD882391F00E940FFD0F94FE25CB011E
:105260000E9476CB80911F10909120108635910579
:1052700024F40E9479860E9432D80F944114FACE09
:1052800083E50E94C7FD8E8F811105C082E50E94D3
:10529000C7FD882389F10E940FFD0F94FE25CB01E5
:1052A0000E9476CB80911F10909120108635910539
:1052B0000CF47FC10E94558660911F1070912010E0
:1052C000072E000C880B990B0F94AB1D6B017C0112
:1052D00080901B1090901C10A0901D10B0901E107C
:1052E000A50194010F94462718160CF480C1FE8D79
:1052F000FF2309F463C111E00F944114112309F451
:10530000B9CE2091840C29AF1092840C81E0809357
:105310000E021EA21FA218A619A618AA19AA1AAA36
:105320001BAA1DAA3CE33EAB4CE14FAB56E458AF81
:10533000C12CD12C10E8E12E0FEBF02E1AA28CAB71
:10534000812C912C540160911F1070912010072E18
:10535000000C880B990B0F94AB1D162F072F1C0107
:105360009601A7010F94A41D882329F120911B10F9
:1053700030911C1040911D1050911E109E8D612F78
:10538000702F822D911108C0932D0F94A41D881F9A
:105390008827881F8AA314C0932D0F94A41D87FF0C
:1053A0000EC080910E02882309F4FFC010920E02F5
:1053B0000E9432D8FAC01C2D0D2D170101C01AA26F
:1053C0000F94C50C6B017C01DC01CB0128A939A924
:1053D0004AA95BA9821B930BA40BB50BB7FD33C085
:1053E000D701C60188519C4FAF4FBF4F88AB99ABD7
:1053F000AAABBBAB8FA50E9486CB81E396E00E944F
:1054000073FE81149104A104B104B9F0D501C40163
:10541000805F984DAF4FBF4FBC01CD016C197D0926
:105420008E099F0928EE33E040E050E00F94E4231A
:10543000CA01B9010E94E72F03C08FE30E94732FB6
:105440008AE00E94732F0E949F300F94C50C6093D6
:10545000A8127093A9128093AA129093AB12909104
:105460001B109AA7A0911C10ABA7B0911D10BCA750
:10547000E0911E10EDA7292F3A2F4B2F5E2F612FA1
:10548000702FC1010F9491242B013C0120E030E0EA
:10549000A9010F94462787FF04C077FA709477F824
:1054A000709481149104A104B104E1F420E030E08F
:1054B00040E85FE3C301B2010F94A41D87FF1EC043
:1054C000FCA9FF2329F085E09DE0A0E0B0E003C047
:1054D00080E090E0DC0146015701880E991EAA1E6B
:1054E000BB1E0CC020E030E040E450E4C301B20138
:1054F0000F944627181614F4460157012AA12223B7
:10550000C1F18EA19FA1A8A5B9A5892B8A2B8B2BB0
:1055100061F0D701C6012EA13FA148A559A5821B64
:10552000930BA40BB50BB7FD24C02AA53BA54CA536
:105530005DA56DA97EA98FA998AD0F94912420E057
:1055400030E040EC5FE30F94A41D87FD2ACFD70124
:10555000C601805A9541AF4FBF4F8EA39FA3A8A706
:10556000B9A79AA59DABABA5AEABBCA5BFABEDA54E
:10557000E8AF80910E02882309F413CF81149104BF
:10558000A104B10429F41CAAC12ED02E7101DBCED6
:10559000F0E1CF1AF7E2DF0AE108F108C818D908EC
:1055A000EA08FB08F7FCEFCFFCCE29AD2093840C72
:1055B00061CD0E9479860E9432D87ECEA5019401E9
:1055C000C701B6010F94462718168CF085E396E0C4
:1055D0009F938F938BE496E09F938F931F920E94EB
:1055E000A2520F900F900F900F900F9084CE80E4F6
:1055F00096E0EECF0E9492A588E50E947EFD88236A
:1056000031F05F9A8091BD0C8E7F8093BD0C89E54F
:105610000E947EFD882331F08A9A8091BD0C8D7F97
:105620008093BD0C8AE50E947EFD882359F080910D
:10563000080180958170809306018091BD0C8B7F5D
:105640008093BD0C85E40E947EFD882309F412CD71
:105650000E94952D0FCD0E941DA70CCD602F83E5D4
:105660000E94EFFD0C94B12283E50E94C7FD8823C0
:1056700091F00E940FFD6093ED0A7093EE0A809303
:10568000EF0A9093F00A6093F50A7093F60A8093FC
:10569000F70A9093F80A80E50E94C7FD882351F02D
:1056A0000E940FFD6093ED0A7093EE0A8093EF0A5B
:1056B0009093F00A82E50E94C7FD882351F00E9472
:1056C0000FFD6093F10A7093F20A8093F30A9093AE
:1056D000F40A84E50E94C7FD882309F4CBCC0E941C
:1056E0000FFD6093F50A7093F60A8093F70A909382
:1056F000F80AC0CC82E40E947EFD882351F00F940A
:10570000900C6093C90A7093CA0A8093CB0A909355
:10571000CC0A83E50E947EFD882351F00E940FFD94
:105720006093F90A7093FA0A8093FB0A9093FC0A3B
:1057300084E50E947EFD882351F00E940FFD609356
:10574000FD0A7093FE0A8093FF0A9093000B88E590
:105750000E947EFD882351F00E940FFD6093BB05DF
:105760007093BC058093BD059093BE0589E50E94AA
:105770007EFD882351F00E940FFD6093BF0570935A
:10578000C0058093C1059093C2058AE50E947EFD05
:10579000882351F00E940FFD6093C3057093C405E8
:1057A0008093C5059093C60585E40E947EFD8823FD
:1057B00009F460CC0E940FFD6093C7057093C80583
:1057C0008093C9059093CA0555CC2091BF0C2E8FAC
:1057D0007090C00C6090C10C5090C20C4090C30CF3
:1057E0000091C40C3090C50C2090C60CC090C70C22
:1057F000D090C80CE090C90CF090CA0C88E50E94CB
:10580000C7FD882381F10E940FFD962EA72EB82E8A
:10581000192F20E030E048E453EC0F94462787FD31
:105820000CC020E030E048E453E4692D7A2D8B2D44
:10583000912F0F94A41D181694F468EC70E088EE74
:1058400099E00E9493FE68EC70E083EE99E00E947C
:1058500093FE8DE899E10E9473FE10E005C09E8ED4
:105860007A2C6B2C512E11E089E50E94C7FD88230C
:1058700061F10E940FFD4B015C0120E030E048E443
:1058800053EC0F94462787FD0AC020E030E048E43F
:1058900053E4B401C5010F94A41D181694F468ECE8
:1058A00070E080ED99E00E9493FE68EC70E083EE7A
:1058B00099E00E9493FE8DE899E10E9473FE10E04A
:1058C00004C0482C092D3A2C2B2C8AE50E94C7FDD8
:1058D000882339F10E940FFD6B017C0120E030E04C
:1058E00040EA51EC0F94462787FD0AC020E030E0E3
:1058F00040EA51E4C701B6010F94A41D18168CF4B8
:105900006CEE7FEF8EEB99E00E9493FE64E170E015
:1059100083EE99E00E9493FE8DE899E10E9473FE68
:10592000A9CB112309F4A6CB8E8D972DA62DB52DCD
:105930008093BF0C9093C00CA093C10CB093C20C89
:10594000842D902FA32DB22D8093C30C9093C40C63
:10595000A093C50CB093C60CC092C70CD092C80CD3
:10596000E092C90CF092CA0C85CBEA960FB6F89477
:10597000DEBF0FBECDBFDF91CF911F910F91FF9082
:10598000EF90DF90CF90BF90AF909F908F907F90DF
:105990006F905F904F903F902F900895CF92DF923D
:1059A000EF92FF920F931F93CF93DF936C018B01C4
:1059B0007A01EC01C851DD4F888187FF04C0FB01EB
:1059C0001182108224C02CE02C9DC0012D9D900DD1
:1059D00011242881AC01420F511D27FD5A952091B9
:1059E000F31030E04217530794F42881AC01420FC2
:1059F000511D27FD5A959A01FA01EE0FFF1F2E0F38
:105A00003F1FF901E555FF4E208127FD19C0888110
:105A10008F5F88832CE02C9DC0012D9D900D11245B
:105A20002881AC01420F511D27FD5A952091F3109A
:105A300030E042175307BCF428812C3044F113C0E6
:105A40002881820F911D27FD9A95FC01EE0FFF1F03
:105A50008E0F9F1FFC01E555FF4E808160E08F7720
:105A60000E943EEED4CFF80180819181049680346B
:105A70009C4918F480E49CE904C0F801808191817C
:105A80000496F701918380838FEF888345C0F801E6
:105A9000408151812881BC01620F711D27FD7A95DB
:105AA0009B01FB01EE0FFF1F2E0F3F1FF901E55574
:105AB000FF4E21813281240F351FF701318320836E
:105AC0002881AC01420F511D27FD5A959A01FA0118
:105AD000EE0FFF1F2E0F3F1FF901E555FF4E2081EE
