:100000000C94D2180C9403190C9403190C94031932
:100010000C9403190C9403190C9403190C940319F0
:100020000C9403190C9403190C9403190C940319E0
:100030000C9403190C9403190C9403190C940319D0
:100040000C9403190C9468FD0C9403190C94031977
:100050000C9403190C9403190C94FAF70D94452190
:100060000C9403190C9429360C941F360C94031924
:100070000C9403190C9403190C9403190C94031990
:100080000C94C02E0C9403190C9403190C940319AE
:100090000C9403190C9403190C9403190C94031970
:1000A0000C9403190C9403190C94922E0C940319BC
:1000B0000C9403190C9403190C9403190C94031950
:1000C0000C9403190C9403190C9403190C94031940
:1000D0000C9403190C9403190C9403190C94031930
:1000E0000C9403195FE262E251E255E25BE299E2AD
:1000F00066E26AE270E274E278E27EE282E286E23E
:1001000099E28CE290E294E28DE492E497E4A1E437
:10011000ABE424E5B5E4BDE4C5E4CFE4D9E4E3E42D
:10012000F2E4FCE424E506E510E51AE5084AD73BCD
:100130003BCE016E84BCBFFDC12F3D6C74319ABDB6
:1001400056833DDA3D00C77F11BED9E4BB4C3E91DA
:100150006BAAAABE000000803F05A84CCDB2D44EC9
:10016000B93836A9020C50B9918688083CA6AAAACB
:100170002ABE000000803F000C94695C0C943AB6E3
:100180000C94E2940C94FCB40C9494E20C9431DC46
:100190000C948E940C94FCE40C9400B90D94E62B12
:1001A0000C94CEB50C9465940C948FE10C944F9202
:1001B0000C94FCB80C9423920C94E5D90C9401C9CE
:1001C0000C9492E40C94A97B0C9437470C94E3E4D0
:1001D0000C943A470C94ECB50C9449920C94FE5C48
:1001E0000C948D960C94907B0C94FEB80C94FFC8E4
:1001F0000C94BDE40C94C4B70C9434B60C9442DC5B
:100200000C9410B60C94D9D90C94A9D50C9466E230
:100210000C94DCDB0C941CB60C94C57B0C94E35C56
:100220000C945FE20C94BFB50C94AED90C942EB52F
:100230000C94C7D90C942DDC0C94FED90C9478E264
:100240000C9405C90C9410D90C9471840C94F2E4AC
:100250000C947D840C944FD60C9490E20C94B5E4ED
:100260000C94957B0C9446DC0C94CAB40C94D9E4A1
:100270000C9404B60C9428B60C9410E50C940783E7
:100280000C9455E20C9449B50C94FC820C942FD636
:100290000C948CE20C946A940C9417920D94C128DF
:1002A0000C9479BA0C94DE820C94AEEF0C944ADC78
:1002B0000C9415B50C9406E50C94BCD50C9404DA9A
:1002C0000C946F840C94AD5C0C9407C90C94775C0F
:1002D0000C94AE580C9493910C94F5B50C94A2E147
:1002E0000C94EA940C946F940C948F7B0C946AE2B7
:1002F0000C94F8D90C9477840C94CFE40C941B5292
:100300000C9465570C944E860C9497E40C943357D8
:100310000C94C85C0C9470E20C94C5E40C945CB52D
:100320000C9413830C9488BA0C94F8B80C94B0B560
:100330000C947CD90C944FC70C94FAB80C9462E2DC
:100340000C9403C90C9499E20C9495D90C945BE23B
:100350000C941AE50C94E9820C941E920C948284FD
:100360000C940AB60C94587C0C94A1E40C94ABE465
:100370000C94E3B40C94587B0C9443920C94DDB52C
:100380000C9416B60C94D9B80C946C5E0C94BB8289
:100390000C94B3840C946FB50C942EB60C94A1B548
:1003A0000C9454910C94925C0C9486E20C946D84A1
:1003B0000C94D5D50C94827B0C9488B50C9434871E
:1003C0000C9482E20C9451E20C947EE20C9412C6DE
:1003D0000C943D920C9419920C9460940C94B66118
:1003E0000C9424E50C9474E20C9422B60C94CD5F2A
:1003F0000C948DE40C9491BA4E414E494E49545997
:10040000494E46CDCCCC3D0AD7233C17B7D13877DF
:10041000CC2B329595E6241FB14F0A0000204100F5
:1004200000C84200401C4620BCBE4CCA1B0E5AAE3F
:10043000C59D7400407A10F35A00A0724E1809004E
:1004400010A5D4E80000E87648170000E40B540239
:100450000000CA9A3B000000E1F505000080969874
:1004600000000040420F000000A0860100000010C4
:100470002700000000E80300000000640000000006
:10048000000A00000000000100000000002C76D8E7
:1004900088DC674F0823DFC1DFAE59E1B1B796E5CD
:1004A000E3E453C63AE651997696E8E6C28426EB31
:1004B000898C9B62ED407C6FFCEFBC9C9F40F2BA44
:1004C000A56FA5F490055A2AF75C936B6CF9676DDC
:1004D000C11BFCE0E40D47FEF520E6B500D0ED9031
:1004E0002E0300943577050080841E080000204EFE
:1004F0000A000000C80C333333330F986E12831197
:1005000041EF8D2114893BE65516CFFEE6DB18D16D
:10051000844B381BF77C1D901DA4BBE4242032843F
:10052000725E228100C9F124ECA1E53D27434F4DC5
:100530004D554E49434154494F4E0044525952552E
:100540004E004552524F525300494E464F004543CC
:10055000484F00536C6565702E2E2E00436C696306
:100560006B20746F20526573756D652E2E2E004EB4
:100570006F204D6F76652E00456E642066696C6550
:10058000206C6973740A00426567696E2066696C45
:1005900065206C6973740A004E6F206D6564696133
:1005A0000A00286E6F2066696C65290043757272B7
:1005B000656E742066696C653A2000534420707241
:1005C000696E74696E67206279746520004E6F747D
:1005D000205344207072696E74696E670A00446526
:1005E0006C6574696F6E206661696C65642C204669
:1005F000696C653A200046696C652064656C6574B9
:1006000065643A0025697920256964202569682098
:1006100025696D20256973005072696E74207469B4
:100620006D653A2000496E76616C69642050696E90
:10063000204D6F64650A006F666600444542554769
:100640003A004D3131322053687574646F776E0013
:100650004D31313320530050533A300A0050533A51
:10066000310A0044656C7461626F74204F46462EF7
:10067000004348414D4245525F54454D504552411B
:100680005455524500424142595354455050494EE9
:10069000470041524353004D4F54494F4E5F4D4F19
:1006A00044455300544845524D414C5F50524F54BD
:1006B000454354494F4E004C4F4E475F46494C45C9
:1006C0004E414D45004155544F5245504F52545F95
:1006D00053445F535441545553005344434152448F
:1006E0000050524F4D50545F535550504F5254008C
:1006F000454D455247454E43595F5041525345522F
:1007000000434153455F4C494748545F4252494773
:1007100048544E45535300544F47474C455F4C494E
:100720004748545300534F4654574152455F504F2A
:10073000574552004255494C445F50455243454E3F
:1007400054004C4556454C494E475F444154410086
:100750005A5F50524F42450052554E4F555400413A
:1007600055544F4C4556454C005052494E545F4AE3
:100770004F420050524F4752455353004155544F3A
:100780005245504F52545F54454D5000564F4C55B2
:100790004D45545249430042494E4152595F4649E2
:1007A0004C455F5452414E534645520053455249C1
:1007B000414C5F584F4E5F584F4646004649524D98
:1007C000574152455F4E414D453A4D61726C696EDD
:1007D00020322E302E3720284D61722020392032D1
:1007E0003032312031393A34333A35362920534FBB
:1007F000555243455F434F44455F55524C3A6874E8
:100800007470733A2F2F6769746875622E636F6D09
:100810002F4D61726C696E4669726D776172652FDA
:100820004D61726C696E2050524F544F434F4C5F74
:1008300056455253494F4E3A312E30204D41434890
:10084000494E455F545950453A44656C7461626F36
:10085000742045585452554445525F434F554E54A9
:100860003A3120555549443A6365646532613266D0
:100870002D343161322D343734382D396231322DF7
:100880006335356336326633363766660A002F2F96
:1008900020004D31343520533C696E6465783E202C
:1008A0006F7574206F662072616E67652028302D29
:1008B00031290A00416363656C65726174696F6E0A
:1008C0003A20500020204D61783A200020204D69C8
:1008D0006E3A2000536F667420656E6473746F7097
:1008E000733A200046523A0020466C6F773A200057
:1008F00050726F7465637465642050696E0A0020DD
:100900006F7574206F662072616E67650A002053F0
:100910006572766F200020643A0020693A002070EA
:100920003A00496E76616C6964206578747275640A
:1009300065720A006469730043290A0061626C658C
:100940006420286D696E2074656D702000436F6CA3
:100950006420657874727564657320617265200027
:10096000426564204C6576656C696E67200046615F
:10097000696C656420746F20656E61626C652042ED
:100980006564204C6576656C696E670A0045455064
:10099000524F4D204F4B0A003F5A206F7574206F05
:1009A000662072616E67652028003F59206F75745C
:1009B000206F662072616E676520282D0020746F9D
:1009C00020003F58206F7574206F662072616E673B
:1009D0006520282D0050726F6265204F6666736532
:1009E00074205800446F6E65207072696E74696E71
:1009F000672066696C650A004D3737004D3331005A
:100A00004E05490542053B052D054572726F722062
:100A100077726974696E6720746F20454550524F34
:100A20004D210A004D343130004D313132004D310D
:100A30003038004E6F20436865636B73756D2077A7
:100A4000697468206C696E65206E756D6265722CC4
:100A5000204C617374204C696E653A2000636865B0
:100A6000636B73756D206D69736D617463682C20A1
:100A70004C617374204C696E653A20004C696E6558
:100A8000204E756D626572206973206E6F74204C04
:100A9000617374204C696E65204E756D6265722BB2
:100AA000312C204C617374204C696E653A20004DE6
:100AB0003131300053442072656164206572726F79
:100AC000720A002121204B494C4C206361757365EB
:100AD00064206279204B494C4C20627574746F6EAF
:100AE0002F70696E0A002121204B494C4C20636114
:100AF0007573656420627920746F6F206D7563680B
:100B000020696E6163746976652074696D65202D56
:100B10002063757272656E7420636F6D6D616E64B3
:100B20003A2000627573793A2070617573656420AC
:100B3000666F7220696E7075740A00627573793A17
:100B40002070617573656420666F722075736572BD
:100B50000A00627573793A2070726F636573736906
:100B60006E670A004D656469612052656D6F766538
:100B700064004D6564696120496E736572746564D3
:100B800000506C6561736520526573657400505246
:100B9000494E5445522048414C5445440025533A4F
:100BA000202553004B494C4C45442E20005072697F
:100BB0006E7465722068616C7465642E206B696C5C
:100BC0006C28292063616C6C6564210A0065636888
:100BD0006F3A004572726F723A00363726023C3D1A
:100BE000380F2E303E12131A1C180AFF430C090747
:100BF0000844000153544F505045442E2000507279
:100C0000696E7465722073746F70706564206475AA
:100C10006520746F206572726F72732E204669783A
:100C200020746865206572726F7220616E64207531
:100C30007365204D39393920746F20726573746182
:100C400072742E202854656D7065726174757265BA
:100C50002069732072657365742E20536574206952
:100C60007420616674657220726573746172746950
:100C70006E67290A0021212053544F502063616C74
:100C80006C65642062656361757365206F662042E0
:100C90004C546F756368206572726F72202D2072DC
:100CA0006573746172742077697468204D393939BD
:100CB0000A000A0A426564204C6576656C20436F21
:100CC0007272656374696F6E204D61747269783AEF
:100CD000000A436F72726563746564204265642024
:100CE0004865696768742076732E204265642054D5
:100CF0006F706F6C6F67793A0A000A42656420482A
:100D0000656967687420546F706F67726170687985
:100D10003A0A2020202B2D2D2D204241434B202DFF
:100D20002D2B0A2020207C20202020202020202065
:100D300020207C0A204C207C20202020282B2920C9
:100D40002020207C20520A2045207C2020202020AA
:100D50002020202020207C20490A2046207C20289A
:100D60002D29204E20282B29207C20470A20542082
:100D70007C20202020202020202020207C20480AA9
:100D80002020207C20202020282D29202020207C8D
:100D900020540A2020207C202020202020202020D9
:100DA00020207C0A2020204F2D2D2046524F4E54CB
:100DB000202D2D2B0A2028302C30290A000A4D65C1
:100DC000616E206F662073616D706C656420706F5A
:100DD000696E74733A200020623A200045716E20DB
:100DE000636F656666696369656E74733A20613A1C
:100DF000200050726F62696E6720506F696E7400D8
:100E000025532025692F25690050726F62696E672E
:100E1000206D65736820706F696E7420002028440F
:100E2000525952554E2900473239204175746F206E
:100E3000426564204C6576656C696E67003F2028CA
:100E40004C2C522C462C4229206F7574206F662042
:100E5000626F756E64732E0A003F50726F62652078
:100E6000706F696E74732028592920696D706C61E8
:100E7000757369626C652028322D39292E0A003F6E
:100E800050726F626520706F696E747320285829E4
:100E900020696D706C61757369626C652028322DF4
:100EA00039292E0A003F2856296572626F73652022
:100EB0006C6576656C20696D706C61757369626CC8
:100EC000652028302D34292E0A0068747470733A16
:100ED0002F2F6D61726C696E66772E6F72670020BE
:100EE000322E302E37002020506C616E6E657242BB
:100EF000756666657242797465733A2000204672A1
:100F00006565204D656D6F72793A2000436F6D7095
:100F1000696C65643A204D6172202039203230328C
:100F2000310A00204C6173742055706461746564EB
:100F30003A20323032302D30392D3239207C204168
:100F40007574686F723A20286E6F6E652C20646528
:100F50006661756C7420636F6E666967290A00327A
:100F60002E302E370A004D61726C696E0020536F6F
:100F70006674776172652052657365740A00205744
:100F800061746368646F672052657365740A00203A
:100F900042726F776E206F75742052657365740AA4
:100FA000002045787465726E616C205265736574BB
:100FB0000A00506F77657255700A006175746F256D
:100FC000632E6700473238004D3130303100657292
:100FD000726F722077726974696E6720746F206611
:100FE000696C650A00446F6E6520736176696E678F
:100FF0002066696C652E0A004D323900456E6473B7
:10100000746F7073002553202563202563202563AA
:101010002025630020583A00656E6473746F707306
:10102000206869743A200070012C0190012701B0FA
:10103000012201C0011D01F001180110021301304D
:10104000020E016002090190020401C002FF0000CB
:1010500003FA004003F5008003F000D003EB00200A
:1010600004E6007004E100E004DC004005D700C0A5
:1010700005D2004006CD00D006C8008007C300306E
:1010800008BE00F008B900C009B400B00AAF00B053
:101090000BAA00D00CA500000EA000500F9B00C0B2
:1010A0001096005012910000148C00C0158700B0FB
:1010B000178200B0197D00D01B7800001E7300401D
:1010C000206E0090226900F024640040275F0090A9
:1010D000295A00E02B5500102E500020304B0010F4
:1010E000324600E033410090353C00103737007045
:1010F000383200A0392D00B03A2800A03B23006010
:101100003C1E00103D1900903D1400103E0F007071
:101110003E0A00C03E0500003F0000403FFBFF804C
:101120003FF6FFC03FF1FF20643A200020573A000D
:10113000436F6F6C696E672E2E2E0048656174696F
:101140006E672E2E2E0045202553002364656669A8
:101150006E652044454641554C545F004B64200069
:101160004B6920004B702000504944204175746F3A
:1011700074756E652066696E6973686564212050B8
:10118000757420746865206C617374204B702C201A
:101190004B6920616E64204B6420636F6E737461D1
:1011A0006E74732066726F6D2062656C6F77206954
:1011B0006E746F20436F6E66696775726174696FD4
:1011C0006E2E680A00504944204175746F74756E24
:1011D00065206661696C6564212074696D656F7551
:1011E000740A000A20436C61737369632050494498
:1011F000200A00204B643A2000204B693A2000204E
:101200004B703A20002054753A2000204B753A204C
:1012100000206D61783A2000206D696E3A20002030
:10122000626961733A2000504944204175746F74BB
:10123000756E652073746172740A005049442041D0
:1012400075746F74756E65206661696C65642120C4
:1012500054656D706572617475726520746F6F206E
:10126000686967680A00504944204175746F747555
:101270006E6500504944204175746F74756E652029
:101280006661696C656421204261642065787472CE
:1012900075646572206E756D6265720A007C4D61C1
:1012A000726C696E7C002D2D2D2D2D2D00A100005E
:1012B000006900A20000006300B00000000900C146
:1012C0000000004100C20000004100C300000041D6
:1012D00000C40000004100C50000004100C600003D
:1012E000004145C70000004300C80000004500C998
:1012F0000000004500CD0000004900D10000004E74
:1013000000D50000004F00D60000004F00D70000BD
:10131000007800DC0000005500DD0000005900E00E
:101320000000006100E10000006100E200000061D7
:1013300000E30000006100E40000006100E500003F
:10134000006100E60000006165E70000006300E85E
:101350000000006500E90000006500EA000000658B
:1013600000EB0000006500EC0000006900ED0000EB
:10137000006900EE0000006900EF0000006900F164
:101380000000006E00F20000006F00F30000006F2C
:1013900000F40000006F00F50000006F00F6000090
:1013A000006F00F80000006F00F90000007500FAFF
:1013B0000000007500FB0000007500FC00000075D7
:1013C00000FD0000007900FF00000079000401002A
:1013D0000041000501000061000601000043000714
:1013E00001000063000C01000043000D01000063D8
:1013F000000E01000044000F010000640011010014
:101400000064001901000065001A01000045001B7E
:1014100001000065001F0100006700300100004965
:1014200000310100006900410100004C0042010050
:10143000006C00430100004E00440100006E0048B3
:101440000100006E005801000052005901000072B6
:10145000005A01000053005B01000073005F0100AF
:10146000007300600100005300610100007300651B
:1014700001000074006F01000075007C0100007A1B
:10148000007D0100005A007E0100007A00920100F8
:10149000006600E30200007800222000002E001EFB
:1014A000210000507822210000544D902100003C82
:1014B0002D922100002D3EB02100000300BB210031
:1014C0000004003C2200007E00482200007E3D60B7
:1014D000220000213D612200003D00642200003C0A
:1014E0003D652200003E3DF12300000700A03000D2
:1014F000003D0021F301000200C2F401000500A23A
:10150000000000EC00B0000000DF00E4000000E19B
:1015100000F6000000EF00F7000000FD00FC0000F6
:1015200000F500E3020000EB0087030000A5008F38
:10153000030000F40098030000F2009E030000E3A3
:1015400000A3030000F600A9030000F400AC0300B0
:1015500000E000AD030000E300B1030000E000B2D2
:10156000030000E200B5030000E300B8030000F24E
:1015700000BC030000E400BE030000E300C0030061
:1015800000F700C1030000E600C3030000E500907F
:101590002100007F00922100007E001A220000E856
:1015A000001E220000F30088250000FF000230002A
:1015B00000A1000C300000A2000D300000A3009B31
:1015C000300000DE009C300000DF00A03000003D55
:1015D00000A1300000A700A2300000B100A330003D
:1015E00000A800A4300000B200A5300000A900A6A9
:1015F000300000B300A7300000AA00A8300000B4FB
:1016000000A9300000AB00AA300000B500AB3000EC
:1016100000B600AC300000B6DEAD300000B700AE62
:10162000300000B7DEAF300000B800B0300000B8C6
:10163000DEB1300000B900B2300000B9DEB33000D6
:1016400000BA00B4300000BADEB5300000BB00B60E
:10165000300000BBDEB7300000BC00B8300000BC7A
:10166000DEB9300000BD00BA300000BDDEBB300086
:1016700000BE00BC300000BEDEBD300000BF00BEBA
:10168000300000BFDEBF300000C000C0300000C02E
:10169000DEC1300000C100C2300000C1DEC3300036
:1016A00000AF00C4300000C200C5300000C2DEC67A
:1016B000300000C300C7300000C3DEC8300000C4E3
:1016C00000C9300000C4DECA300000C500CB3000C5
:1016D00000C600CC300000C700CD300000C800CEEE
:1016E000300000C900CF300000CA00D0300000CA6E
:1016F000DED1300000CADFD2300000CB00D3300092
:1017000000CBDED4300000CBDFD5300000CC00D6DB
:10171000300000CCDED7300000CCDFD8300000CD68
:1017200000D9300000CDDEDA300000CDDFDB300044
:1017300000CE00DC300000CEDEDD300000CEDFDE8B
:10174000300000CF00DF300000D000E0300000D1DA
:1017500000E1300000D200E2300000D300E33000AE
:1017600000AC00E4300000D400E5300000AD00E63D
:10177000300000D500E7300000AE00E8300000D6B1
:1017800000E9300000D700EA300000D800EB30005C
:1017900000D900EC300000DA00ED300000DB00EF93
:1017A000300000DC00F2300000A600F3300000DD65
:1017B00000F4300000B3DEF7300000DCDEFA300069
:1017C00000A6DEFB300000A500FC300000B000FDEC
:1017D000300000A400074E0000FB0086510000FC12
:1017E0000043530000FA0064FF0000A40065FF00FE
:1017F00000A50066FF0000A60067FF0000A70068C4
:10180000FF0000A80069FF0000A9006AFF0000AA0D
:10181000006BFF0000AB006CFF0000AC006DFF0030
:1018200000AD006EFF0000AE006FFF0000AF007063
:10183000FF0000B00071FF0000B10072FF0000B2B5
:101840000073FF0000B30074FF0000B40075FF00D8
:1018500000B50076FF0000B60077FF0000B7007803
:10186000FF0000B80079FF0000B9007AFF0000BA5D
:10187000007BFF0000BB007CFF0000BC007DFF0080
:1018800000BD007EFF0000BE007FFF0000BF0080A3
:10189000FF0000C00081FF0000C10082FF0000C205
:1018A0000083FF0000C30084FF0000C40085FF0028
:1018B00000C50086FF0000C60087FF0000C7008843
:1018C000FF0000C80089FF0000C9008AFF0000CAAD
:1018D000008BFF0000CB008CFF0000CC008DFF00D0
:1018E00000CD008EFF0000CE008FFF0000CF0090E3
:1018F000FF0000D00091FF0000D10092FF0000D255
:101900000093FF0000D30094FF0000D40095FF0077
:1019100000D50096FF0000D60097FF0000D7009882
:10192000FF0000D80099FF0000D9009AFF0000DAFC
:10193000009BFF0000DB009CFF0000DC009DFF001F
:1019400000DD009EFF0000DE009FFF0000DF00E5DD
:10195000FF00005C00001C1F11111F000000061991
:101960001803130C00040E1F041C000000000E13CB
:1019700015110E00001C10181705060500040A0AB0
:101980000A0A11110E0C12120C00000000001F15A3
:1019900011151F00000000000001020404000000F7
:1019A0001C1C0C04040402010000000000040810C8
:1019B0000000000000456E636C6F73757265004D2A
:1019C0006F76696E672E2E2E0046696C2E20446954
:1019D000612E004520696E206D6DC2B3002002208B
:1019E00046616374002002204D6178002002204D82
:1019F000696E004175746F74656D700050726F622E
:101A000065205A204F666673657400416476616E86
:101A10006365642053657474696E6773004C657602
:101A2000656C20426564004732380A4732390053FA
:101A3000746F77004465706C6F790053572D4D6F4C
:101A400064650053656C662D546573740046616E61
:101A500020537065656400526573746F726520442D
:101A6000656661756C747300507265686561742099
:101A70002420436F6E6600424C546F756368007893
:101A800079007A7800797A00207A0020790020782D
:101A9000002E2020202000456E64204452592D52F3
:101AA000554E004E6F20636F6E76657267656E638C
:101AB0006500497465726174696F6E203A20253043
:101AC000326900536176652077697468204D35303E
:101AD0003020616E642F6F7220636F707920746F95
:101AE00020436F6E66696775726174696F6E2E68E8
:101AF0000A00253033692E7800302E2530336900F6
:101B000043616C6962726174696F6E2073643A003C
:101B1000737464206465763A00726F6C6C696E67EA
:101B2000206261636B2E0043616C6962726174694B
:101B30006F6E204F4B00436F727265637420646553
:101B40006C74612073657474696E6773207769744F
:101B500068204D36363520616E64204D3636360AA3
:101B60000020284452592D52554E29004368656380
:101B70006B696E672E2E2E204143003F4265642024
:101B800063616C6962726174696F6E20726164690D
:101B9000757320696D706C61757369626C652E0A6E
:101BA00000473333204175746F2043616C69627262
:101BB0006174650A003F2856296572626F7365205B
:101BC0006C6576656C20696D706C61757369626CAB
:101BD000652028302D33292E0A003F2846296F72B0
:101BE000636520697465726174696F6E20696D70D8
:101BF0006C61757369626C652028302D3330292E35
:101C00000A003F284329616C6962726174696F6ED2
:101C100020707265636973696F6E20696D706C61A5
:101C2000757369626C6520283E3D30292E0A003F9D
:101C30002850296F696E747320696D706C617573BB
:101C400069626C652028302D3130292E0A0020531E
:101C5000697A653A200043616E6E6F74206F70651B
:101C60006E207375626469722000534420496E6966
:101C700074204661696C0053442063617264206F74
:101C80006B0A006F70656E526F6F74206661696CCD
:101C900065640A00766F6C756D652E696E697420D7
:101CA0006661696C65640A004E6F2053442063616D
:101CB00072640A004D3234004D3233202573006FB8
:101CC00070656E206661696C65642C2046696C6580
:101CD0003A200046696C652073656C6563746564C1
:101CE0000A0046696C65206F70656E65643A200075
:101CF000454E4420535542524F5554494E450A00D3
:101D00002220706F73002220706172656E743A2217
:101D100000535542524F5554494E452043414C4C77
:101D2000207461726765743A220053756263616C56
:101D30006C204F766572666C6F77004578636565D9
:101D4000646564206D617820535542524F55544963
:101D50004E452064657074683A310A0057726974A0
:101D6000696E6720746F2066696C653A2000667240
:101D700065736800646F696E67004E6F7720004D71
:101D80006F74696F6E004D3834004175746F204870
:101D90006F6D650041425300504C41004E6F7A7A9E
:101DA0006C65004D61696E0046726565205859008A
:101DB00044697361626C65205374657070657273F9
:101DC00000436F6F6C646F776E0050726568656179
:101DD0007420240046616E205370656564207E0087
:101DE000466C6F7700981D941D7C3C3E5E2B3D3FFA
:101DF0002F5B5D3B2C2A225C00436F6E6669677522
:101E0000726174696F6E0054656D7065726174758E
:101E100072650043616E63656C004261636B0053E1
:101E2000746F70004368616E6765204D6564696119
:101E3000004D32310053776974636820506F7765C5
:101E400072204F6E004D38300053776974636820FC
:101E5000506F776572204F6666004D3831005265CD
:101E600073756D65205072696E74004E6F204D65FC
:101E70006469610054756E650053746F7020507210
:101E8000696E74005061757365205072696E7400DC
:101E9000496E666F2053637265656E00537461729C
:101EA00074205072696E740043616E6E6F742065A9
:101EB0006E746572207375626469723A2000052E33
:101EC0002E00486F6D696E67204661696C6564001D
:101ED0006F70656E00545249474745524544007A39
:101EE0005F6D6178007A5F6D696E00795F6D617812
:101EF00000785F6D6178005265706F7274696E670B
:101F000020656E6473746F70207374617475730AE6
:101F10000000000000000000000000AA4320746FD1
:101F20006F206C6F6E6720657874727573696F6E61
:101F30002070726576656E7465640A0020636F6C4C
:101F40006420657874727573696F6E20707265763F
:101F5000656E7465640A0050726F62652059204F87
:101F600066667365740050726F62652058204F6614
:101F70006673657400452073746570732F6D6D0012
:101F8000432053746570732F6D6D00422053746548
:101F900070732F6D6D00412053746570732F6D6DDC
:101FA00000496E69740046696C616D656E7400501D
:101FB000726F6265204F6666736574730041636378
:101FC000656C65726174696F6E0056656C6F6369EC
:101FD0007479000000C8420000C8420000AA430013
:101FE00000C8C20000C8C2000000000A0A0A0000BF
:101FF000484300004843000048430000A040000060
:10200000A0400000A04000004843000048430000FA
:10201000AA430101015761726E696E673A20486FE9
:102020006D696E672042756D702044697669736FC3
:1020300072203C20310A005654726176204D696E40
:1020400000566D696E00566D6178204500566D61D1
:1020500078204300566D6178204200566D617820EB
:102060004100416D6178204500416D617820430059
:10207000416D6178204200416D6178204100412D21
:1020800054726176656C00412D526574726163749F
:1020900000416363656C0056652D4A65726B00569E
:1020A000432D4A65726B0056422D4A65726B00568D
:1020B000412D4A65726B0053657474696E677320B5
:1020C00053746F7265640053657474696E6773202E
:1020D00053746F726564202800547A005479005458
:1020E0007800457A0045790045780044656C746154
:1020F0002043616C6962726174696F6E004C6F613C
:10210000642053657474696E67730053746F7265ED
:102110002053657474696E677300486F6D696E67EC
:102120002058595A004469616720526F6400526117
:1021300064697573004865696768740043616C6918
:102140006272617465205A0043616C6962726174E5
:102150006520590043616C696272617465205800A2
:1021600044656C74612053657474696E67730043D1
:10217000616C6962726174652043656E746572009A
:102180004175746F2043616C6962726174696F6E2E
:1021900000473333003F00496E697469616C697AA6
:1021A0006520454550524F4D005072696E74204174
:1021B000626F72746564004D3235005061757369E9
:1021C0006E672E2E2E00454550524F4D205665729B
:1021D00073696F6E204572726F7200454550524FA1
:1021E0004D20496E646578204572726F72004545D6
:1021F00050524F4D20435243204572726F72004936
:10220000676E6F7265005761726E696E673A204340
:102210006C65616E20436972636C652072657175CF
:10222000697265732058590A005761726E696E674A
:102230003A20526164697573204F7574206F66206F
:1022400052616E67650A0000002100240027002A01
:10225000002D003000330001010000040107010AD5
:102260000100002200250028002B002E0031003440
:102270000002010000050108010B010000200023FD
:1022800000260029002C002F00320000010000036E
:1022900001060109010505050507050808080802EA
:1022A0000202020A0A0808040404040101010101EF
:1022B0000101010303030303030303040707070CDE
:1022C0000C0C0C0C0C0C0C02020202060606060694
:1022D0000606060B0B0B0B0B0B0B0B010210202041
:1022E000080810204010204080020102010804026A
:1022F00001010204081020408080402010080402E0
:102300000180040201804020100804020108040238
:10231000010102040810204080010204081020403E
:102320008000000A0B02090C0D0E080703040100CF
:10233000000000000000000000000000000000009D
:10234000000000000000000000000000001211105A
:10235000000000000000000000000000000000007D
:10236000000000000000004D6F76652025736D6D44
:10237000004D6F766520302E316D6D004D6F7665A6
:1023800020316D6D004D6F76652031306D6D004DE3
:102390006F7665204178697300486F74656E6420BC
:1023A000746F6F20636F6C64004578747275646538
:1023B00072004D6F7665205A004D6F76652059008A
:1023C0004D6F76652058005072696E742066726F8A
:1023D0006D204D6564696100205A3A200020593A09
:1023E000200042656420583A20005072696E7420C3
:1023F00050617573656400486F6D652025732573A2
:1024000025732046697273740050726F62696E673B
:10241000204661696C65640A0050726F62696E677C
:10242000204661696C656400220A00556E6B6E6F10
:10243000776E20636F6D6D616E643A202200446593
:102440006C7461626F742052656164792E00507201
:10245000696E74696E672E2E2E0020453A00205A50
:102460003A0020593A002568753A253032687500DF
:1024700025303268753A25303268750053440020A3
:102480002020202020200020433A0020423A002033
:10249000436F756E7420413A0045310062656400F7
:1024A0002C2073797374656D2073746F707065641C
:1024B00021204865617465725F49443A20005448A0
:1024C00045524D414C2052554E4157415900546898
:1024D00065726D616C2052756E6177617900486537
:1024E0006174696E67204661696C65640048656166
:1024F00074696E67206661696C656400202D2049EF
:102500006E76616C6964206578747275646572209A
:102510006E756D62657220210A004572723A204D17
:10252000415854454D50004D415854454D5020742C
:102530007269676765726564004572723A204D4939
:102540004E54454D50004D494E54454D50207472E7
:102550006967676572656400202F0020403A002497
:10256000F4D43050C38E20C2A24017828B70111257
:102570007A910D816CD90AA861E108C75866076194
:102580005143061E4B5D05C145A7041A41110409BC
:102590003D9803713931034036DB0265339102D433
:1025A000305402802E1D02632CEE01752AC501B045
:1025B00028A001102781018F2564012B244B01E005
:1025C000223401AC211F018D200D01801FFC0084ED
:1025D0001EED00971DDF00B81CD200E61BC60020D0
:1025E0001BBC00641AB200B219A8000A19A0006A44
:1025F000189900D117910040178B00B5168400314F
:10260000167E00B31579003A157300C7146F005891
:10261000146A00EE1366008813630025135E00C77A
:10262000125B006C12570015125400C1115100705A
:10263000114F0021114B00D61049008D1047004664
:1026400010440002104200C00F4000800F3E0042C4
:102650000F3C00060F3B00CB0E3800930E37005C9A
:102660000E3500270E3400F30D3200C10D310090FD
:102670000D3000600D2E00320D2D00050D2C00D9FF
:102680000C2B00AE0C2900850C29005C0C270035B2
:102690000C27000E0C2600E80B2400C40B2400A01D
:1026A0000B23007D0B23005A0B2100390B2100184E
:1026B0000B2000F80A1F00D90A1E00BB0A1E009D4D
:1026C0000A1D00800A1D00630A1C00470A1B002C1B
:1026D0000A1B00110A1A00F7091A00DD091900C4C3
:1026E000091900AB091900920917007B091800634A
:1026F0000917004C09160036091600200916000AB1
:10270000091500F5081500E0081400CC081400B8FD
:10271000081400A4081400900813007D0812006B30
:10272000081300580812004608120034081100234C
:102730000811001208110001081100F0071000E054
:10274000071000D0071000C0071000B0070F00A14D
:1027500007100091070E0083070F0074070F006534
:10276000070E0057070E0049070E003B070D002E0D
:10277000070E0020070D0013070D0006070D00F9D6
:10278000060C00ED060D00E0060C00D4060C00C897
:10279000060C00BC060C00B0060C00A4060B009949
:1027A000060C008D060B0082060B0077060B006CF2
:1027B000060B0061060A0057060B004C060A004291
:1027C000060A0038060A002E060A0024060A001A25
:1027D000060A001006090007060A00FD050900F4B4
:1027E000050900EB050900E2050900D9050900D03B
:1027F000050900C7050900BE050900B5050800ADBB
:10280000050800A50509009C050800940508008C32
:10281000050800840508007C050800740508006CA4
:10282000050700650508005D050700560508004E10
:102830000507004705070040050800380507003177
:102840000507002A050700230507001C05060016DA
:102850000507000F0507000805060002050700FB35
:10286000040600F5040700EE040600E8040600E292
:10287000040700DB040600D5040600CF040600C9E7
:10288000040600C3040600BD040600B7040600B138
:10289000040500AC040600A6040600A00405009B85
:1028A00004060095040500900406008A04050085CE
:1028B000040500800406007A040500750405007014
:1028C0000405006B04050066040500610405005C56
:1028D00004050057040500520405004D0405004896
:1028E000040500430405003E0404003A04050035D5
:1028F000040500300404002C040500270404002310
:102900000405001E0404001A040400160405001146
:102910000404000D0404000904050004040400007C
:10292000040400FC030400F8030400F4030400F0B2
:10293000030400EC030400E8030400E4030400E0E3
:10294000030400DC030400D8030400D4030400D013
:10295000030400CC030400C8030300C503030024E0
:10296000F404D9201BC40C5C0E9804C4095F0265F2
:10297000077101F405F900FB04B30048048700C1A6
:102980000369005803550003034500BE023A008462
:1029900002310053022A002902250004022000E42B
:1029A000011C00C8011900AF011700980114008430
:1029B000011300710110006101100051010E00436C
:1029C000010D0036010B002B010B0020010B00153F
:1029D0000109000C01090003010800FB000800F3D5
:1029E000000800EB000700E4000600DE000600D847
:1029F000000600D2000600CC000500C7000500C29A
:102A0000000500BD000400B9000400B5000400B1D9
:102A1000000400AD000400A9000400A5000300A20A
:102A20000003009F0004009B000300980003009532
:102A300000020093000300900003008D0002008B51
:102A40000003008800020086000200840003008169
:102A50000002007F0002007D0002007B000200797E
:102A6000000200770001007600020074000200728C
:102A7000000100710002006F0002006D0001006C97
:102A80000002006A000100690002006700010066A0
:102A900000010065000100640002006200010061A5
:102AA000000100600001005F0002005D0001005CA9
:102AB0000001005B0001005A0001005900010058AC
:102AC00000010057000100560001005500010054AC
:102AD00000010053000000530001005200010051AA
:102AE000000100500001004F0001004E0000004EA8
:102AF0000001004D0001004C0001004B0000004BA4
:102B00000001004A0001004900010048000000489F
:102B1000000100470001004600000046000100459A
:102B20000000004500010044000100430000004394
:102B3000000100420000004200010041000000418D
:102B4000000100400001003F0000003F0001003E86
:102B50000000003E0001003D0000003D0001003C7F
:102B60000000003C0000003C0001003B0000003B76
:102B70000001003A0000003A00010039000000396D
:102B80000001003800000038000000380001003764
:102B9000000000370001003600000036000000365B
:102BA0000001003500000035000000350001003450
:102BB0000000003400000034000100330000003346
:102BC000000000330001003200000032000000323B
:102BD0000001003100000031000000310001003030
:102BE00000000030000000300001002F0000002F26
:102BF0000000002F0000002F0001002E0000002E1A
:102C00000000002E0001002D0000002D0000002D0E
:102C10000000002D0001002C0000002C0000002C02
:102C20000000002C0001002B0000002B0000002BF6
:102C30000000002B0001002A0000002A0000002AEA
:102C40000000002A000100290000002900000029DE
:102C500000000029000000290001002800000028D1
:102C600000000028000000280000002800010027C4
:102C700000000027000000270000002700000027B8
:102C800000010026000000260000002600000026AB
:102C9000000000260001002500000025000000259E
:102CA0000000002500000025000000250001002490
:102CB0000000002400000024000000240000002484
:102CC0000001002300000023000000230000002377
:102CD0000000002300000023000000230001002268
:102CE000000000220000002200000022000000225C
:102CF000000000220001002100000021000000214E
:102D0000000000210000002100000021000000213F
:102D10000001002000000020000000200000002032
:102D20000000002000000020000000200000002023
:102D30000001001F0000001F0000001F0000001F16
:102D40000000001F0000001F0000001F0001001E07
:102D50000000001E0000001E0000001E0000000415
:102D60003700001E290000511B0000581000001001
:102D7000090000CC0400007802000041010000437B
:102D800061703A0047322F473320626164207061DE
:102D900072616D65746572730A00656E7175657533
:102DA00065696E672022006F6B00526573656E6403
:102DB0003A20002062797465733B206372632000BF
:102DC0004E6F20454550524F4D2E0A0045455052FA
:102DD0004F4D206461746173697A65206572726F0A
:102DE000722E0A002073746F7265642073657474A8
:102DF000696E6773207265747269657665642028F0
:102E000000202863616C63756C6174656429210A14
:102E10000020213D2000454550524F4D2043524354
:102E2000206D69736D61746368202D202873746F41
:102E3000726564292000496E6465783A2000204D4F
:102E400061726C696E3D563831290A004545505211
:102E50004F4D2076657273696F6E206D69736D6179
:102E60007463682028454550524F4D3D0020520064
:102E700048617264636F6465642044656661756C63
:102E8000742053657474696E6773204C6F61646558
:102E9000640A003B200020204D3835312058005A6C
:102EA0002D50726F6265204F66667365740020490D
:102EB0000020204D333031205000504944207365AC
:102EC0007474696E67733A0020460020204D3134D7
:102ED000352053004D6174657269616C20686561CD
:102EE00074757020706172616D65746572733A00FB
:102EF00020480020204D363635204C0044656C7447
:102F0000612073657474696E67733A204C3C646920
:102F100061676F6E616C20726F643E20523C72611B
:102F2000646975733E20483C6865696768743E2033
:102F3000533C7365676D656E7473207065722073A2
:102F400065633E2058595A3C746F77657220616EF4
:102F5000676C65207472696D3E204142433C726F1C
:102F600064207472696D3E0020204D36363620583C
:102F700000456E6473746F702061646A7573746D5C
:102F8000656E743A0020204D343230205300417574
:102F9000746F20426564204C6576656C696E673A93
:102FA0000020204D323035204200416476616E634E
:102FB00065643A20423C6D696E5F7365676D656E4E
:102FC000745F74696D655F75733E20533C6D696E07
:102FD0005F66656564726174653E20543C6D696E20
:102FE0005F74726176656C5F666565647261746555
:102FF0003E20583C6D61785F785F6A65726B3E2059
:10300000593C6D61785F795F6A65726B3E205A3C0E
:103010006D61785F7A5F6A65726B3E20453C6D61D9
:10302000785F655F6A65726B3E0020540020204D1A
:10303000323034205000416363656C65726174699D
:103040006F6E2028756E6974732F7332293A205081
:103050003C7072696E745F616363656C3E20523CC4
:10306000726574726163745F616363656C3E205462
:103070003C74726176656C5F616363656C3E0020D1
:10308000204D3230312058004D6178696D756D20CA
:10309000416363656C65726174696F6E2028756E3B
:1030A0006974732F7332293A0020204D3230332057
:1030B00058004D6178696D756D2066656564726153
:1030C0007465732028756E6974732F73293A0053E1
:1030D000746570732070657220756E69743A002093
:1030E000440020204D323030205300204469736169
:1030F000626C65640A0046696C616D656E7420736C
:10310000657474696E67733A0020204D313439203C
:1031100043203B20556E69747320696E2043656CB3
:10312000736975730A0020286D6D290020204732CD
:1031300031202020203B20556E69747320696E2059
:103140006D6D000000FA430000FA430000FA4300EE
:1031500000C2420000A0420000A0420000A04200C5
:1031600000514428230000282300002823000010D9
:1031700027000020205261646975733A002E48656B
:10318000696768743A00204D393220580020496E32
:1031900076616C696420657874727564657220006C
:1031A000CE004E0111241FBECFEFD1E2DEBFCDBF56
:1031B00000E00CBF13E0A0E0B2E0E8EBF9E702E0CA
:1031C0000BBF02C007900D92AE32B107D9F723E1D1
:1031D000AEE2B3E001C01D92A032B207E1F718E100
:1031E000C1EDD8E100E006C021970109802FFE0162
:1031F0000F94E038C03DD10780E00807A9F70F948D
:10320000B4210D94CA3C0C9400002F923F924F922F
:103210005F926F927F928F929F92AF92BF92CF9266
:10322000DF92EF92FF920F931F93CF93DF93CDB76F
:10323000DEB7AD970FB6F894DEBF0FBECDBF8DA73A
:10324000209138032CA321E0209338038091A00D16
:103250008D3409F430C2843511F40C942A29873452
:1032600011F00C944F2920919E0D30919F0D253126
:10327000310511F40C94512994F42430310534F4BF
:1032800022303105D4F537FF2CC011C2243031056E
:1032900009F441C02C30310509F47BC008C2213249
:1032A000310509F48BC16CF42D31310509F4E2C00C
:1032B0002E31310509F4FCC02C31310509F0F7C17C
:1032C000C9C02B35310509F47DC12C35310509F410
:1032D0007EC12A35310509F0EAC1109237030C94FA
:1032E000512980913B05813011F00C9451290F94A4
:1032F000DC1F0E9466BF0C94512980913B058130F0
:1033000011F00C9451292230310509F080E00F941E
:10331000D8060C94512980E50E942839882329F089
:103320000F9404216B017C0103C0C12CD12C7601C8
:1033300083E50E942839882361F00E94703820E0DC
:1033400030E04AE754E40F944B320F945C3A6B013F
:103350007C010E94FBD28091420C811105C060E08B
:1033600083E595E00E9458E10F943921C60ED71EDF
:10337000E81EF91E0F943921DC01CB018C199D093F
:10338000AE09BF09B7FD02C00C9451290E941C313F
:10339000F1CF0E9445EEF82E81110C94512960E086
:1033A00070E080E50F94B6208F8F6EE070E083E5CB
:1033B0000F94B6208E8F63E070E084E50F94B62002
:1033C0008C8F40E050E060E470E482E50E94BD4BE9
:1033D00069837A838B839C8380919A0D87FF02C0D7
:1033E0000C945A2980919B0D837011F00C945A29EA
:1033F00011E002E0012B882331F060E08AE50E94B1
:103400005039882311F094E001C090E0092B10910D
:10341000091302FFF12E8F2D0E94653960E085E4CB
:103420000E945039F0904102809341029E01245E37
:103430003F4FAE014F5F5F4FBE01625E7F4FCE01D7
:103440004F960E945CDCF0924102812F0E94653908
:103450000C9451298091990C8770873011F00C944D
:103460006A2960E08FE40E94503981110C9451293F
:103470000C946A290F94392160937E0570937F051F
:1034800080938005909381050E9445EE81110C94F4
:10349000512980910913882311F40C94992960E033
:1034A0008FE40E94503981110C9451290C94992970
:1034B00020919C0C30919D0C40919E0C50919F0C42
:1034C0006091190270911A0280911B0290911C0266
:1034D0000F94E938AB01BC0188E50E94BD4B6983BC
:1034E0007A838B839C832091A00C3091A10C409116
:1034F000A20C5091A30C60911D0270911E0280914C
:103500001F02909120020F94E938AB01BC0189E5BC
:103510000E94BD4B6D837E838F839887BE016B5F56
:103520007F4FCE0101960E94E637882311F40C9458
:10353000512980E00E9465390E9463C384E690E0CF
:10354000909343028093420261E085E40E945039E7
:10355000182F01E021E0482FBE016B5F7F4FCE01A5
:1035600001960E9439EB6B017C019B01AC010F9429
:103570002F3C811119C049815A816B817C8182EE77
:1035800093E20E9426474D815E816F8178858DEDA3
:1035900093E20E942647B701A60188ED93E20E94BC
:1035A00026478AE00E94EE2E0E944AC3113011F491
:1035B0000E94CC370E941E990C9451290E94B86336
:1035C0000C9451298FE0809337030C9451299CE689
:1035D000C92E92E0D92E04ED1CE029E1E22E22E072
:1035E000F22E212C312CF60181916F010E94283995
:1035F000882309F449C00E9470384B015C01F3E054
:103600003F1649F0F80120813181428153810F94A6
:10361000E8384B015C01F7012081318142815381FF
:10362000C501B4010F94E8382B013C012DEB37E3C1
:1036300046E855EB0F949D3B87FD0AC02DEB37E321
:1036400046E855E3C301B2010F94E5311816E4F4DE
:10365000F3E03F120BC08092250290922602A092C6
:103660002702B0922802222423940EC0A3019201C3
:10367000F80160817181828193810F94E938F801AA
:10368000608371838283938333940C5F1F4FF4E0D4
:10369000EF0EF11C24E03212A6CF222021F085E2A9
:1036A00092E00E940BD30E941E990C9451290E9413
:1036B00042EA0C94512980919E0D90919F0D823782
:1036C000910509F474C70CF0CAC08B34910509F454
:1036D000F5C40CF058C08831910509F4FAC24CF5D4
:1036E0008231910509F46CC66CF497FF02C00C940A
:1036F0002729823091050CF42CC2419709F486C227
:103700000C9427298531910509F4C5C22CF44497FE
:1037100009F490C20C9427298631910509F4BFC29F
:10372000479711F00C942729E0919C0DF0919D0D85
:10373000C4C28D31910509F452C3B4F48A319105A4
:1037400009F4ECC20CF4D1C28B31910509F4F4C236
:103750004C9711F00C94272980919C0D90919D0D10
:103760000E94537F0C9451298F31910509F4E2C3D3
:103770000CF43CC38032910509F499C38A9709F48B
:1037800084C40C9427298836910509F4B4C4ECF557
:103790008235910509F406C644F58D34910509F486
:1037A000A6C40CF48FC48035910509F4DCC58135BD
:1037B000910511F00C9427290E9432F80E94ADA3C4
:1037C0000E9486D40E94332D68EE73E080E090E082
:1037D0000E94ED45269A2E9A1092B00360E083E68F
:1037E00096E00E9458E10C9451298435910509F422
:1037F000E7C50CF4DEC58535910509F417C68C358F
:10380000910509F436C60C9427298D36910509F4E3
:1038100098C4ACF48A36910509F4ABC40CF495C491
:103820008B36910509F4E8C48C36910511F00C949F
:10383000272910926C0C10920E020C9451298F368D
:10384000910509F4FBC40CF4E6C48037910509F432
:103850003AC58137910509F43EC50C9427298D326C
:1038600031E0930711F40C9486260CF0F8C0893CE3
:10387000910509F48CC70CF0BDC08837910509F497
:10388000E8C60CF09BC08537910509F497C60CF08B
:1038900088C08337910511F00C9427298CEB97E0B1
:1038A0000E94F52E60E08CEA97E00F94FB0B60E03D
:1038B00087E997E00F94FB0B61E082EA91E20F94B5
:1038C000FB0B61E08CE897E00F94FB0B61E08CE769
:1038D00097E00F94FB0B60E083E797E00F94FB0BFE
:1038E00061E089E697E00F94FB0B61E08FE597E0DC
:1038F0000F94FB0B60E088E597E00F94FB0B61E011
:1039000080E597E00F94FB0B61E082E497E00F9471
:10391000FB0B60E084E397E00F94FB0B61E085E232
:1039200097E00F94FB0B60E087E197E00F94FB0BAF
:1039300060E081E097E00F94FB0B60E080EF96E0A1
:103940000F94FB0B60E081EE96E00F94FB0B61E0BF
:103950008AED96E00F94FB0B60E085EC96E00F9407
:10396000FB0B60E087EB96E00F94FB0B61E084EAD1
:1039700096E00F94FB0B60E087E996E00F94FB0B59
:1039800061E082E996E00F94FB0B60E085E896E049
:103990000F94FB0B60E081E796E00F94FB0B0C9417
:1039A00051298637910509F419C68737910511F019
:1039B0000C9427290E947B9D0C94512981399105F3
:1039C00009F44EC66CF48937910511F00C9427293F
:1039D0001092B2031092B1030E94D79D0C9451290A
:1039E0008B39910509F499C4883C910509F48AC67C
:1039F0000C9427298C3D910511F40C941325ACF4FB
:103A00008C3C910509F408C734F48B3C910509F40A
:103A1000E4C60C9427298D3C910509F42EC7833DFB
:103A2000910509F43AC70C942729823E910511F4B7
:103A30000C948F253CF48D3D910511F40C943A259E
:103A40000C9427298831F1E09F0711F40C94DA25B2
:103A50008C32914011F40C9471260C942729863FE6
:103A600031E0930711F40C94EA27E4F58239F1E090
:103A70009F0711F40C945A27B4F48F3231E0930766
:103A800011F40C944A2714F40C9406278039F1E0C1
:103A90009F0711F40C944D278139914011F40C9437
:103AA00050270C942729843A31E0930711F40C94A1
:103AB00061274CF48A39914011F00C9427290E9417
:103AC000EE2C0C945129843F21E0920711F40C94C0
:103AD000E727853F914011F00C9427290F942E176A
:103AE0000C9451298A39E2E09E0711F40C94AD2818
:103AF000B4F4883F21E0920711F40C94F62714F4F3
:103B00000C94ED278C30E2E09E0711F40C9407280A
:103B10008939924011F40C9414280C942729803A86
:103B200023E0920709F4F8C13CF48335934011F483
:103B30000C94CE280C942729873EF3E09F0711F4BC
:103B40000C94FF28893E934011F40C940D290C9499
:103B5000272980E50E942839882329F00F94042121
:103B60006B017C0103C0C12CD12C760183E50E943E
:103B70002839882361F00E94703820E030E04AE75D
:103B800054E40F944B320F945C3A6B017C010E9419
:103B9000FBD280919C0D90919D0D009721F061E0EA
:103BA0000E94CDE105C060E08CE595E00E9458E1FF
:103BB0001091380383E08093380381E080936C0C8C
:103BC000C114D104E104F10431F00F943921C60E7F
:103BD000D71EE81EF91E80916C0C882311F40C94FA
:103BE000A029C114D104E104F10411F40C949C291E
:103BF0000F943921DC01CB018C199D09AE09BF0955
:103C0000B7FF02C00C949C290C94A0298091980DB8
:103C100084FF02C00C94A72980919A0D87FF02C0EF
:103C20000C94A72980919B0D837011F00C94A72907
:103C30000C94C3298091CA1283FF25C087E895E0C0
:103C40000E94F52E8091CA1283FF17C08BEA90E183
:103C50000E94F48A8BE1EBEAF0E1DE01119601901B
:103C60000D928A95E1F760E070E0CE0101960E9426
:103C7000B480CE0101960E949F8C88E795E00E9457
:103C8000F52E0C9451290E941B2F88E995E00E9483
:103C9000F52E0C9451290E94B77D0C9451290E9455
:103CA000FB7C8091CA12877F80628093CA120C9439
:103CB0005129803209F41082319680818111F9CF27
:103CC00060E080919C0D90919D0D0E949B7F0C94D3
:103CD00051290E94132D882321F00E940A7D0E9401
:103CE00089A30E9482E90C9451298091CA1282FF13
:103CF00003C08B7F8093CA128091D30C813089F7E7
:103D000082E08093D30C0F94392160933306709333
:103D100034068093350690933606E3CF8091CA121D
:103D200083FD02C00C94512983E50E94283981113A
:103D30000C94D1290C94512983E40E94DF38882304
:103D400019F18CEA95E00E94F52E80915510882398
:103D500091F0BE016F5F7F4F82E590E10E94A58CDC
:103D60008E010F5F1F4FF80181918F01882339F079
:103D70000E94EE2EF8CF82EA95E00E94F52E8AE0AE
:103D80000E94EE2E0C9451298091CA1282FF21C00C
:103D90008BEB95E00E94F52E6091C6127091C712D0
:103DA0008091C8129091C9124AE00E94EA2F8FE2D6
:103DB0000E94EE2E6091C2127091C3128091C412C3
:103DC0009091C5124AE00E94EA2F0E94F5300C94AF
:103DD00051298DEC95E00E94F52E0C94512980918B
:103DE000CA128E7F8093CA120C9451298091CA12F4
:103DF00083FD02C00C9451290E942BEA8091CA12C3
:103E000083FD02C00C94512940919C0D50919D0D51
:103E1000BE01645E7F4F80E00E94FFA58C01009789
:103E200011F40C9451296C8D7D8D19821C8222E035
:103E3000AC01CE0101960E946390811102C0F12C69
:103E400014C0CE0101960F94F1148823C1F361E0F0
:103E5000CE0101960E94478C009789F325EEFC0164
:103E600020831C820E94648BF82ECE0101960E9452
:103E70009F8CB801FF2089F086EF95E00E94042F07
:103E80008AE00E94EE2E1092C6121092C712109273
:103E9000C8121092C9120C9451298EED95E00E941F
:103EA000042F8BE49CE10E94F52E0C945129809103
:103EB000CA1282FD0E94FBD28091CA1283FD02C009
:103EC0000C94512960E080E50E945039182F682F2A
:103ED00080919C0D90919D0D0E949B7F83E50E9497
:103EE0002839882381F00E94A738AB01BC01409398
:103EF000C6125093C7126093C8127093C91282E51C
:103F000090E10E9405890E940A7D11110C945129AB
:103F10000E9489A30C94512920919C0D30919D0DF4
:103F20009091CA1292609093CA12C9010E94537F65
:103F30000C9451290E943AA37B018C0120E831E5C1
:103F400041E050E00F943B38C9016DE671E00F94F9
:103F5000B8384B015C01C801B70120E13EE040E008
:103F600050E00F943B38CA01B90128E130E040E04D
:103F700050E00F943B38762E672EC62ED72E8CE35A
:103F8000282E312C412C512CC801B701A2019101DE
:103F90000F943B38F62EE72ECA01B901A201910118
:103FA0000F943B38CB018E010F5F1F4F811491049A
:103FB00099F0EF92FF927F936F936F927F92BF92EF
:103FC000AF929F928F9284E096E09F938F931F937E
:103FD0000F930F947D3113C0A114B104B1F0EF928F
:103FE000FF927F936F936F927F92BF92AF9288E020
:103FF00096E09F938F931F930F930F947D310FB68D
:10400000F894DEBF0FBECDBF30C0CD2879F0EF925F
:10401000FF927F936F936F927F928CE096E09F93D5
:104020008F931F930F930F947D31E9CF892B69F004
:10403000EF92FF927F936F9380E196E09F938F932F
:104040001F930F930F947D31DACFEF92FF9284E1AB
:1040500096E09F938F931F930F930F947D310F9052
:104060000F900F900F900F900F9060E0C8010E948A
:10407000CDE10E941B2FB80188E196E00E94042F39
:104080008AE00E94EE2E0C9451296DE070E080E5EC
:104090000E9435398C0197FF02C00C945129E82EFB
:1040A00060E089E40E94503981110C94E229802F4C
:1040B0000F948F21811150C50C94E2290E9489A38D
:1040C0000C9451298091D30C813011F00C9451291A
:1040D00082E08093D30C0F94392160933306709360
:1040E000340680933506909336060C9451290E942D
:1040F000ADA30C94512980916D0B83FF02C00C94E9
:1041000051290F948D2087FF02C00C94512989E416
:104110000E942839882311F40C941F2A0E94BB386E
:1041200090E01816190614F481E090E0880F991FAA
:10413000880F991FFC01E353FD4E808191810C94FF
:10414000292A0E94C74F0C9451290F948D20182FB3
:1041500087FD0AC087EA9DE20E94F52E812F0E940A
:10416000ABF78AE00E94EE2E9CA1909338030C944A
:10417000F32B60E080E50E944439F82EE1E0E81777
:1041800010F40C94512981E40E94DF38882329F02F
:1041900060919806062F10E002C00FEF10E089E44E
:1041A0000E942839882391F00E94BB3890E01816AD
:1041B000190614F481E090E0880F991F880F991F69
:1041C000FC01E353FD4E0281138108C083E50E9488
:1041D0002839882319F00E94A7388B01EF2DF0E0D1
:1041E000E856F94FB8010F3F110519F010F06FEFC5
:1041F00070E060830C94512960E080E50E944439AE
:10420000823010F00C945129E82FF0E0E856F94F75
:1042100010820C9451298EE40E942839882311F4CD
:104220000C9451290E94A7386093250E7093260E96
:104230008093270E9093280E0C94512983E50E94B9
:10424000DF38882331F060E083E50E9444398093B1
:104250006D0B0E941B2F8BE396E00E94F52E809140
:104260006D0B882369F1A0E0EA2EAAE0FA2E00E0A7
:1042700010E020E080916D0B90E0A0E0B0E0002E17
:1042800004C0B695A795979587950A94D2F780FFB5
:104290000EC0DD24D394D20E222319F08CE20E94AA
:1042A000EE2EF701859194910E94F52E2D2D0F5F32
:1042B0001F4FF2E0EF0EF11C05301105D9F65FCD6E
:1042C00087E396E05ACD41E060E070E082E496E05A
:1042D0000E941F2FE6C783E50E942839882371F0CA
:1042E0000E94BB38282F30E02D3331051CF4809319
:1042F0000002D7C78CE380930002D3C70E941B2F14
:104300004091000250E060E070E080E596E00E949D
:1043100008478AE00E94EE2EC4C783E50E94283930
:10432000882309F4BEC70E94BB38182F90E0CD97B0
:104330000CF01CE3109332030F9439216B017C01C4
:10434000212F30E0A8EEB3E00F948F38C60ED71EB1
:10435000E81EF91EC0922E03D0922F03E092300384
:10436000F09231039EC783E50E94DF38882361F015
:104370008091B003882319F08DE596E002C087E5AF
:1043800096E00E94F52E8DC7269A2E9881E08093A4
:10439000B0036AEF70E080E090E00E94ED450E947B
:1043A00082E97FC7809137038F7D806180933703D7
:1043B00078C7809137038F7E80628093370371C7FF
:1043C00083E50E9428398823E9F00F94392160930E
:1043D0007E0570937F0580938005909381050E94F0
:1043E000703820E030E04AE754E40F944B320F94E9
:1043F0005C3A6093010270930202809303029093EF
:1044000004024FC78091980D84FF02C00C94392A92
:1044100080919A0D87FF02C00C94392A80919B0DE0
:10442000837011F00C94392A0C946A2A83E50E9457
:10443000DF38882309F435C70F94392160937E054E
:1044400070937F0580938005909381050E9470385A
:1044500020E030E04AE754E40F944B320F945C3A8A
:104460006093330370933403809335039093360342
:1044700018C70F948D2087FD14C79091980D94FD57
:1044800004C090919A0D97FF0AC0ECE6CE2EE2E0B0
:10449000DE2EFEE6EF2EFBE0FF2E10E009C090912D
:1044A0009B0D937091F7682F81E00F94C920F9C696
:1044B000F60181916F010E942839882309F46DC0AB
:1044C000133009F063C00E9470384B015C0120E09A
:1044D00030E040EA51E40F94E53187FF4EC0A5017A
:1044E000940160918E0B70918F0B8091900B909145
:1044F000910B0F94E3392B013C019B01AC016091BE
:104500007C0670917D0680917E0690917F060F94C7
:104510004B3260937C0670937D0680937E06909369
:104520007F06A301920160919E0B70919F0B809179
:10453000A00B9091A10B0F944B3260939E0B709344
:104540009F0B8093A00B9093A10B60918C067091B0
:104550008D0680918E0690918F060F94EA31A3010B
:1045600092010F944B320F945C3A60938C067093D7
:104570008D0680938E0690938F0680928E0B90927C
:104580008F0BA092900BB092910B07C00E947038D5
:10459000F701648B758B868B978B1F5FF4E0EF0EB2
:1045A000F11C143009F084CF0E945DD27AC60E94BB
:1045B00001E988E691E10E9400FD73C680919C0D9F
:1045C00090919D0D009709F48CCBFC012081222352
:1045D00009F487CB60E00E94CDE163C600919C0D99
:1045E00010919D0D94E0F12C40E0915029F1F801DB
:1045F0008081282F2B7F213421F421812133E1F484
:1046000008C08035C9F4F801818180538A3048F0B0
:1046100013C0813421F0853421F441E002C0FF242D
:10462000F39498012E5F3F4F89012F5F3F4FF801B0
:1046300080818032C9F3D9CF41110E941B2FFF2006
:1046400021F08EE898E00E94F52EC8010E94FB3010
:1046500028C62093B2032093B1030E94D79D21C6A0
:1046600060E070E083E50E943539823038F00E94C6
:10467000172F82E998E00E94F52E13C68C011127AE
:1046800088E40E9428398823D9F00E94B7388A3AF2
:10469000910544F00E94B7388530914034F40E946F
:1046A000B73805C08AEA90E002C084E091E0F801E2
:1046B000EE0FFF1FEE0FFF1FE353FD4E918380832C
:1046C00086E40E942839882309F4EBC50E94B73894
:1046D00097FD09C00E94B7388F3F910509F034F467
:1046E0000E94B73805C080E090E002C08FEF90E0F4
:1046F000000F111F000F111FF801E353FD4E9383AC
:104700008283CFC50F948D20182F87FDCAC50091D5
:104710000E1384E40E942839882309F4DEC60E941F
:1047200070386B017C0120E030E0A9010F94E53185
:10473000882339F124E01202F0011124E65FFC4ED7
:10474000C082D182E282F38220E030E0A901609150
:104750000A1370910B1380910C1390910D130F9409
:10476000E53181110CC080E090E0A0EEBFE38093C2
:104770000A1390930B13A0930C13B0930D1301E045
:10478000ACC680E080930E130E9491BA8AC50F9444
:104790008D2087FD86C54CE6E42E42E0F42E0EE621
:1047A0001BE05EE7C52E5BE0D52EF70181917F010E
:1047B0000E94DF38882359F00E9470380F945C3AC9
:1047C000F80160837183828393830E9416D20C5F09
:1047D0001F4FC016D10649F764C50F948D2087FD81
:1047E00060C53CE6E32E32E0F32E0EE61BE0F70157
:1047F00081917F010E94DF38882339F00E94703850
:10480000F80164A375A386A397A30C5F1F4FFBE079
:104810000E371F0761F745C58091990D87FD62C668
:1048200080919A0D8E7009F05DC64091A20B509157
:10483000A30B6091A40B7091A50B84EB98E00E94F0
:1048400026474091A60B5091A70B6091A80B709141
:10485000A90B8DE69EE20E9426474091AA0B50913B
:10486000AB0B6091AC0B7091AD0B8AE290E30E94B0
:1048700026478AE00E94EE2E14C58091980D827121
:1048800009F076C680919A0D8C7809F071C68091F6
:104890009B0D837009F06CC604C54090D40C5090F9
:1048A000D50C6090D60C7090D70C209129023091D5
:1048B0002A0240912B0250912C02C301B2010F94A5
:1048C000E93868A379A38AA39BA38090D80C909021
:1048D000D90CA090DA0CB090DB0C20912D02309115
:1048E0002E0240912F0250913002C501B4010F9465
:1048F000E9386DA37EA38FA398A7C090DC0CD0905D
:10490000DD0CE090DE0CF090DF0C20913102309154
:1049100032024091330250913402C701B6010F9424
:10492000E93869A77AA78BA79CA720913502309117
:1049300036024091370250913802C301B2010F9400
:10494000E9382B013C012091390230913A02409123
:104950003B0250913C02C501B4010F94E9384B0170
:104960005C0120913D0230913E0240913F02509106
:104970004002C701B6010F94E9386B017C010E9427
:104980001B2F84ED98E00E94F52E83E50E94DF380E
:10499000882321F00E94CF38809341028091410208
:1049A000882319F088E395E002C088EB97E00E9425
:1049B000F52E8CEC98E00E94F52E48A159A16AA131
:1049C0007BA185E890E30E9426474DA15EA16FA1DF
:1049D00078A581E591E20E94264749A55AA56BA5D5
:1049E0007CA585E491E20E94264785E894E20E9436
:1049F000F52E84EC98E00E94F52EB301A20185E823
:104A000090E30E942647B501A40181E591E20E944E
:104A10002647B701A60185E491E20E9426478AE075
:104A20000E94EE2E3EC483E50E942839882331F08F
:104A30000E94B73890934302809342028091980D70
:104A40009091990DA0919A0DB0919B0D892B8A2B75
:104A50008B2B09F026C4609142027091430284EED0
:104A600098E00E94733085E20E94EE2E8AE00E9458
:104A7000EE2E17C40F948D20F82E87FD12C483E507
:104A80000E9428390F2D0F2C000C110B882361F187
:104A90000E94B738F801EE0FFF1FEC5BFD4F9183CA
:104AA0008083000F111F000F111F98012D5E3D4FD5
:104AB0007901BC01990F880B990B0F94EC312AE016
:104AC00037ED43E25CE30F944B32F801E35EF34FC2
:104AD00020813181428153810F944B32F7016083F1
:104AE000718382839383DDC30E941B2F85E40E9420
:104AF000EE2E80E38F0D0E94EE2EF801EE0FFF1FC9
:104B0000EC5BFD4F6081718188EE98E00E9473300C
:104B100085E20E94EE2E8AE00E94EE2EC2C380E55E
:104B20000E94DF38882309F4BCC360E070E080E5B0
:104B30000E943539F82E6FEF7FEF83E50E943539FB
:104B40008C010196039708F0ACC3F7FCAAC38F2D24
:104B50000F948F21882339F00E94172F80EF98E05F
:104B60000E94F52E9EC30E94FBD260E08F2D0E9412
:104B700028E40F3FFFEF1F0731F00130110571F0FE
:104B800000E010E00DC08F2D0E9495E331E020E0A1
:104B9000892B09F030E0032F122F02C001E010E052
:104BA0008F2D0E9495E38017910709F47AC30E9424
:104BB0001C31F6CF80E50E94DF38882309F471C3E9
:104BC0000E94B7388C01892B09F07FC083E50E94D1
:104BD000DF38882389F00E94B7388F3F2FEF920784
:104BE00029F488E191E10E94382D5BC3BC0188E182
:104BF00091E10E94A42D55C30E941B2F60E070E03C
:104C00008EE099E00E94733080911A1128E532E01D
:104C10006901C81AD10887FDD394CC0CDD1CCC0CDB
:104C2000DD1C0D2C000CEE08FF088091191128E8FE
:104C300030E04901881A910887FD9394880C991CEB
:104C4000880C991C092C000CAA08BB08809118112B
:104C50008F3FC1F090E0FC01EE0FFF1F8E0F9F1FF2
:104C6000FC01E153FF4E2181328143E0220F331FCB
:104C70004A95E1F754E0369527955A95E1F72E5F6E
:104C80003F4F02C020E030E02F5F3F4FC901330F9C
:104C9000AA0BBB0B9C01AD01281939094A095B0914
:104CA000A4EBB0E00F947C38A701960128193909CC
:104CB0004A095B090F945D38B9018BEB94E20E94BD
:104CC00073308AE00E94EE2EECC20E94172FB801CA
:104CD0008FE099E00E9473308FEF98E00E94F52EEC
:104CE000E0C264E071E083E50F94B6208C0168EEC9
:104CF00073E080E50F94B620893833E1930710F014
:104D000088E893E1B8010E9421E1CBC260E085E42C
:104D10000E944439811173C080E50E94DF388823E6
:104D200051F00E9470386093461070934710809342
:104D300048109093491089E40E94DF38882381F05D
:104D40000E9470382CEA35EC47E25EE30F944B3258
:104D500060934A1070934B1080934C1090934D10B9
:104D600084E40E94DF38882381F00E9470382CEAA6
:104D700035EC47E25EE30F94E33960934E10709395
:104D80004F1080935010909351100E941B2F409110
:104D900046105091471060914810709149108EE173
:104DA00099E00E9426472CEA35EC47E25EE36091E9
:104DB0004A1070914B1080914C1090914D100F94AF
:104DC000E339AB01BC018AE199E00E9426472CEA55
:104DD00035EC47E25EE360914E1070914F10809188
:104DE0005010909151100F944B32AB01BC0186E1F1
:104DF00099E00E9426478AE00E94EE2E52C20E944D
:104E0000172F82E299E00E94F52E4BC283E50E94A3
:104E1000DF38182F882371F00E9470380F94553AAC
:104E2000709318026093170221E0672B09F020E0CD
:104E30002093AA0680E50E94DF38882359F020914C
:104E4000170230911802232B11F00E94CF38809363
:104E5000AA0627C2111125C20E941B2F8DE499E0DA
:104E60000E94F52E8091AA06882319F089E99EE117
:104E700002C084E399E00E94F52E609117027091C0
:104E800018028CE399E00E94733088E399E00E9455
:104E9000F52E07C20E94D44B04C20E94FBD201C26D
:104EA00080919B0C81110C94531B81E00E9405D1D1
:104EB0000C94531B0E94C3370E94CC370E941E994A
:104EC000F0C183E50E94DF38082F882321F00E947B
:104ED000CF38182F02C0109109134090190250903A
:104EE0001A0260901B0270901C0280901D0290902C
:104EF0001E02A0901F02B0902002C0902102D0900C
:104F00002202E0902302F0902402002329F01111E4
:104F100003C080E00E94653986E50E94DF3888235F
:104F200021F084EB9CE00E9450EA812F0E946539B9
:104F3000112351F080910913811106C00E94172F8F
:104F40008EE699E00E94F52E0E941B2F80E699E0E4
:104F50000E94F52E80910913882319F088E395E0CB
:104F600002C088EB97E00E94F52E8AE00E94EE2EA8
:104F70002091190230911A0240911B0250911C029B
:104F8000C301B2010F94E53181110C94531B2091A0
:104F90001D0230911E0240911F0250912002C50156
:104FA000B4010F94E53181110C94531B209121021F
:104FB000309122024091230250912402C701B60190
:104FC0000F94E531882309F46CC10C94531B0E94A3
:104FD0005ACC67C10F949F1564C161E083E50E94BC
:104FE000503991E089270F943C175BC181E0809391
:104FF000CC120F94A30C1092CC12882309F451C147
:105000000E941B2F8DE899E00E94F52E4AC18091E5
:10501000CA1282FF04C080648093CA1242C183FF17
:1050200040C10E942BEA3DC188E40E94DF388823FA
:1050300051F00E9470386093F1127093F2128093D5
:10504000F3129093F4128CE40E94DF38882351F01D
:105050000E9470386093F9127093FA128093FB12D9
:105060009093FC1282E50E94DF38882351F00E9461
:1050700070386093F5127093F6128093F712909344
:10508000F81283E50E94DF38882351F00E947038BF
:105090006093ED127093EE128093EF129093F012E2
:1050A00088E50E94DF38882351F00E9470386093B1
:1050B000E1127093E2128093E3129093E41289E577
:1050C0000E94DF38882351F00E9470386093E51207
:1050D0007093E6128093E7129093E8128AE50E949B
:1050E000DF38882351F00E9470386093E912709382
:1050F000EA128093EB129093EC1281E40E94DF3865
:10510000882351F00E9470386093D5127093D612A4
:105110008093D7129093D81282E40E94DF388823BC
:1051200051F00E9470386093D9127093DA12809314
:10513000DB129093DC1283E40E94DF38882351F065
:105140000E9470386093DD127093DE128093DF123C
:105150009093E0120E9484A0A4C08DEFE82E82E11B
:10516000F82E18E5812F0E94DF38882381F00E94F5
:1051700070384B015C0120E030E0A9010F94E5316B
:1051800018162CF0F70180829182A282B3821F5FF1
:10519000F4E0EF0EF11C1B3529F783C080919A0DC6
:1051A00087FD51C280919B0D837009F04CC24091E4
:1051B0009C0C50919D0C60919E0C70919F0C85ED04
:1051C00099E00E9426474091A00C5091A10C60915B
:1051D000A20C7091A30C81E591E20E9426474091B8
:1051E000A40C5091A50C6091A60C7091A70C85E4BD
:1051F00091E20E9426478AE00E94EE2E52C081E092
:1052000080933B0510926B0C60E083E50E9450395F
:10521000811147C00F94BD0444C00E943AA36D336E
:1052200071058105910520F08CEF99E00F94150C24
:1052300088EF99E00F94150C84EE99E00E94F52E0A
:1052400086E89DE19093B7038093B6032AC00E943D
:1052500042EA27C000919E0D10919F0D0F943921B5
:1052600060937E0570937F05809380059093810500
:105270000023B9F00E941B2F84E50E94EE2EB80196
:105280007727072E000C880B990B0E94573080E27D
:105290000E94EE2E82E299E00E94F52E02C00E944A
:1052A00042EA2DA5211102C00F94AD043CA1309318
:1052B000380399C260E088E50E945039182F60E0F9
:1052C00089E50E94503981110C94F91981E000E0C0
:1052D0000C94FA190E94FBD21091091380E00E94ED
:1052E00065390F94392160937E0570937F05809313
:1052F0008005909381050E9463C384E690E09093BB
:1053000043028093420281E08093B2030E94D79DC2
:105310000E94F49D8091B1038093B203812F0E947B
:1053200065390E944AC383E0809352020E941E990D
:10533000B8CF0E948539B5CF0E941C310C94EB1D6B
:1053400010926C0C109338030E9482E9AACF88E572
:105350000E94DF3881115F9889E50E94DF38811152
:105360008A988AE50E94DF38882329F08091080115
:1053700081708093060185E40E94DF38882309F458
:1053800090CF12988ECF60E08FE695E00E9458E1B2
:105390005F988A9880910801817080930601129825
:1053A00080CF0E94A738AB01BC014093C612509336
:1053B000C7126093C8127093C91282E590E10E94EF
:1053C00005896FCF8DE40E9428398823A9F00E94B7
:1053D000BB38813039F020F0823049F462E003C0FC
:1053E00060E001C061E0802F0E9428E405C085E2F2
:1053F00096E00E94F52E55CF83E50E942839882338
:1054000009F44FCF0E94BB38F82E37E0E31631F095
:1054100089E0E81206C0F092980643CF809399067F
:1054200040CF61E0802F0E9428E46F2D802F0E94E2
:10543000BEE36F2D70E0802F0E9464E432CF83E5DD
:105440000E942839882391F00E9470380F94553AB1
:10545000CB010E949BF780914310909144108635B8
:10546000910524F40E94ADA30E9482E90E94C9D153
:1054700018CF0E94FBD288E50E94DF38882331F0E4
:105480005F9A80919A0C8E7F80939A0C89E50E9496
:10549000DF38882331F08A9A80919A0C8D7F80932F
:1054A0009A0C8AE50E94DF38882359F08091080120
:1054B000809581708093060180919A0C8B7F8093F8
:1054C0009A0C85E40E94DF38882309F4EACE0E9412
:1054D000D32CE7CE0E9486D4E4CE602F83E50E94D1
:1054E000503950C983E50E942839882391F00E94E1
:1054F00070386093A20B7093A30B8093A40B9093CE
:10550000A50B6093AA0B7093AB0B8093AC0B90939D
:10551000AD0B80E50E942839882351F00E94703835
:105520006093A20B7093A30B8093A40B9093A50B95
:1055300082E50E942839882351F00E9470386093D8
:10554000A60B7093A70B8093A80B9093A90B84E5EF
:105550000E942839882309F4A4CE0E9470386093F1
:10556000AA0B7093AB0B8093AC0B9093AD0B99CEC1
:1055700082E40E94DF38882351F00F940421609365
:105580007E0B70937F0B8093800B9093810B83E550
:105590000E94DF38882351F00E9470386093AE0B70
:1055A0007093AF0B8093B00B9093B10B84E50E9486
:1055B000DF38882351F00E9470386093B20B7093EB
:1055C000B30B8093B40B9093B50B88E50E94DF3842
:1055D000882351F00E9470386093700670937106B2
:1055E000809372069093730689E50E94DF388823C2
:1055F00051F00E9470386093740670937506809322
:105600007606909377068AE50E94DF38882351F06A
:105610000E947038609378067093790680937A06BA
:1056200090937B0685E40E94DF38882309F439CE05
:105630000E94703860937C0670937D0680937E068E
:1056400090937F062ECE80919C0C88A320909D0C79
:1056500080909E0C70909F0C6090A00C5090A10CBC
:105660004090A20C3090A30CC090A40CD090A50C3C
:10567000E090A60CF090A70C88E50E9428398823BA
:1056800061F10E9470385B018C0120E030E048E459
:1056900053EC0F949D3B87FD0AC020E030E048E4C6
:1056A00053E4B501C8010F94E531181694F468EC81
:1056B00070E082EC99E00E94733068EC70E08DEB52
:1056C00099E00E9473308AEB9DE00E94F52E10E075
:1056D00005C0A8A22B2C802E712E11E089E50E9416
:1056E0002839882381F10E947038962EA72EB82E73
:1056F000092F20E030E048E453EC0F949D3B87FDF8
:105700000CC020E030E048E453E4692D7A2D8B2D65
:10571000902F0F94E531181694F468EC70E08AEA43
:1057200099E00E94733068EC70E08DEB99E00E9484
:1057300073308AEB9DE00E94F52E10E004C0692CC6
:105740005A2C4B2C302E8AE50E942839882339F1B7
:105750000E9470386B017C0120E030E040EA51EC9F
:105760000F949D3B87FD0AC020E030E040EA51E401
:10577000C701B6010F94E53118168CF46CEE7FEF7B
:1057800088E999E00E94733064E170E08DEB99E064
:105790000E9473308AEB9DE00E94F52E82CD11238A
:1057A00009F47FCD88A1922DA82DB72D80939C0C54
:1057B00090939D0CA0939E0CB0939F0C862D952DDD
:1057C000A42DB32D8093A00C9093A10CA093A20CB8
:1057D000B093A30CC092A40CD092A50CE092A60C9E
:1057E000F092A70C5ECDAD960FB6F894DEBF0FBE5B
:1057F000CDBFDF91CF911F910F91FF90EF90DF9080
:10580000CF90BF90AF909F908F907F906F905F9060
:105810004F903F902F900895CF92DF92EF92FF929A
:105820000F931F93CF93DF936C018B017A01EC01EF
:10583000C45CDC4F888187FF04C0FB0111821082A9
:1058400024C02CE02C9DC0012D9D900D1124288199
:10585000AC01420F511D27FD5A952091171130E0E0
:105860004217530794F42881AC01420F511D27FDC4
:105870005A959A01FA01EE0FFF1F2E0F3F1FF901F3
:10588000E153FF4E208127FD19C088818F5F8883F7
:105890002CE02C9DC0012D9D900D11242881AC0180
:1058A000420F511D27FD5A952091171130E04217E4
:1058B0005307BCF428812C3044F113C02881820F97
:1058C000911D27FD9A95FC01EE0FFF1F8E0F9F1F64
:1058D000FC01E153FF4E808160E08F770E94BEE3C0
:1058E000D4CFF80180819181049680349C4918F4CA
:1058F00080E49CE904C0F801808191810496F7015D
:10590000918380838FEF888345C0F8014081518166
:105910002881BC01620F711D27FD7A959B01FB0157
:10592000EE0FFF1F2E0F3F1FF901E153FF4E2181A4
:105930003281240F351FF701318320832881AC0188
:10594000420F511D27FD5A959A01FA01EE0FFF1FD4
:105950002E0F3F1FF901E153FF4E208127FF1AC090
:105960002881820F911D27FD9A95FC01EE0FFF1FE4
:105970008E0F9F1FFC01E153FF4E808161E08F7706
:10598000DF91CF911F910F91FF90EF90DF90CF901B
:105990000C94BEE3DF91CF911F910F91FF90EF9098
:1059A000DF90CF900895129A08955F9A80919A0C93
:1059B0008E7F80939A0C8A9A80919A0C8D7F809327
:1059C0009A0C8091080180958170809306018091E6
:1059D0009A0C8B7F80939A0C0C94D32CCF930E94BB
:1059E000F6BDC82F80911F1180931E1180931D1149
:1059F00080931C1184E680931B110E9408D280EDD5
:105A000093E090936C0B80936B0BC1110E9403BECB
:105A100081E08093FC0C0E94FBD28EEF0E9468997B
:105A2000CF910C941C999091CA1293FB882780F90E
:105A300093FF06C081E090915510911101C080E064
:105A400008958091D30C823061F00E94132D882339
:105A500049F08091CA1282FB882780F991E089275A
:105A6000089581E00895E8E9F6E010821182089532
:105A7000DC01EC91F0E0CF01880F991FE80FF91FCE
:105A8000E153FF4E80818F77808308958F929F929C
:105A9000AF92BF92CF92DF92EF92FF920F93CF938C
:105AA000DF931F92CDB7DEB75C016B017A0149012C
:105AB000F501808191810F9415388983002311F0BD
:105AC000F6018083BE016F5F7F4FC4010F94B51252
:105AD000F50180819181019691838083FFEFCF1A38
